S00E0000646F646765722E73726563A1
S11300000C947E030C94A6030C94A6030C94A603F0
S11300100C94A6030C94A6030C94A6030C94A603B8
S11300200C94A6030C94C8120C94A6030C94A60377
S11300300C94A6030C9449180C94A6030C94A603E0
S11300400C948B1B0C94A6030C94BF1A0C94F11AF9
S11300500C94A6030C94A6030C94A6030C94A60378
S11300600C94A6030C94A603B103B303B703BA0319
S1130070BC03BF03C3030100000001000101010030
S11300800001000100000101010001000000010065
S11300900100000000010101010001000100010153
S11300A00101000000000100000001000000010146
S11300B00100010100010100010101000000010033
S11300C00000000001000101010100000100010025
S11300D00001010101000100000000000000000017
S11300E0000000000000010000000000000000000B
S11300F000000000000000000000010000000101F9
S113010001000000010000000000000000000100E8
S113011000000001000001010101010000010000D4
S113012000000100000000010000000001000001C7
S113013001000101000001000000000100000000B6
S113014001000000000000000100010001000000A7
S11301500000000001000000000000000001000198
S11301600000000100000001000100000000000088
S11301700100000001000100010000000100000076
S11301800100010001000000010100000001000164
S11301900001000000000000000100010001000057
S11301A00001010000000100000000000000000048
S11301B00000000000000100000001000000000039
S11301C03E5B4F5B3E3E6B4F6B3E1C3E7C3E1C18C1
S11301D03C7E3C181C577D571C1C5E7F5E1C00181F
S11301E03C1800FFE7C3E7FF0018241800FFE7DB13
S11301F0E7FF30483A060E2629792926407F05056F
S113020007407F05253F5A3CE73C5A7F3E1C1C08AB
S1130210081C1C3E7F14227F22145F5F005F5F0670
S1130220097F017F006689956A606060606094A2BE
S1130230FFA29408047E040810207E201008082AD7
S11302401C08081C2A08081E101010100C1E0C1E76
S11302500C30383E3830060E3E0E0600000000001A
S113026000005F00000007000700147F147F1424BF
S11302702A7F2A1223130864623649562050000844
S1130280070300001C2241000041221C002A1C7F9D
S11302901C2A08083E080800807030000808080876
S11302A008000060600020100804023E5149453EE9
S11302B000427F400072494949462141494D331863
S11302C014127F1027454545393C4A49493141219B
S11302D01109073649494936464949291E0000147F
S11302E000000040340000000814224114141414C7
S11302F014004122140802015909063E415D594E79
S11303007C1211127C7F494949363E414141227F8A
S11303104141413E7F494949417F090909013E4123
S11303204151737F0808087F00417F41002040410C
S11303303F017F081422417F404040407F021C025D
S11303407F7F0408107F3E4141413E7F0909090631
S11303503E4151215E7F0919294626494949320304
S1130360017F01033F4040403F1F2040201F3F408A
S113037038403F6314081463030478040361594943
S11303804D43007F41414102040810200041414196
S11303907F0402010204404040404000030708007B
S11303A020545478407F28444438384444442838FE
S11303B04444287F385454541800087E090218A471
S11303C0A49C787F0804047800447D4000204040C9
S11303D03D007F1028440000417F40007C047804E5
S11303E0787C080404783844444438FC18242418DD
S11303F018242418FC7C0804040848545454240485
S1130400043F44243C4040207C1C2040201C3C40B1
S113041030403C44281028444C9090907C446454D0
S11304204C440008364100000077000000413608C3
S11304300002010204023C2623263C1EA1A16112F3
S11304403A4040207A38545455592155557941221F
S113045054547842215554784020545579400C1E08
S113046052721239555555593954545459395554B1
S113047054580000457C410002457D420001457C02
S1130480407D1211127DF0282528F07C545545003A
S11304902054547C547C0A097F4932494949323AF0
S11304A04444443A324A4848303A4141217A3A4233
S11304B0402078009DA0A07D3D4242423D3D404009
S11304C0403D3C24FF2424487E4943662B2FFC2FC7
S11304D02BFF0929F620C0887E0903205454794152
S11304E00000447D413048484A32384040227A0076
S11304F07A0A0A727D0D19317D2629292F28262989
S113050029292630484D40203808080808080808DA
S113051008382F10C8ACBA2F102834FA00007B001A
S11305200008142A142222142A14085500550055D0
S1130530AA55AA55AAFF55FF55FF000000FF001059
S11305401010FF00141414FF001010FF00FF10100F
S1130550F010F0141414FC001414F700FF0000FF52
S113056000FF1414F404FC141417101F10101F10AF
S11305701F1414141F00101010F0000000001F10AE
S11305801010101F10101010F010000000FF1010B9
S113059010101010101010FF10000000FF140000C5
S11305A0FF00FF00001F10170000FC04F4141417D0
S11305B010171414F404F40000FF00F714141414B6
S11305C0141414F700F7141414171410101F101F28
S11305D0141414F4141010F010F000001F101F0075
S11305E000001F14000000FC140000F010F01010B4
S11305F0FF10FF141414FF141010101F000000004B
S1130600F010FFFFFFFFFFF0F0F0F0F0FFFFFF003E
S113061000000000FFFF0F0F0F0F0F384444384451
S1130620FC4A4A4A347E02020606027E027E0263C5
S1130630554941633844443C04407E201E20060250
S11306407E020299A5E7A5991C2A492A1C4C72012D
S1130650724C304A4D4D303048784830BC625A466E
S11306603D3E494949007E0101017E2A2A2A2A2A5F
S113067044445F444440514A444040444A51400049
S113068000FF0103E080FF000008086B6B083612CE
S1130690362436060F090F06000018180000001053
S11306A010003040FF0101001F01011E00191D1739
S11306B012003C3C3C3C0000000000010204081015
S11306C020408001020408102001020408102004C4
S11306D004040404040404020202020202030303E5
S11306E003030300000000250028002B0000000085
S11306F000240027002A0000AD0D211B11241FBE79
S1130700CFEFD8E0DEBFCDBF11E0A0E0B1E0E6ED71
S1130710FDE302C005900D92A835B107D9F722E098
S1130720A8E5B1E001C01D92A836B207E1F713E0D5
S1130730CEE7D3E004C02197FE010E942C1DCC37E4
S1130740D107C9F70E944F1B0C94E91E0C940000BA
S113075090E087309105F0F4FC01EC5CFF4F0C94C1
S11307602C1D20E011C020E041E062E00FC020E039
S113077041E00BC020E001C021E041E002C021E0E3
S113078040E060E003C021E040E061E08AE591E000
S11307900C94E91508955F926F927F928F929F92C5
S11307A0AF92BF92CF92DF92EF92FF920F931F937B
S11307B0CF93DF935C014B017A01722EFA018081A1
S11307C08F5F482F50E0F4E02F9F90011124F70130
S11307D04217530714F4808301C01082C0E0D0E0B4
S11307E089E1582E95E0692E00E010E06C9E6001CE
S11307F06D9ED00C1124F7018081672D0E94B71CD7
S1130800F601589EE00DF11D1124E00FF11FEA5886
S1130810FF4FE491EE23D1F027E047E067E08AE55B
S113082091E00E94E915F4012081AE01420F511DAF
S113083042505109F5012081B801620F711D6250C7
S113084071099C018AE591E00E94F2120F5F1F4F2B
S11308500530110581F62196C530D10529F6DF91C1
S1130860CF911F910F91FF90EF90DF90CF90BF90A9
S1130870AF909F908F907F906F905F9008955F925C
S11308806F927F928F929F92AF92BF92CF92DF929C
S1130890EF92FF920F931F93CF93DF936C01FA01B2
S11308A09081A92FB0E089E0289FF00111243197AD
S11308B0AE17BF070CF047C0722E7A015B019F5F31
S11308C0FA019083C0E0D0E089E1582E95E0692ECA
S11308D000E010E06C9E40016D9E900C1124F70125
S11308E08081672D0E94B71CF401589EE00DF11D14
S11308F01124E00FF11FE652FF4FE491EE23D1F0F3
S113090025E045E065E08AE591E00E94E915F501FE
S11309102081AE01420F511D42505109F601208140
S1130920B801620F711D625071099C018AE591E062
S11309300E94F2120F5F1F4F0530110581F62196B8
S1130940C530D10529F6DF91CF911F910F91FF900A
S1130950EF90DF90CF90BF90AF909F908F907F905B
S11309606F905F900895CF92DF92EF92FF920F9372
S11309701F93CF93DF93EC018C010D5F1F4F6C012C
S11309808BE0C80ED11C8DE090E00E945E1B7C01C0
S11309900E94640BF801E192F1928F01EC15FD05C0
S11309A091F71A82DF91CF911F910F91FF90EF90F1
S11309B0DF90CF900895FC018081918166E272E01E
S11309C00E94C31C892B29F465E089E991E00C9409
S11309D0530D08954F925F926F927F928F929F92E0
S11309E0AF92CF92DF92EF920F931F93CF93DF9347
S11309F0EC01888199818436910599F48B819C81DD
S1130A00DC01ED91FC910680F781E02DA12C26E913
S1130A10C22ED12C35E0E32E08E020E248E06FEF4F
S1130A20099528813981C9018059914081399140C2
S1130A3008F081C0C9016EE670E00E94C31C892BD6
S1130A40D1F5C9016CED70E00E94C31C892B99F1AA
S1130A508B858370FE01E80FF11DE80FF11D038003
S1130A60F481E02D0190F081E02D4680578020E252
S1130A7030E040E050E060E070E0CB010E94951C63
S1130A80062F20E230E040E050E060E070E0CB016F
S1130A900E94951C462F8B858370FE01E80FF11D83
S1130AA0E80FF11DA12C84E6C82ED12C93E0E92E89
S1130AB020E260E039C0C9016CED70E00E94C31C03
S1130AC0892BC9F58B858370FE01E80FF11DE80FB2
S1130AD0F11D0380F481E02D0190F081E02D46802A
S1130AE0578020E230E040E050E060E070E0CB016D
S1130AF00E94951C162F20E230E040E050E060E0B8
S1130B0070E0CB010E94951C8B858370FE01E80F79
S1130B10F11DE80FF11DA12CB4E6CB2ED12C03E07E
S1130B20E02E00E2212F40E083819481F2010995B7
S1130B308B858F5F8B8788819981883E934001F5EF
S1130B408B819C81DC01ED91FC910680F781E02D85
S1130B50A12CA4E6CA2ED12CEE24E39400E22FE0CB
S1130B6040E066E009958D819E81DC01ED91FC9168
S1130B700680F781E02D06E02FE148E160E0099569
S1130B8088819981803B944029F58D819E810E94C2
S1130B90790B8D819E81DC01ED91FC910680F781BA
S1130BA0E02D62E0A62E74E6C72ED12CEE24E39449
S1130BB005E12FE14FE060E009958F819885DC0124
S1130BC0ED91FC910680F781E02D0FE12CE140E0EE
S1130BD067E109958881998184319540D1F58B81AC
S1130BE09C810E94790B8D819E810E94790B8F815B
S1130BF098850E94790B8B819C81DC01ED91FC919D
S1130C000680F781E02D45E0A42E54E6C52ED12CB4
S1130C10EE24E3940AE12FE140E060E009958D8140
S1130C209E81DC01ED91FC910680F781E02D0BE0C3
S1130C302FE14DE160E009958F819885DC01ED910C
S1130C40FC910680F781E02D0FE126E140E062E1AE
S1130C5009958881998188379540D1F58B819C814C
S1130C600E94790B8D819E810E94790B8F819885DA
S1130C700E94790B8B819C81DC01ED91FC910680B3
S1130C80F781E02D23E0A22E34E6C32ED12CEE24EE
S1130C90E39400E026E149E160E009958D819E81BD
S1130CA0DC01ED91FC910680F781E02D00E226E164
S1130CB04CE060E009958F819885DC01ED91FC9111
S1130CC00680F781E02D0BE02FE143E060E0099519
S1130CD028813981C9018A5A95408335934008F0A7
S1130CE095C0C9016CE370E00E94C31C892B09F014
S1130CF043C0C90168E770E00E94C31C892BE1F17D
S1130D008B858370FE01E80FF11DE80FF11D038050
S1130D10F481E02D0190F081E02D4680578027E09A
S1130D2030E040E050E060E070E0CB010E94951CB0
S1130D30A62E20E230E040E050E060E070E0CB011D
S1130D400E94951C062F20E230E040E050E060E075
S1130D5070E0CB010E94951C462F8B858370FE01A9
S1130D60E80FF11DE80FF11D84E6C82ED12CEE2406
S1130D70E39420E260E043C0C90168E770E00E94A8
S1130D80C31C892B09F042C08B858370FE01E80FD8
S1130D90F11DE80FF11D0380F481E02D0190F08135
S1130DA0E02D4680578027E030E040E050E060E0EE
S1130DB070E0CB010E94951CA62E20E230E040E0BA
S1130DC050E060E070E0CB010E94951C162F20E2F9
S1130DD030E040E050E060E070E0CB010E94951C00
S1130DE08B858370FE01E80FF11DE80FF11D04E609
S1130DF0C02ED12CEE24E39400E2212F40E0838125
S1130E009481F20109958B858F5F8B878881998105
S1130E108C3F9840C9F489859A850E94790B89850D
S1130E209A85DC01ED91FC910680F781E02DA12CDF
S1130E30ACEBCA2EA2E0DA2EB3E0EB2E00E22EE1F8
S1130E4040E06EE109951B86888199819C012E52B0
S1130E5039402335334008F063C06CE370E00E94EE
S1130E60C31C892B09F04AC08B8580FB662460F87B
S1130E70712C660C771CFE01E60DF71D0380F481CE
S1130E80E02D0190F081E02D6680778027E030E04E
S1130E9040E050E060E070E0CB010E94951CA62E7B
S1130EA020E230E040E050E060E070E0CB010E94DE
S1130EB0951C062F20E230E040E050E060E070E056
S1130EC0CB010E94951C462F8B8580FB882480F8DB
S1130ED0912C880C991CDE01A80DB91D74E6C72E4F
S1130EE0D12CEE24E39420E260E013968D919C9142
S1130EF01497F30109958B858F5F8B87888199817E
S1130F006EE170E00E94C31C892B51F46FEF898558
S1130F109A850E946F0B6FEF89859A850E94740BE6
S1130F208881998188349D4029F51B868B8584307E
S1130F3068F4FE01E80FF11DE80FF11D838194812F
S1130F400E94790B8B858F5F8B87F0CF8B819C817F
S1130F50DC01ED91FC910680F781E02DA12C4CEB96
S1130F60C42E42E0D42EEE24E39400E020E24FE0CD
S1130F7060E009958881998183399D4021F48B81B2
S1130F809C810E946B0B888199818836904149F538
S1130F908B819C810E94790B8B819C81DC01ED917A
S1130FA0FC910680F781E02DA12C3CEBC32E32E0AE
S1130FB0D32EEE24E39408E020E248E060E00995B3
S1130FC08D819E810E94790B8D819E81DC01ED9142
S1130FD0FC910680F781E02D08E120E248E160E021
S1130FE0099588819981833B904141F48B819C814F
S1130FF00E946B0B8D819E810E946B0B888199816D
S11310008838934109F03FC01B868B85843068F48F
S1131010FE01E80FF11DE80FF11D838194810E9408
S1131020790B8B858F5F8B87F0CF8B819C81DC0163
S1131030ED91FC910680F781E02DA12C28E7C22ECA
S113104025E0D22EEE24E39400E02AE14FE060E0B4
S113105009958D819E81DC01ED91FC910680F781DB
S1131060E02D00E22AE140E06AE109958F8198854C
S1131070DC01ED91FC910680F781E02D0FE020E08A
S113108040E26AE1099588819981833D934161F445
S11310908B819C810E946B0B8D819E810E946B0BC6
S11310A08F8198850E946B0B28813981C9018051F9
S11310B09E40813F9A4008F0ACC0C90160E570E0F1
S11310C00E94C31C892B09F052C0C90160EA70E078
S11310D00E94C31C892B09F44AC01B868B8584306B
S11310E008F097C0FE01E80FF11DE80FF11D038021
S11310F0F481E02D0190F081E02D8680978027E037
S113110030E040E050E060E070E0CB010E94951CCC
S1131110A62E20E230E040E050E060E070E0CB0139
S11311200E94951C062F20E230E040E050E060E091
S113113070E0CB010E94951C462F9B859370DE01C5
S1131140A90FB11DA90FB11D9BE4C92ED12CEE240A
S1131150E39420E260E013968D919C911497F4013E
S11311600995811156C08B858F5F8B87B7CFC901D5
S113117060EA70E00E94C31C892B09F04AC01B86F8
S11311808B85843008F045C0FE01E80FF11DE80F9F
S1131190F11D0380F481E02D0190F081E02D868023
S11311A0978027E030E040E050E060E070E0CB0161
S11311B00E94951CA62E20E230E040E050E060E062
S11311C070E0CB010E94951C762E20E230E040E0D6
S11311D050E060E070E0CB010E94951C9B85937009
S11311E0DE01A90FB11DA90FB11D8BE4C82ED12CAE
S11311F0EE24E39400E2272D40E013968D919C9118
S11312001497F4010995811104C08B858F5F8B8736
S1131210B7CFDF91CF911F910F91EF90DF90CF90D7
S1131220AF909F908F907F906F905F904F900895B4
S11312300F931F93CF93DF93EC018C01085F1F4F33
S11312408B819C810E94610B813021F08B819C8178
S11312500E94A90B2296C017D10791F7DF91CF9175
S11312601F910F9108956F927F929F92AF92BF92B8
S1131270CF92DF92EF92FF920F931F93CF93DF935E
S1131280EC01912C84E0E82EF12C93E0C92ED12CB2
S1131290092D10E08AE591E00E941712801791074A
S11312A00CF4C8C020E040E061E08AE591E00E94CF
S11312B0E91568817981600F711F9C0140E050E05D
S11312C08AE591E00E94F21220E041E060E08AE5C4
S11312D091E00E94E9156881798164507109600F79
S11312E0711F9C0141E050E08AE591E00E94F212F6
S11312F020E040E061E08AE591E00E94E9155C01AC
S11313008AE591E00E941B12AC0141505109888189
S11313109981B801681B790B95018AE591E00E94D7
S1131320F21220E041E060E08AE591E00E94E915D4
S11313305C018AE591E00E941B12AC014250510904
S113134088819981B701681B790B600F711F950122
S11313508AE591E00E94F21220E040E061E08AE533
S113136091E00E94E9155C018AE591E00E941B125C
S11313704881598140955095801B910B480F591F06
S1131380950160E070E08AE591E00E94F21220E0AD
S113139041E060E08AE591E00E94E9155C018AE59C
S11313A091E00E941B1228813981A601421B530B34
S11313B0801B910B480F591F950161E070E08AE58D
S11313C091E00E94F21220E040E061E08AE591E0C1
S11313D00E94E9153C01A880B980A00EB11E8AE5DF
S11313E091E00E941712BC01615071099301A5019B
S11313F08AE591E00E94F21220E041E060E08AE593
S113140091E00E94E9155C014881598144505109D9
S1131410040F151F8AE591E00E941712BC01625067
S113142071099501A8018AE591E00E94F21288E011
S1131430980E2ECF8881998101969C0127703327BD
S1131440232B19F09983888302C019821882DF91B3
S1131450CF911F910F91FF90EF90DF90CF90BF90AD
S1131460AF909F907F906F900895CF93DF93EC019E
S11314708A81813031F018F08230E9F02FC081E0A8
S11314802CC060E089E991E00E94490D882331F184
S113149060E089E991E00E94530D85E00E94101CF0
S11314A0BC01990F880B990B0E94691C1982188240
S11314B01B8682E012C088819981883C994110F092
S11314C083E00BC088EA91E00E94E318811106C012
S11314D081E090E09983888384E08A838A818230E2
S11314E0B1F038F4813049F5CE01DF91CF910C94FD
S11314F033098330D9F0843001F563E089E991E060
S11315000E94530DCE01DF91CF910C941809CE01A6
S11315100E94EA04CE010E94DB04CE010E94180955
S11315208881998101969983888307C064E089E959
S113153091E0DF91CF910C94530DDF91CF910895F9
S11315400895AF92CF92DF92EF920F93FC018681C0
S1131550813071F46283438324830583A486D08617
S1131560C78213861286E18684E0868381E001C007
S113157080E00F91EF90DF90CF90AF9008954F925D
S11315805F926F927F928F929F92AF92BF92CF920F
S1131590DF92EF92FF920F931F93CF93DF93FC019F
S11315A0462EC2810C2E000CDD0B0381002E000C94
S11315B0110BE4800E2C000CFF088581082E000C12
S11315C0990BAC01401B510B57FF03C0519541953A
S11315D0510997012C1B3D0B37FF03C03195219511
S11315E03109552453942417350714F0512C0AC09B
S11315F03E2D2F2D7C01832F922F3C2F2D2FE80180
S1131600032F122FEC16FD0654F4302F212F8C01DA
S1131610832F922F3C2F2D2FE701E32EF22E57011B
S1131620AC1ABD0A3C01601A710A77FE03C07194BA
S1131630619471086501B7FE03C02FEFC21AD20A84
S1131640D594C7940817190724F088248A94982CF1
S113165012C088248394912C0EC05520D1F081E0CF
S1131660481669F0C618D708D7FE04C0080D191D1E
S1131670CA0CDB1C2196EC16FD067CF710C04C2F1F
S1131680602F88EA91E00E94E618882359F381E0EC
S113169007C021E04212E6CF402F6C2FF2CF80E04A
S11316A0DF91CF911F910F91FF90EF90DF90CF903A
S11316B0BF90AF909F908F907F906F905F904F906E
S11316C00895FC01868108952FE031E0FC01318307
S11316D020831682089525E0FC0126830895FC01E9
S11316E02281620F62830895FC012481620F648366
S11316F00895EF92FF920F931F93CF93DF93EC0122
S11317008C850E94A8030D81002E000C110B2C81E6
S1131710022E000C330B4B81042E000C550B6A81F6
S1131720062E000C770B7C018AE591E00E94FA0DED
S11317308F81988504962A853B858217930710F03C
S113174081E08E83DF91CF911F910F91FF90EF90F5
S11317500895CF93DF93EC018E81833031F128F427
S1131760882341F08230C9F02AC0843029F08530C2
S1131770E1F025C081E00FC08A859B859C01237020
S11317803327232B41F522E02E838C349105A4F1D9
S11317901B861A8683E08E8312C08A859B8583709C
S11317A09927892B61F484E0F6CF2A853B858F81C4
S11317B098852817390718F0CE010E94790B8E817D
S11317C0833001F118F48230B9F092C0843031F0E2
S11317D08530E1F18DC08C349105D4F68A859B85E2
S11317E001969B878A87E881F9810480F581E02D41
S11317F0CE01DF91CF9109948A859B8501969B87C1
S11318008A8776C08A859B8501969B878A87E8812B
S1131810F9810480F581E02DCE01099588EA91E0F3
S11318200E94E018813009F063C0E881F9810190D9
S1131830F081E02D61E0CE010995882309F458C0B8
S113184088EA91E0DF91CF910C94EF188A859B850B
S113185001969B878A87E881F9810480F581E02DD0
S1131860CE01099588EA91E00E94E018813071F474
S1131870E881F9810190F081E02D61E0CE010995C4
S1131880882321F088EA91E00E94EF188A859B85DD
S113189065E070E00E94D71C892B51F59A818B81F9
S11318A0903224F4181634F09F5F09C0803224F477
S11318B08F5F08C019162CF480322CF091509A8353
S11318C002C081508B839C818D81903224F4181640
S11318D034F09F5F09C0803224F48F5F08C019166A
S11318E02CF480322CF091509C8302C081508D8363
S11318F0DF91CF9108957F928F929F92AF92BF9282
S1131900CF92DF92EF92FF920F931F93CF93DF93C7
S1131910EC018E81843031F58A859B85883491056C
S113192044F421E041E061E08AE591E00E94E91598
S113193003C08C850E94A8030D81002E000C110B9E
S11319402C81022E000C330B4B81042E000C550B02
S11319506A81062E000C770B7C018AE591E00E94D7
S1131960FA0D76C0833019F0853009F071C0CD804E
S11319700C2C000CDD088B81C81AD10887FDD39488
S1131980D7FE03C0D194C194D108AC800A2C000CBA
S1131990BB088A81A81AB10887FDB394B7FE03C0B7
S11319A0B194A194B10879847194898587150CF454
S11319B03FC0872C072C000C99088C85AC14BD04FF
S11319C0C4F00E94A8032D818401020F111D27FD7C
S11319D01A952C81022E000C330B4B81B401640F39
S11319E0711D47FD7A95AB016A81062E000C770BB9
S11319F018C00E94A8030D81002E000C110B2C812D
S1131A00F401E20FF11D27FDFA959F014B81042E8D
S1131A10000C550B6A81F401E60FF11D67FDFA9580
S1131A20BF017C018AE591E00E94FA0D7394BDCF59
S1131A304A855B859A012370332740FD05C0211533
S1131A40310511F08F5F03C0232B11F48150898776
S1131A50DF91CF911F910F91FF90EF90DF90CF9086
S1131A60BF90AF909F908F907F900895FC0110825B
S1131A70118212820895FC01108211820895FC01E2
S1131A80818190E002C0959587956A95E2F781700F
S1131A900895FC01808190E002C0959587956A9530
S1131AA0E2F781700895262F41E050E060E070E095
S1131AB004C0440F551F661F771F2A95D2F7FC01F7
S1131AC02181422B41830895CF93DF93EC018EEB68
S1131AD091E00E94B01A892B39F069818EEB91E074
S1131AE0DF91CF910C94041ADF91CF910895CF9395
S1131AF0DF93EC018EEB91E00E948519181619060C
S1131B002CF48EEB91E00E949F198883DF91CF9192
S1131B100895809159018F5F8093590181E08093EA
S1131B205801089526E040E855E260E070E08EEB4D
S1131B3091E00E944B1A61E08DE00E942D1C49E85F
S1131B405DE069E170E080E090E00E941F120E9475
S1131B5067128AE591E00C946E158F92AF92CF9242
S1131B60EF920F9320E14EE061E088EA91E00E9459
S1131B7099188CE991E00E94B30489E991E00E94EC
S1131B80360D80E28F93812C89E0A82E9AE0C92E2D
S1131B9028E0E22E01E120E14FE06EE08AE591E0E9
S1131BA00E941A150F900F91EF90CF90AF908F90E5
S1131BB00895809158018823E1F060E070E08AE59F
S1131BC091E00E94731889E991E00E943B0D89E934
S1131BD091E00E94770D8CE991E00E94350A88EA31
S1131BE091E00E944E1989E991E00E94640D1092DF
S1131BF0580108952F923F924F925F926F927F9275
S1131C008F929F92AF92BF92CF92DF92EF92FF9208
S1131C100F931F93CF93DF9300D01F92CDB7DEB7FE
S1131C204C017B836A836A01590117019801241BC3
S1131C30350B37FF03C0319521953109C5014A8120
S1131C405B81841B950B97FF03C091958195910946
S1131C5051E059838217930714F019820BC09A2D0F
S1131C608B2D5801092F182F9A818B81DB82CA8210
S1131C70C92ED82E8A819B81A816B9065CF49C2DA6
S1131C808D2D6801092F182F9A818B81BB82AA821E
S1131C90A92EB82E2501AA81BB814A1A5B0A3801F4
S1131CA06C187D0877FE03C0719461947108720109
S1131CB057FE03C0BFEFEB1AFB0AF594E794C01676
S1131CC0D1061CF00FEF1FEF1FC001E010E01CC095
S1131CD0D401ED91FC91B9810480F581E02D91014D
S1131CE0BB23C1F04A815B81B601C4010995E618A2
S1131CF0F708F7FE04C0C00ED11EE40CF51CEA81FF
S1131D00FB813196FB83EA834A815B81A416B50685
S1131D10FCF604C0A6016A817B81E7CF0F900F9087
S1131D200F90DF91CF911F910F91FF90EF90DF9073
S1131D30CF90BF90AF909F908F907F906F905F9067
S1131D404F903F902F9008956F927F928F929F9221
S1131D50AF92BF92CF92DF92EF92FF920F931F93B5
S1131D60CF93DF93EC014B015A0169013801E881FB
S1131D70F9810284F385E02D87010995E881F981D1
S1131D80A501460D571D415051090284F385E02DEC
S1131D909601B401CE010995E881F9810084F185A9
S1131DA0E02D9301A501B401CE010995E881F981E3
S1131DB0C80CD91CB601615071090084F185E02D6D
S1131DC09301A501CE010995DF91CF911F910F9148
S1131DD0FF90EF90DF90CF90BF90AF909F908F9047
S1131DE07F906F900895EF92FF920F931F93780165
S1131DF0DC01ED91FC91240F351F8901015011097B
S1131E000680F781E02D9B0109951F910F91FF90AA
S1131E10EF900895EF92FF920F931F93DC01ED91E1
S1131E20FC91260F371F215031090680F781E02DE0
S1131E3078018A0109951F910F91FF90EF90089501
S1131E406F927F928F929F92AF92BF92CF92DF92C6
S1131E50EF92FF920F931F93CF93DF936C015A017C
S1131E604801EB013B01620E731EC615D70574F4DD
S1131E70D601ED91FC910084F185E02D8701940158
S1131E80A501BE01C60109952196EFCFDF91CF913F
S1131E901F910F91FF90EF90DF90CF90BF90AF9084
S1131EA09F908F907F906F900895EF92FF920F9381
S1131EB01F93DC01ED91FC9111971A960D911C91E1
S1131EC01B9718962D913C9119970684F785E02D60
S1131ED07B0140E050E060E070E009951F910F91B4
S1131EE0FF90EF9008950895FC01138212828BE114
S1131EF091E09183808375836483578346837187DC
S1131F00608753874287158A158614861786168636
S1131F1081E0848B2FEF3FEF338B228B318B208B2F
S1131F20868B178A118E108E08952F923F924F92AE
S1131F305F926F927F928F929F92AF92BF92CF9255
S1131F40DF92EF92FF920F931F93CF93DF93CDB75E
S1131F50DEB769970FB6F894DEBF0FBECDBF3C0164
S1131F604A011F830E83FD82EC82CA82DC015896EB
S1131F704D915C9159974115510509F0A8C01896E7
S1131F808D919C911997681779070CF060C11A9686
S1131F908D919C911B97881699060CF058C1D12CF1
S1131FA0CB01EA81B6E0EB9F800D911D1124181638
S1131FB019060CF04CC1C60133E0880F991F3A95FD
S1131FC0E1F7880D991D181619060CF040C1D301CC
S1131FD057968C91811103C0203B08F02F5FB5E028
S1131FE02B9F900111247E876D872B011B82F901A1
S1131FF0E61BF70BF987E8879401285F3F4F3B877F
S11320002A873B81353059F0E885F9854D855E8511
S1132010E40FF51FE554FE4F5491598301C0198212
S113202014015401898180FF12C0D301ED91FC9108
S1132030BA81B13031F40480F581E02D2E813F81E5
S113204018C00684F785E02DEE80FF801DC0EC816A
S1132050FD812E813F81E217F307E1F0D301ED9179
S1132060FC91BA81B13059F40480F581E02D2C81C2
S11320703D81A5016D857E85C30109950BC006844C
S1132080F785E02DEC80FD8086019601A101B20167
S1132090C3010995E981E695E9832C0C3D1CFFEF0A
S11320A0AF1ABF0A2A853B85A216B30609F0BACF38
S11320B03B813F5F3B834C0C5D1C4D855E854F5FD0
S11320C05F4F5E874D87363009F09BCFC0C0FA0161
S11320D034963491329785919491231BA7E02A9FDB
S11320E0800D911D1124FA0125913491388B2F878D
S11320F0FC0125903490FC01329634913B83319657
S113210044914C873196E491FC013596A491319623
S113211084915A81523050F04A2E0A2E000C5508F0
S1132120E82F082E000CFF0BF987E887FA81CF2EE1
S1132130D12C4C9C90014D9C300D5C9C300D112495
S1132140A901460F571F5B874A871982A12CEA2FE2
S1132150AA0FFF0BDB01AE0FBF1FBD83AC83BB8196
S11321606B0F711D9B012E0F3F1F3D8B2C8BA40108
S1132170480F511D87FD5A955F8B4E8B9C85A91680
S113218008F065C08A2D90E048855985480F591F8D
S11321904C9D90014D9D300D5C9D300D1124D90155
S11321A0A80DB91DBE87AD87EC81FD81F98FE88F3D
S11321B04A845B84F9812C81F21BF98B4E895F89F7
S11321C0480F591F5B8B4A8B8989F88D8F0F288D97
S11321D0398D4C895D892417350799F1877041F44D
S11321E0C1010196EF85F889E20DF31DB4901C013D
S11321F0B7FE1EC0D301ED91FC91BA81B13061F4F8
S11322000480F581E02D2E813F814A895B89688DA8
S1132210798DC30109950CC00684F785E02DEE8005
S1132220FF80860196014D855E85B201C301099543
S1132230BB0C4C0C5D1CE88DF98D3196F98FE88F41
S1132240C3CF59818B81580F5983A39497CF699633
S11322500FB6F894DEBF0FBECDBFDF91CF911F91B3
S11322600F91FF90EF90DF90CF90BF90AF909F9031
S11322708F907F906F905F904F903F902F90089534
S1132280AF92BF92CF92EF92FF920F931F93CF938F
S1132290DF93EC01262F888D998D009709F042C0B9
S11322A06A3069F42C898E859F8538E0239F800DE0
S11322B0911D11249F878E871D861C86ACC06D30AE
S11322C009F4A9C08E898823C1F03C898C859D8539
S11322D046E0349F800D911D11244885598584174B
S11322E095075CF01D861C868E859F85E8E03E9FE1
S11322F0800D911D11249F878E87EA88FB880889A9
S113230019894E855F856C857D85CC88CE010E94B8
S1132310950F2C898C859D85F6E02F9F800D911D4E
S1132320112441C06A3079F41D861C862C89FC0175
S11323303696E4918E859F852E9F800D911D1124E4
S11323409F878E8768C06D3009F465C0AC014C5F0F
S11323505F4FFA013491631708F45DC03196E4913C
S1132360E61708F458C0FA014491362F341BFC01D7
S11323703296A590B490F7E03F9FA00CB11C1124B5
S1132380F501329634913196E491332311F0E11141
S11323900DC0F5013496E4912C898C859D85E29FCE
S11323A0800D911D11249D878C8735C0F5013596CC
S11323B044915E89552311F16C89E32FF0E0E40F19
S11323C0F11D47FDFA956E9FD0016F9FB00D11244A
S11323D04C855D854A0F5B1FE885F9854E175F07BD
S11323E06CF01D861C86FC013696E4918E859F85D3
S11323F06E9F800D911D11249F878E87EA88FB882C
S1132400088919894E855F856C857D85CC88CE01C8
S11324100E94950FBECF81E090E0DF91CF911F9194
S11324200F91FF90EF90CF90BF90AF900895FC0173
S1132430808591850895FC018285938508956115B1
S113244071058105910569F481E090E0A0E0B0E0B8
S11324508093B7019093B801A093B901B093BA01E6
S113246008C06093B7017093B8018093B901909349
S1132470BA015093B6014093B501809170008E7FEC
S1132480809370008091B0008C7F8093B000809125
S1132490B100877F8093B1008091B6008F7D8093D7
S11324A0B600809170008D7F809370008091B100A0
S11324B084608093B1008091B1008C7F8093B100DF
S11324C086E090E09093AF018093AE01089510925E
S11324D0B1011092B2011092B3011092B4011092A2
S11324E0B0018091AE019091AF018093B200E0E71A
S11324F0F0E080818160808308958091B1019091A2
S1132500B201A091B301B091B4010196A11DB11D16
S11325108093B1019093B201A093B301B093B4013D
S11325208091B1019091B201A091B301B091B40135
S11325304091B7015091B8016091B9017091BA010D
S113254084179507A607B70710F18091B001811190
S11325501EC081E08093B0018091B1019091B201DD
S1132560A091B301B091B401841B950BA60BB70BDA
S11325708093B1019093B201A093B301B093B401DD
S1132580E091B501F091B60109951092B00108955A
S11325901F920F920FB60F9211242F933F934F93D4
S11325A05F936F937F938F939F93AF93BF93EF93B7
S11325B0FF938091AE019091AF018093B2000E948D
S11325C07D12FF91EF91BF91AF919F918F917F9178
S11325D06F915F914F913F912F910F900FBE0F908C
S11325E01F901895CF92DF92EF92FF920F931F9353
S11325F0CF93DF93DC0177FD22C118968D919C91D6
S11326001997681779070CF01AC157FD18C11A9663
S11326108D919C911B97481759070CF010C1559642
S1132620EC91559714968D919C911597E23059F041
S1132630E330C9F0E13001F5FC013197E41BF50BFF
S1132640AB01BF0119C0FC013197EF01C61BD70BC9
S1132650BE011696ED91FC9117973197EF01C41BBB
S1132660D50BAE0109C01696ED91FC9117973197E1
S1132670E61BF70BBA01AF018901012F112702955F
S11326800F70F02EE901CC0FCD2FCC1FDD0BD195AF
S1132690EC2FEF70EE2E36952795E22FEF70DE2E9D
S11326A05E96EC915E97F0E0017011273C2F31703B
S11326B021704E175F070CF06CC05F96EC915F972A
S11326C0ED01CE0FD11DCE0FD11D489FF001499FC2
S11326D0F00D589FF00D1124AF01440F551FE40F66
S11326E0F51F6E0F7F1FEA8DFB8DE60FF71F880F16
S11326F0991FEF01C80FD91F88818C7F8883012B14
S113270059F01496CD91DC911597CC0FDD1FCE0FA7
S1132710DF1F888181608883332359F01496CD911B
S1132720DC911597CC0FDD1FCE0FDF1F88818260EF
S113273088831496CD91DC911597CE0FDF1F888185
S1132740222331F08160888323E030E092E01AC0D4
S11327508E7FF9CF8083892F8E2119F08081886044
S11327608083892F8D2119F0808180618083149664
S11327704D915C911597E40FF51F990F2150310984
S113278009F45DC08081837E492F4F2119F3846051
S1132790E1CF5F96CC905F97ED01CC0DD11DCC0DB0
S11327A0D11D4E1B5F0B489FF001499FF00D589FB0
S11327B0F00D1124CF01880F991FE80FF91F6E0F38
S11327C07F1FEA8DFB8DE60FF71F80818C7F80834E
S11327D01496CD91DC911597CE0FDF1F8881012BC4
S11327E011F0826001C08D7F8883332319F08081CA
S11327F081608083222319F080818260808323E0BA
S113280030E092E080818F71492F4F2109F080627E
S11328108083892F8E2119F0808180648083892FA1
S11328208D2119F080818068808314964D915C918C
S11328301597E40FF51F990F2150310919F7DF910E
S1132840CF911F910F91FF90EF90DF90CF9008955B
S11328502F923F924F925F926F927F928F92AF929C
S1132860CF92DF92EF92FF920F931F93CF93DF9358
S113287000D0CDB7DEB73C01162FD42EF22EDC01EA
S11328805E966C934D88469EC00111242C01440C25
S1132890551C480E591EA201882011F0440F551FE3
S11328A0CA0149835A830E944C1D1C01F301938F72
S11328B0828F49815A81009709F4A9C060E070E0D1
S11328C00E94DA1E882019F0420C531C01C0210119
S11328D0D3015D965C924E925C97D796DC92D79723
S11328E0D896FC92D897D9960C93D997D496EC9213
S11328F0D497D596CC92D597D696AC92D697EE2D02
S1132900F0E0E554F94FE4919D96EC939D972C2DBE
S113291030E0F901E153F94FE491F0E0EE0FFF1FCD
S1132920ED51F94F85919491F30192A381A3F9019B
S1132930E554F94F24919E962C939E978A2D90E00E
S1132940FC01E153F94FE491F0E0EE0FFF1FED516C
S1132950F94F25913491F30134A323A3FC01E554E9
S1132960F94F84919F968C939F974D2D50E0FA01D7
S1132970E153F94FE491F0E0EE0FFF1FED51F94FF1
S113298085919491F30196A385A3FA01E554F94F37
S1132990E491D096EC93D0972F2D30E0F901E153D8
S11329A0F94FE491F0E0EE0FFF1FED51F94F8591DF
S11329B09491F30190A787A3F901E554F94F249169
S11329C0D1962C93D197802F90E0FC01E153F94FDD
S11329D0E491F0E0EE0FFF1FED51F94F2591349192
S11329E0F30132A721A7FC01E554F94F8491D29653
S11329F08C93D29783E0DC968C93DC971150DB9612
S1132A001C93DB9790961C9290975F961C920F9064
S1132A100F90DF91CF911F910F91FF90EF90DF9076
S1132A20CF90AF908F907F906F905F904F903F903A
S1132A302F9008956F927F928F92AF92BF92CF9210
S1132A40DF92EF92FF920F931F93CF93DF931F9226
S1132A50CDB7DEB73C01D62EB42E102FF9886F2DDA
S1132A6070E040E250E029830E94740F83E391E018
S1132A70D3018D939C93FF922981022F2B2D4D2DF1
S1132A8060E1C3010E942814F30112AF012F10E08A
S1132A90F801E153F94FE491F0E0EE0FFF1FED511F
S1132AA0F94F85919491D3019C969C938E939B9717
S1132AB0F801E554F94FE491D396EC930F900F90FD
S1132AC0DF91CF911F910F91FF90EF90DF90CF9006
S1132AD0BF90AF908F907F906F900895CF93DF93C6
S1132AE0EC011F8E8F8DE1E0F0E0E81BF1093D96CB
S1132AF0EE0FFF1FEC0FFD1F808191819EAF8DAF04
S1132B00D093BC01C093BB0161E08CA90E942D1C31
S1132B1095B18DA58095892385B961E08DA90E9421
S1132B202D1CE9A1FAA190818EA58095892380832B
S1132B3061E08EA90E942D1CEBA1FCA190818FA5C0
S1132B40892B808361E08FA90E942D1CEDA1FEA139
S1132B50908188A980958923808361E088AD0E9453
S1132B602D1CEFA1F8A5908189A9809589238083E4
S1132B7061E089AD0E942D1CE9A5FAA590818AA97E
S1132B808095892380838E8D893058F061E08AADE9
S1132B900E942D1CEBA5FCA590818BA9809589230F
S1132BA080838CEF8AB91BB882E08093800089E12E
S1132BB08093810084E690E0909387008093860060
S1132BC080916F00816080936F007894DF91CF9142
S1132BD00895822F867090E095958795277054E02C
S1132BE0259F90011124282B392B862F90E0982FB4
S1132BF088279295990F907E822B932B242F2770F0
S1132C00922B20E2429FA00111245527842B952B5F
S1132C10667070E0762F6627770F770F862B972BD9
S1132C200895CF92DF92FF920F931F93CF93DF9378
S1132C30DC019396ED91FC91949790819F968C91F1
S1132C409F97892B80839196ED91FC919297908127
S1132C509E968C919E97892B80835E963C915E977D
S1132C60393018F480E991E002C088EC90E0DC96F9
S1132C702C91DC9788589F4F02C0880F991F2A9582
S1132C80E2F7CC97DC962C91DC972F5FDC962C93A3
S1132C90DC97243098F1DC961C92DC97DB962C911F
S1132CA0DB972F5FDB962C93DB97231708F47DC00B
S1132CB0DB961C92DB9790962C919097222359F0E7
S1132CC05F963C915F9721E0231B5F962C935F975F
S1132CD090961C9290975F962C915F97E1E0F0E0BC
S1132CE0E21BF1093D96EE0FFF1FEA0FFB1F208147
S1132CF03181DE963C932E93DD9757C0DC962C9160
S1132D00DC97213009F051C0DB963C91DB97959616
S1132D10ED91FC919697D0962C91D09730FF03C0FB
S1132D203081232B03C03081209523232083DB961D
S1132D303C91DB979796ED91FC919897D1962C91C5
S1132D40D19731FF03C03081232B03C030812095FC
S1132D5023232083DB963C91DB979996ED91FC919C
S1132D609A97D2962C91D29732FF03C03081232BAD
S1132D7003C030812095232320835E962C915E9797
S1132D80293098F0DB963C91DB979B96ED91FC9172
S1132D909C97D3962C91D39733FF03C03081232B78
S1132DA003C03081209523232083DD96ED91FC918F
S1132DB0DE9790938700809386001092850010928E
S1132DC084009396CD91DC91949798819F968C91F1
S1132DD09F978095892388839196CD91DC919297D2
S1132DE098819E968C919E9780958923888325B19E
S1132DF09D969C919D97922BDC968C91DC978823D1
S1132E0009F40DC101900BB895B925B901900BB81F
S1132E1095B925B901900BB895B925B901900BB8AE
S1132E2095B925B901900BB895B925B901900BB89E
S1132E3095B925B901900BB895B925B901900BB88E
S1132E4095B925B901900BB895B925B901900BB87E
S1132E5095B925B901900BB895B925B901900BB86E
S1132E6095B925B901900BB895B925B901900BB85E
S1132E7095B925B901900BB895B925B901900BB84E
S1132E8095B925B901900BB895B925B901900BB83E
S1132E9095B925B901900BB895B925B901900BB82E
S1132EA095B925B901900BB895B925B901900BB81E
S1132EB095B925B901900BB895B925B901900BB80E
S1132EC095B925B901900BB895B925B901900BB8FE
S1132ED095B925B901900BB895B925B901900BB8EE
S1132EE095B925B901900BB895B925B901900BB8DE
S1132EF095B925B901900BB895B925B901900BB8CE
S1132F0095B925B914964D915C91159740345105A6
S1132F1009F080C001900BB895B925B901900BB8A0
S1132F2095B925B901900BB895B925B901900BB89D
S1132F3095B925B901900BB895B925B901900BB88D
S1132F4095B925B901900BB895B925B901900BB87D
S1132F5095B925B901900BB895B925B901900BB86D
S1132F6095B925B901900BB895B925B901900BB85D
S1132F7095B925B901900BB895B925B901900BB84D
S1132F8095B925B901900BB895B925B901900BB83D
S1132F9095B925B901900BB895B925B901900BB82D
S1132FA095B925B901900BB895B925B901900BB81D
S1132FB095B925B901900BB895B925B901900BB80D
S1132FC095B925B901900BB895B925B901900BB8FD
S1132FD095B925B901900BB895B925B901900BB8ED
S1132FE095B925B901900BB895B925B901900BB8DD
S1132FF095B925B901900BB895B925B901900BB8CD
S113300095B925B901900BB895B925B901900BB8BC
S113301095B925B9DE96FC93EE93DD9732C0F12C79
S1133020CF2CD12C14966D917C911597C616D7068A
S113303044F58601060F171FAF01400F511FEA0127
S11330404881D0E14D9FA0011124342F30736E0FBD
S11330507F1F600F711FEB018881D4E08D9FA00159
S113306011244C70432BE601CE0FDF1F688180E4EE
S1133070689FB0011124462B4BB995B925B9F39437
S1133080CFCFDF91CF911F910F91FF90DF90CF9021
S113309008951F920F920FB60F9211242F933F930E
S11330A04F935F936F937F938F939F93AF93BF934C
S11330B0EF93FF938091BB019091BC010E94111684
S11330C086B386BBFF91EF91BF91AF919F918F9192
S11330D07F916F915F914F913F912F910F900FBE10
S11330E00F901F9018959B01215031092E3F3F4F9F
S11330F0F0F0DC015F962C915F975E963C915E97B1
S11331001496ED91FC9115973E9FA0013F9F500DA1
S11331101124FA01EE0FFF1F4E0F5F1FFC01E20F97
S1133120F11DE20FF11D828D938D0C94DA1E0C9427
S1133130550FFC0140832183613011F083E001C00D
S113314085E0848313828AE082830895CF93DF939A
S1133150EC0162E089E991E00E94490D882319F0AD
S11331608981811121C065E089E991E00E94490DBE
S1133170882319F089818F31D0F064E089E991E0E6
S11331800E94490D882319F08881811113C061E0E0
S113319089E991E00E94490D882379F088818F3173
S11331A060F48F5F888309C081508983DCCF8F5F8F
S11331B08983E3CF81508883EACFDF91CF9108954B
S11331C0FC0185810895FC0182810895FC018081C0
S11331D0861303C081E09181941380E00895CF9316
S11331E0DF93FC012581213089F4EC018281815037
S11331F0828361E089E991E00E94530D8A811B82F8
S1133200882311F083E001C082E08D83DF91CF91A8
S113321008950F931F93CF93DF93EC018D81823038
S113322059F1833051F08130A1F5AE014D5F5F4F0C
S1133230BE016F5F7F4F23E00CC08B8164E10E946D
S1133240B71C9A3030F5BE016F5F7F4F23E04DEB22
S113325051E0CE010E94CB038C810E94A8034981D6
S113326050E0688170E09C018AE591E0DF91CF91A4
S11332701F910F910C94F2128E010C5F1F4FAE013F
S11332804D5F5F4FBE016F5F7F4F23E0CE010E9411
S11332903F04DF91CF911F910F910895CF93DF9356
S11332A0EC018D81882319F0833049F010C060E06F
S11332B089E991E00E943F0D882349F006C09B8173
S11332C021E0290F2B839C3308F081E08D838D81CD
S11332D0823061F0833011F0813091F4CE010E948C
S11332E0A618CE01DF91CF910C940919CE010E944A
S11332F0091963E089E991E0DF91CF910C94530DB2
S1133300DF91CF9108950E94D51EFC01918D228DED
S1133310892F90E0805C9F4F821B91098F739927BE
S11333200895FC01918D828D981731F0828DE80FFC
S1133330F11D858D90E008958FEF9FEF0895FC01B6
S1133340918D828D981761F0828DDF01A80FB11DD8
S11333505D968C91928D9F5F9F73928F90E00895FC
S11333608FEF9FEF089587E19BE1892B49F080E07F
S113337090E0892B29F00E94171B81110C94000006
S11333800895FC01848DDF01A80FB11DA35ABF4F1E
S11333902C91848D90E001968F739927848FA68950
S11333A0B7892C93A089B1898C9180648C93938D77
S11333B0848D981306C00288F389E02D80818F7D67
S11333C080830895CF93DF93EC01888D8823C9F01F
S11333D0EA89FB89808185FD05C0A889B9898C911A
S11333E086FD0FC00FB607FCF5CF808185FFF2CFB5
S11333F0A889B9898C9185FFEDCFCE010E94C119AE
S1133400E7CFDF91CF910895EF92FF920F931F932F
S1133410CF93DF93EC0181E0888F9B8D8C8D981383
S113342005C0E889F989808185FD24C0F62E0B8DBD
S113343010E00F5F1F4F0F731127E02E8C8DE812E1
S11334400CC00FB607FCFACFE889F989808185FFA3
S1133450F5CFCE010E94C119F1CF8B8DFE01E80F8B
S1133460F11DE35AFF4FF0820B8FEA89FB898081BB
S1133470806207C0EE89FF896083E889F9898081C9
S11334808064808381E090E0DF91CF911F910F9160
S1133490FF90EF900895CF92DF92EF92FF921F93E7
S11334A0CF93DF93EC016A017B01122FE889F9893C
S11334B082E080834115514E61057105B1F060E0F1
S11334C079E08DE390E0A70196010E94EB1CDA01FC
S11334D0C9010197A109B109B695A7959795879553
S11334E0AC01411580E15807A8F0E889F9891082F8
S11334F060E874E88EE190E0A70196010E94EB1C5D
S1133500BA01A9014150510961097109769567957C
S113351057954795EC85FD855083EE85FF8540835F
S1133520188EEC89FD891083EA89FB89808180618A
S11335308083EA89FB89808188608083EA89FB89AA
S1133540808180688083EA89FB8980818F7D808384
S1133550DF91CF911F91FF90EF90DF90CF9008956E
S1133560FC01538D448D252F30E0842F90E0821B85
S1133570930B541710F0CF960895019708951F9256
S11335800F920FB60F9211242F938F939F93EF9363
S1133590FF93E091CE01F091CF018081E091D401BD
S11335A0F091D50182FD12C090818091D7018F5F87
S11335B08F732091D801821751F0E091D701F0E088
S11335C0E254FE4F958F8093D70101C08081FF9113
S11335D0EF919F918F912F910F900FBE0F901F909D
S11335E018951F920F920FB60F9211242F933F93A9
S11335F04F935F936F937F938F939F93AF93BF93F7
S1133600EF93FF938EEB91E00E94C119FF91EF912C
S1133610BF91AF919F918F917F916F915F914F91E6
S11336203F912F910F900FBE0F901F9018958EEB26
S113363091E00E94851921E0892B09F420E0822F72
S11336400895EEEBF1E01382128288EE93E0A0E09D
S1133650B0E084839583A683B7838BE491E0918360
S1133660808385EC90E09587848784EC90E097874D
S1133670868780EC90E0918B808B81EC90E0938B3B
S1133680828B82EC90E0958B848B86EC90E0978B18
S1133690868B118E128E138E148E089508950E94B7
S11336A0D51B0E944E1B0E94920DC3EBD9E10E94D0
S11336B0D90D2097E1F30E94B319F9CF0C944C1D56
S11336C0CF92DF92EF92FF920F931F93CF93DF93EA
S11336D06C017A018B01C0E0D0E0CE15DF0589F0E2
S11336E0D8016D918D01D601ED91FC910190F0818D
S11336F0E02DC6010995892B11F47E0102C02196A3
S1133700ECCFC701DF91CF911F910F91FF90EF9004
S1133710DF90CF9008951F920F920FB60F9211244D
S11337202F933F938F939F93AF93BF9380915C02AA
S113373090915D02A0915E02B0915F0230915B02B4
S113374023E0230F2D3720F40196A11DB11D05C0E0
S113375026E8230F0296A11DB11D20935B028093DE
S11337605C0290935D02A0935E02B0935F0280912D
S1133770600290916102A0916202B091630201968D
S1133780A11DB11D8093600290936102A093620217
S1133790B0936302BF91AF919F918F913F912F910D
S11337A00F900FBE0F901F901895789484B5826087
S11337B084BD84B5816084BD85B5826085BD85B5D1
S11337C0816085BDEEE6F0E0808181608083E1E880
S11337D0F0E01082808182608083808181608083B8
S11337E0E0E8F0E0808181608083E1EBF0E08081BB
S11337F084608083E0EBF0E0808181608083EAE78D
S1133800F0E0808184608083808182608083808115
S1133810816080838081806880831092C1000895D4
S11338208E3008F08E50877020910A0190E4299F11
S113383090011124822B80937C0080917A00806413
S113384080937A0080917A0086FDFCCF8091780085
S11338502091790090E0922B0895CF93DF9390E02C
S1133860FC01E554F94F2491FC01E153F94F849193
S1133870882361F190E0880F991FFC01E351F94F0F
S1133880C591D491FC01ED51F94FA591B491611109
S113389009C09FB7F8948881209582238883EC918E
S11338A02E230BC0623061F49FB7F8943881822FC5
S11338B0809583238883EC912E2B2C939FBF06C085
S11338C08FB7F894E8812E2B28838FBFDF91CF9197
S11338D00895611571058105910511F00C94CC1EB4
S11338E00895CF93DF9300D000D0CDB7DEB7611534
S11338F071058105910579F09B01AC0169833A83D7
S11339004B835C830E94C71E29813A814B815C8171
S11339100E940D1D03C060E070E0CB010F900F907A
S11339200F900F90DF91CF910895CF92DF92EF9295
S1133930FF920F931F93621773078407950784F40C
S113394089019A016B017C01C901B8016C197D09D7
S11339508E099F090E94711C6C0D7D1D8E1D9F1D7B
S11339601F910F91FF90EF90DF90CF900895991BD6
S113397079E004C0991F961708F0961B881F7A9562
S1133980C9F780950895AA1BBB1B51E107C0AA1F64
S1133990BB1FA617B70710F0A61BB70B881F991FEC
S11339A05A95A9F780959095BC01CD01089597FB90
S11339B0072E16F4009407D077FD09D00E94C31C8B
S11339C007FC05D03EF4909581959F4F089570951E
S11339D061957F4F0895A1E21A2EAA1BBB1BFD011E
S11339E00DC0AA1FBB1FEE1FFF1FA217B307E407DA
S11339F0F50720F0A21BB30BE40BF50B661F771F32
S1133A00881F991F1A9469F7609570958095909511
S1133A109B01AC01BD01CF010895052E97FB1EF457
S1133A2000940E94241D57FD07D00E94EB1C07FC44
S1133A3003D04EF40C94241D509540953095219557
S1133A403F4F4F4F5F4F08959095809570956195C6
S1133A507F4F8F4F9F4F0895EE0FFF1F0590F491F6
S1133A60E02D09940E943D1DA59F900DB49F900DDB
S1133A70A49F800D911D11240895A29FB001B39FAE
S1133A80C001A39F700D811D1124911DB29F700D63
S1133A90811D1124911D0895CF93DF9382309105E8
S1133AA010F482E090E0E0916602F091670220E079
S1133AB030E0C0E0D0E0309711F1408151814817E7
S1133AC05907C0F04817590761F482819381209700
S1133AD019F09B838A832BC09093670280936602BC
S1133AE026C02115310519F04217530718F49A011D
S1133AF0BE01DF01EF010280F381E02DDCCF21154F
S1133B00310509F1281B390B2430310590F4129644
S1133B108D919C9113976115710521F0FB0193839D
S1133B20828304C09093670280936602FD013296FB
S1133B3044C0FD01E20FF31F819391932250310998
S1133B402D933C933AC02091640230916502232B5B
S1133B5041F42091020130910301309365022093D6
S1133B60640220910001309101012115310541F4D5
S1133B702DB73EB74091040150910501241B350B2C
S1133B80E0916402F0916502E217F307A0F42E1BA2
S1133B903F0B2817390778F0AC014E5F5F4F2417AD
S1133BA0350748F04E0F5F1F50936502409364023F
S1133BB08193919302C0E0E0F0E0CF01DF91CF91D7
S1133BC008950F931F93CF93DF93009709F48CC04C
S1133BD0FC013297138212820091660210916702EF
S1133BE00115110581F420813181820F931F2091E9
S1133BF06402309165022817390779F5F09365025C
S1133C00E093640271C0D80140E050E0AE17BF07F2
S1133C1050F412962D913C911397AD012115310565
S1133C2009F1D901F3CF9D01DA0133832283608145
S1133C307181860F971F8217930769F4EC0128811D
S1133C403981260F371F2E5F3F4F318320838A81AE
S1133C509B8193838283452B29F4F0936702E0933D
S1133C60660242C01396FC93EE931297ED014991BC
S1133C7059919E01240F351FE217F30771F48081D7
S1133C809181840F951F029611969C938E93828145
S1133C90938113969C938E931297E0E0F0E0D80101
S1133CA012968D919C911397009719F0F8018C014D
S1133CB0F6CF8D919C9198012E5F3F4F820F931FF9
S1133CC020916402309165022817390769F430970E
S1133CD029F4109267021092660202C013821282C3
S1133CE01093650200936402DF91CF911F910F91AD
S1133CF008958F929F92AF92BF92CF92DF92EF92EC
S1133D00FF92CF93DF93EC01688179818A819B8153
S1133D10611571058105910521F464E279ED8BE566
S1133D2097E02DE133EF41E050E00E940D1D490181
S1133D305A019B01AC01A7EAB1E40E94321D6B0158
S1133D407C01ACEEB4EFA50194010E94E41EDC01F9
S1133D50CB018C0D9D1DAE1DBF1DB7FF03C0019788
S1133D60A109B04888839983AA83BB83BC01CD0190
S1133D709F77DF91CF91FF90EF90DF90CF90BF902E
S1133D80AF909F908F9008950E94791E089586E0C9
S1133D9091E00E94791E08956093060170930701D3
S1133DA08093080190930901089581E090E0F894CC
S1133DB00C94E91EDC0101C06D9341505040E0F7C2
S1133DC00895B7FF0C94321D0E94321D821B930B81
S1093DD00895F894FFCFF2
S1133DD6000068022000010000000100000000BF8E
S1133DE60AA00A7B0CA10A000000004011601B8394
S1133DF619FA0DF30E0A0FA40E200F550F730F00B8
S1133E060000004011601BF212FA0DF30E0A0FA413
S1133E160E200F7318730F00000000041A601B8530
S10B3E26199F199119E219001A
S9030000FC
