S01800007363726F6C6C746578745F31367833322E7372656315
S11300000C94D8020C9400030C9400030C94000389
S11300100C9400030C9400030C9400030C94000350
S11300200C9400030C94C9090C9400030C94000371
S11300300C9400030C944A0F0C9400030C940003DA
S11300400C9491110C9400030C94C7100C94F910A7
S11300500C9400030C9400030C9400030C94000310
S11300600C9400030C9400038000020000100000B4
S113007000000000003E5B4F5B3E3E6B4F6B3E1C3E
S11300803E7C3E1C183C7E3C181C577D571C1C5E55
S11300907F5E1C00183C1800FFE7C3E7FF0018242C
S11300A01800FFE7DBE7FF30483A060E26297929D6
S11300B026407F050507407F05253F5A3CE73C5A0B
S11300C07F3E1C1C08081C1C3E7F14227F22145FE8
S11300D05F005F5F06097F017F006689956A606043
S11300E060606094A2FFA29408047E040810207E3D
S11300F0201008082A1C08081C2A08081E101010C2
S1130100100C1E0C1E0C30383E3830060E3E0E0607
S1130110000000000000005F00000007000700145A
S11301207F147F14242A7F2A122313086462364919
S11301305620500008070300001C22410000412201
S11301401C002A1C7F1C2A08083E08080080703006
S11301500008080808080000606000201008040275
S11301603E5149453E00427F40007249494946217B
S113017041494D331814127F1027454545393C4AEF
S11301804949314121110907364949493646494906
S1130190291E00001400000040340000000814224E
S11301A041141414141400412214080201590906BC
S11301B03E415D594E7C1211127C7F494949363EBD
S11301C0414141227F4141413E7F494949417F09A3
S11301D00909013E414151737F0808087F00417FAE
S11301E041002040413F017F081422417F404040AC
S11301F0407F021C027F7F0408107F3E4141413E44
S11302007F090909063E4151215E7F0919294626C5
S11302104949493203017F01033F4040403F1F20C9
S113022040201F3F4038403F6314081463030478A0
S113023004036159494D43007F41414102040810C0
S113024020004141417F04020102044040404040FB
S1130250000307080020545478407F284444383869
S113026044444428384444287F38545454180008DB
S11302707E090218A4A49C787F0804047800447DB5
S113028040002040403D007F1028440000417F4052
S1130290007C047804787C080404783844444438A6
S11302A0FC1824241818242418FC7C080404084886
S11302B05454542404043F44243C4040207C1C20D7
S11302C040201C3C4030403C44281028444C909032
S11302D0907C4464544C440008364100000077008C
S11302E000004136080002010204023C2623263C99
S11302F01EA1A161123A4040207A38545455592124
S1130300555579412254547842215554784020540B
S11303105579400C1E527212395555555939545459
S1130320545939555454580000457C410002457DC8
S1130330420001457C407D1211127DF0282528F0F1
S11303407C545545002054547C547C0A097F49321E
S1130350494949323A4444443A324A4848303A4195
S113036041217A3A42402078009DA0A07D3D42423E
S1130370423D3D4040403D3C24FF2424487E4943C7
S1130380662B2FFC2F2BFF0929F620C0887E09033A
S113039020545479410000447D413048484A323861
S11303A04040227A007A0A0A727D0D19317D26298D
S11303B0292F28262929292630484D402038080885
S11303C0080808080808382F10C8ACBA2F102834B9
S11303D0FA00007B000008142A142222142A1408AC
S11303E05500550055AA55AA55AAFF55FF55FF00BB
S11303F00000FF00101010FF00141414FF00101070
S1130400FF00FF1010F010F0141414FC001414F783
S113041000FF0000FF00FF1414F404FC1414171070
S11304201F10101F101F1414141F00101010F000C0
S11304300000001F101010101F10101010F01000FA
S11304400000FF101010101010101010FF1000000A
S113045000FF140000FF00FF00001F10170000FC45
S113046004F414141710171414F404F40000FF0017
S1130470F714141414141414F700F71414141714A0
S113048010101F101F141414F4141010F010F000A6
S1130490001F101F0000001F14000000FC140000C7
S11304A0F010F01010FF10FF141414FF14101010AB
S11304B01F00000000F010FFFFFFFFFFF0F0F0F05E
S11304C0F0FFFFFF0000000000FFFF0F0F0F0F0FF2
S11304D03844443844FC4A4A4A347E02020606023E
S11304E07E027E0263554941633844443C04407EA5
S11304F0201E2006027E020299A5E7A5991C2A491E
S11305002A1C4C7201724C304A4D4D3030487848A8
S113051030BC625A463D3E494949007E0101017E94
S11305202A2A2A2A2A44445F444440514A444040E7
S1130530444A51400000FF0103E080FF0000080826
S11305406B6B083612362436060F090F06000018A6
S1130550180000001010003040FF0101001F0101CD
S11305601E00191D1712003C3C3C3C00000000001A
S11305700102040810204080010204081020010236
S11305800408102004040404040404040202020203
S113059002020303030303030000000025002800F4
S11305A02B0000000000240027002A001A03291150
S11305B011241FBECFEFD8E0DEBFCDBF11E0A0E015
S11305C0B1E0EAE6F7E202C005900D92A435B10766
S11305D0D9F722E0A4E5B1E001C01D92AF34B2071F
S11305E0E1F712E0C8EDD2E004C02197FE010E94B9
S11305F07412C63DD107C9F70E9457110C94B31366
S11306000C94000026E040E855E260E070E085EAE2
S113061091E00E94621047E353E062E370E080E0FF
S113062090E00E9420090E94680987E591E00C94FB
S11306306F0C08958F92AF92CF92EF920F9380E256
S11306408F93812C89E0A82E9AE0C92E28E0E22E0F
S113065001E120E14FE06EE087E591E00E941B0C90
S11306600F900F91EF90CF90AF908F9008958F924D
S11306709F92AF92BF92CF92DF92EF92FF920F932D
S11306801F93CF93DF9360E070E087E591E00E94D1
S1130690740F88E6882E80E0982EC7E0D1E096E0BB
S11306A0E92E91E0F92E28E0A22E21E0B22E39E0C5
S11306B0C32E31E0D32EF401059114914881042E08
S11306C0000C550BF7016081062E000C770B22E01D
S11306D030E087E591E00E945E06F7019081F50124
S11306E08081890FF70180839881F6018081890FC9
S11306F08883F7011081112309F45AC087E591E03A
S11307000E941809212F110F330B0197281739075D
S113071009F44EC01881112309F44FC087E591E014
S11307200E941C09212F110F330B01972817390739
S113073009F443C0F2E08F0E911C249684E0E80E85
S1130740F11CE4E0AE0EB11CF4E0CF0ED11C81E04C
S1130750C331D80709F0AFCF21E041E061E087E57C
S113076091E00E94EA0C40911301042E000C550BF9
S113077060911201062E000C770B9C0187E591E035
S11307800E94F3098091550190915601019690932E
S1130790560180935501DF91CF911F910F91FF90E6
S11307A0EF90DF90CF90BF90AF909F908F9008957F
S11307B0F501808181958083ADCFF601808181959B
S11307C08083B8CF85EA91E00E949C0F892B31F099
S11307D085EA91E00E94B60F8093540108952F9208
S11307E03F924F925F926F927F928F929F92AF92BD
S11307F0BF92CF92DF92EF92FF920F931F93CF930A
S1130800DF9300D01F92CDB7DEB74C017B836A83A0
S11308106A01590117019801241B350B37FF03C0E6
S1130820319521953109C5014A815B81841B950B62
S113083097FF03C091958195910951E059838217DF
S1130840930714F019820BC09A2D8B2D5801092F90
S1130850182F9A818B81DB82CA82C92ED82E8A8175
S11308609B81A816B9065CF49C2D8D2D6801092F77
S1130870182F9A818B81BB82AA82A92EB82E2501BA
S1130880AA81BB814A1A5B0A38016C187D0877FE7D
S113089003C0719461947108720157FE03C0BFEFE5
S11308A0EB1AFB0AF594E794C016D1061CF00FEF7F
S11308B01FEF1FC001E010E01CC0D401ED91FC91BA
S11308C0B9810480F581E02D9101BB23C1F04A81F7
S11308D05B81B601C4010995E618F708F7FE04C068
S11308E0C00ED11EE40CF51CEA81FB813196FB831A
S11308F0EA834A815B81A416B506FCF604C0A6010E
S11309006A817B81E7CF0F900F900F90DF91CF9199
S11309101F910F91FF90EF90DF90CF90BF90AF9019
S11309209F908F907F906F905F904F903F902F900B
S113093008956F927F928F929F92AF92BF92CF92BF
S1130940DF92EF92FF920F931F93CF93DF93EC010B
S11309504B015A0169013801E881F9810284F38568
S1130960E02D87010995E881F981A501460D571D00
S1130970415051090284F385E02D9601B401CE0162
S11309800995E881F9810084F185E02D9301A501A1
S1130990B401CE010995E881F981C80CD91CB601CE
S11309A0615071090084F185E02D9301A501CE0108
S11309B00995DF91CF911F910F91FF90EF90DF90F8
S11309C0CF90BF90AF909F908F907F906F9008953D
S11309D0EF92FF920F931F937801DC01ED91FC914C
S11309E0240F351F8901015011090680F781E02D7C
S11309F09B0109951F910F91FF90EF900895EF923D
S1130A00FF920F931F93DC01ED91FC91260F371F8A
S1130A10215031090680F781E02D78018A0109957A
S1130A201F910F91FF90EF9008956F927F928F9294
S1130A309F92AF92BF92CF92DF92EF92FF920F9369
S1130A401F93CF93DF936C015A014801EB013B01E3
S1130A50620E731EC615D70574F4D601ED91FC9190
S1130A600084F185E02D87019401A501BE01C60132
S1130A7009952196EFCFDF91CF911F910F91FF90B0
S1130A80EF90DF90CF90BF90AF909F908F907F902A
S1130A906F900895EF92FF920F931F93DC01ED91F5
S1130AA0FC9111971A960D911C911B9718962D91F4
S1130AB03C9119970684F785E02D7B0140E050E0D6
S1130AC060E070E009951F910F91FF90EF900895F9
S1130AD00895FC011382128288E191E0918380835E
S1130AE075836483578346837187608753874287FE
S1130AF0158A158614861786168681E0848B2FEF57
S1130B003FEF338B228B318B208B868B178A118E90
S1130B10108E08952F923F924F925F926F927F9220
S1130B208F929F92AF92BF92CF92DF92EF92FF92F9
S1130B300F931F93CF93DF93CDB7DEB728970FB6EC
S1130B40F894DEBF0FBECDBF5C013B014A0138877C
S1130B502F83FC82EB8281E090E02C01421A530A3D
S1130B60C9019195819591099C01220F331F3A8304
S1130B702983170133E0230E311CEE24E394F12C76
S1130B80802F81708D8302700E83C7010197EF81DE
S1130B90F8858E179F070CF078C057FC0CC0AF8106
S1130BA0B8851197B887AF83E981FA813296FA83C1
S1130BB0E9834E0E5F1EC701880F991F0196480EE8
S1130BC0591EFD81FF2359F1D501ED91FC912F812F
S1130BD03885220F331F2F5F3F4F8B819C81280F55
S1130BE0391F0084F185E02D8601A401AF81B88509
S1130BF04A1B5B0BB701660D771DC5010995D5012D
S1130C00ED91FC910084F185E02D9101A4014E1930
S1130C105F096F817885660D771DC5010995BE81D1
S1130C20BB2361F1D501ED91FC912F813885220F11
S1130C30331F2F5F3F4F8B819C81280F391F008406
S1130C40F185E02D8601A401AF81B8854A1B5B0BB9
S1130C50B3016E197F09C5010995D501ED91FC9188
S1130C600084F185E02D9101A4014E195F09B301BF
S1130C708F819885681B790BC50109959FEFE91A47
S1130C80F90AA2E02A0E311C80CF28960FB6F894F8
S1130C90DEBF0FBECDBFDF91CF911F910F91FF90AB
S1130CA0EF90DF90CF90BF90AF909F908F907F9008
S1130CB06F905F904F903F902F9008956F927F9226
S1130CC08F929F92AF92BF92CF92DF92EF92FF9258
S1130CD00F931F93CF93DF93EC014B013A0159011A
S1130CE06801E881F981220F331F2F5F3F4F4A19B2
S1130CF05B090084F185E02DCE010995E12CF12CEE
S1130D0003E09501A301B401CE010E948A05DF919D
S1130D10CF911F910F91FF90EF90DF90CF90BF90F4
S1130D20AF909F908F907F906F9008952F923F92F5
S1130D304F925F926F927F928F929F92AF92BF92E7
S1130D40CF92DF92EF92FF920F931F93CF93DF9393
S1130D50CDB7DEB769970FB6F894DEBF0FBECDBF2F
S1130D603C014A011F830E83FD82EC82CA82DC01AE
S1130D7058964D915C9159974115510509F0A8C0B9
S1130D8018968D919C911997681779070CF060C19A
S1130D901A968D919C911B97881699060CF058C150
S1130DA0D12CCB01EA81B6E0EB9F800D911D11247B
S1130DB0181619060CF04CC1C60133E0880F991FB0
S1130DC03A95E1F7880D991D181619060CF040C1E3
S1130DD0D30157968C91811103C0203B08F02F5FFB
S1130DE0B5E02B9F900111247E876D872B011B8218
S1130DF0F901E61BF70BF987E8879401285F3F4F59
S1130E003B872A873B81353059F0E885F9854D8544
S1130E105E85E40FF51FE059FF4F5491598301C0DB
S1130E20198214015401898180FF12C0D301ED910C
S1130E30FC91BA81B13031F40480F581E02D2E812A
S1130E403F8118C00684F785E02DEE80FF801DC029
S1130E50EC81FD812E813F81E217F307E1F0D3019C
S1130E60ED91FC91BA81B13059F40480F581E02D03
S1130E702C813D81A5016D857E85C30109950BC03B
S1130E800684F785E02DEC80FD8086019601A101A2
S1130E90B201C3010995E981E695E9832C0C3D1C57
S1130EA0FFEFAF1ABF0A2A853B85A216B30609F0E5
S1130EB0BACF3B813F5F3B834C0C5D1C4D855E8507
S1130EC04F5F5F4F5E874D87363009F09BCFC0C0C0
S1130ED0FA0134963491329785919491231BA7E0BB
S1130EE02A9F800D911D1124FA0125913491388B8C
S1130EF02F87FC0125903490FC01329634913B837A
S1130F00319644914C873196E491FC013596A49135
S1130F10319684915A81523050F04A2E0A2E000C98
S1130F205508E82F082E000CFF0BF987E887FA8193
S1130F30CF2ED12C4C9C90014D9C300D5C9C300DDF
S1130F401124A901460F571F5B874A871982A12CD8
S1130F50EA2FAA0FFF0BDB01AE0FBF1FBD83AC83CB
S1130F60BB816B0F711D9B012E0F3F1F3D8B2C8B83
S1130F70A401480F511D87FD5A955F8B4E8B9C85AC
S1130F80A91608F065C08A2D90E048855985480F58
S1130F90591F4C9D90014D9D300D5C9D300D1124C9
S1130FA0D901A80DB91DBE87AD87EC81FD81F98FEC
S1130FB0E88F4A845B84F9812C81F21BF98B4E897A
S1130FC05F89480F591F5B8B4A8B8989F88D8F0F76
S1130FD0288D398D4C895D892417350799F18770DF
S1130FE041F4C1010196EF85F889E20DF31DB49037
S1130FF01C01B7FE1EC0D301ED91FC91BA81B13042
S113100061F40480F581E02D2E813F814A895B895A
S1131010688D798DC30109950CC00684F785E02D90
S1131020EE80FF80860196014D855E85B201C30185
S11310300995BB0C4C0C5D1CE88DF98D3196F98F2C
S1131040E88FC3CF59818B81580F5983A39497CFCD
S113105069960FB6F894DEBF0FBECDBFDF91CF9176
S11310601F910F91FF90EF90DF90CF90BF90AF90C2
S11310709F908F907F906F905F904F903F902F90B4
S11310800895AF92BF92CF92EF92FF920F931F9366
S1131090CF93DF93EC01262F888D998D009709F06B
S11310A042C06A3069F42C898E859F8538E0239F7D
S11310B0800D911D11249F878E871D861C86ACC0D0
S11310C06D3009F4A9C08E898823C1F03C898C85D0
S11310D09D8546E0349F800D911D112448855985D6
S11310E0841795075CF01D861C868E859F85E8E035
S11310F03E9F800D911D11249F878E87EA88FB886F
S1131100088919894E855F856C857D85CC88CE01DB
S11311100E9496062C898C859D85F6E02F9F800D74
S1131120911D112441C06A3079F41D861C862C89D6
S1131130FC013696E4918E859F852E9F800D911D2E
S113114011249F878E8768C06D3009F465C0AC0197
S11311504C5F5F4FFA013491631708F45DC0319618
S1131160E491E61708F458C0FA014491362F341B71
S1131170FC013296A590B490F7E03F9FA00CB11CFF
S11311801124F501329634913196E491332311F010
S1131190E1110DC0F5013496E4912C898C859D856F
S11311A0E29F800D911D11249D878C8735C0F50128
S11311B0359644915E89552311F16C89E32FF0E053
S11311C0E40FF11D47FDFA956E9FD0016F9FB00D9E
S11311D011244C855D854A0F5B1FE885F9854E1700
S11311E05F076CF01D861C86FC013696E4918E85A3
S11311F09F856E9F800D911D11249F878E87EA889D
S1131200FB88088919894E855F856C857D85CC8826
S1131210CE010E949606BECF81E090E0DF91CF918F
S11312201F910F91FF90EF90CF90BF90AF900895D2
S1131230FC01808591850895FC018285938508953C
S1131240611571058105910569F481E090E0A0E0E4
S1131250B0E080939F019093A001A093A101B0936B
S1131260A20108C060939F017093A0018093A10123
S11312709093A20150939E0140939D018091700030
S11312808E7F809370008091B0008C7F8093B0003B
S11312908091B100877F8093B1008091B6008F7DEB
S11312A08093B600809170008D7F80937000809150
S11312B0B10084608093B1008091B1008C7F8093F1
S11312C0B10086E090E09093970180939601089591
S11312D01092990110929A0110929B0110929C0114
S11312E01092980180919601909197018093B20099
S11312F0E0E7F0E080818160808308958091990126
S113130090919A01A0919B01B0919C010196A11D1D
S1131310B11D8093990190939A01A0939B01B0937E
S11313209C018091990190919A01A0919B01B091A7
S11313309C0140919F015091A0016091A101709185
S1131340A20184179507A607B70710F180919801A9
S113135081111EC081E08093980180919901909140
S11313609A01A0919B01B0919C01841B950BA60B43
S1131370B70B8093990190939A01A0939B01B0932A
S11313809C01E0919D01F0919E01099510929801B4
S113139008951F920F920FB60F9211242F933F932B
S11313A04F935F936F937F938F939F93AF93BF9369
S11313B0EF93FF9380919601909197018093B200EF
S11313C00E947E09FF91EF91BF91AF919F918F9100
S11313D07F916F915F914F913F912F910F900FBE2D
S11313E00F901F901895CF92DF92EF92FF920F9378
S11313F01F93CF93DF93DC0177FD22C118968D9163
S11314009C911997681779070CF01AC157FD18C1F8
S11314101A968D919C911B97481759070CF010C18F
S11314205596EC91559714968D919C911597E230B1
S113143059F0E330C9F0E13001F5FC013197E41BC8
S1131440F50BAB01BF0119C0FC013197EF01C61BBD
S1131450D70BBE011696ED91FC9117973197EF01CA
S1131460C41BD50BAE0109C01696ED91FC911797DC
S11314703197E61BF70BBA01AF018901012F112740
S113148002950F70F02EE901CC0FCD2FCC1FDD0B90
S1131490D195EC2FEF70EE2E36952795E22FEF7055
S11314A0DE2E5E96EC915E97F0E0017011273C2FE2
S11314B0317021704E175F070CF06CC05F96EC9191
S11314C05F97ED01CE0FD11DCE0FD11D489FF001C6
S11314D0499FF00D589FF00D1124AF01440F551F83
S11314E0E40FF51F6E0F7F1FEA8DFB8DE60FF71FCC
S11314F0880F991FEF01C80FD91F88818C7F8883BB
S1131500012B59F01496CD91DC911597CC0FDD1F6A
S1131510CE0FDF1F888181608883332359F01496AE
S1131520CD91DC911597CC0FDD1FCE0FDF1F888185
S1131530826088831496CD91DC911597CE0FDF1FBE
S11315408881222331F08160888323E030E092E0B7
S11315501AC08E7FF9CF8083892F8E2119F0808164
S113156088608083892F8D2119F080818061808338
S113157014964D915C911597E40FF51F990F215026
S1131580310909F45DC08081837E492F4F2119F30D
S11315908460E1CF5F96CC905F97ED01CC0DD11DB7
S11315A0CC0DD11D4E1B5F0B489FF001499FF00DE0
S11315B0589FF00D1124CF01880F991FE80FF91FD0
S11315C06E0F7F1FEA8DFB8DE60FF71F80818C7FE6
S11315D080831496CD91DC911597CE0FDF1F8881FF
S11315E0012B11F0826001C08D7F8883332319F0B1
S11315F0808181608083222319F0808182608083CE
S113160023E030E092E080818F71492F4F2109F06F
S113161080628083892F8E2119F080818064808389
S1131620892F8D2119F080818068808314964D91D3
S11316305C911597E40FF51F990F2150310919F7A3
S1131640DF91CF911F910F91FF90EF90DF90CF909A
S113165008952F923F924F925F926F927F928F9252
S1131660AF92CF92DF92EF92FF920F931F93CF939B
S1131670DF9300D0CDB7DEB73C01162FD42EF22E67
S1131680DC015E966C934D88469EC00111242C01AA
S1131690440C551C480E591EA201882011F0440F19
S11316A0551FCA0149835A830E947A121C01F3010F
S11316B0938F828F49815A81009709F4A9C060E011
S11316C070E00E94AC13882019F0420C531C01C036
S11316D02101D3015D965C924E925C97D796DC9281
S11316E0D797D896FC92D897D9960C93D997D49635
S11316F0EC92D497D596CC92D597D696AC92D697B1
S1131700EE2DF0E0E059FA4FE4919D96EC939D970D
S11317102C2D30E0F901EC57FA4FE491F0E0EE0F94
S1131720FF1FE856FA4F85919491F30192A381A388
S1131730F901E059FA4F24919E962C939E978A2D95
S113174090E0FC01EC57FA4FE491F0E0EE0FFF1F3C
S1131750E856FA4F25913491F30134A323A3FC01F5
S1131760E059FA4F84919F968C939F974D2D50E0AA
S1131770FA01EC57FA4FE491F0E0EE0FFF1FE85640
S1131780FA4F85919491F30196A385A3FA01E05948
S1131790FA4FE491D096EC93D0972F2D30E0F901D5
S11317A0EC57FA4FE491F0E0EE0FFF1FE856FA4FC2
S11317B085919491F30190A787A3F901E059FA4F19
S11317C02491D1962C93D197802F90E0FC01EC5773
S11317D0FA4FE491F0E0EE0FFF1FE856FA4F25911F
S11317E03491F30132A721A7FC01E059FA4F849107
S11317F0D2968C93D29783E0DC968C93DC9711502D
S1131800DB961C93DB9790961C9290975F961C92A4
S11318100F900F90DF91CF911F910F91FF90EF9058
S1131820DF90CF90AF908F907F906F905F904F90AC
S11318303F902F9008956F927F928F92AF92BF92B4
S1131840CF92DF92EF92FF920F931F93CF93DF9388
S11318501F92CDB7DEB73C01D62EB42E102FF988D7
S11318606F2D70E040E250E029830E94690580E317
S113187091E0D3018D939C93FF922981022F2B2D0C
S11318804D2D60E1C3010E94290BF30112AF012F1A
S113189010E0F801EC57FA4FE491F0E0EE0FFF1F6F
S11318A0E856FA4F85919491D3019C969C938E931C
S11318B09B97F801E059FA4FE491D396EC930F907B
S11318C00F90DF91CF911F910F91FF90EF90DF90D8
S11318D0CF90BF90AF908F907F906F900895CF93EB
S11318E0DF93EC011F8E8F8DE1E0F0E0E81BF1093E
S11318F03D96EE0FFF1FEC0FFD1F808191819EAF7F
S11319008DAFD093A401C093A30161E08CA90E9480
S1131910161295B18DA58095892385B961E08DA9AD
S11319200E941612E9A1FAA190818EA580958923BF
S1131930808361E08EA90E941612EBA1FCA1908124
S11319408FA5892B808361E08FA90E941612EDA1D7
S1131950FEA1908188A980958923808361E088AD68
S11319600E941612EFA1F8A5908189A98095892378
S1131970808361E089AD0E941612E9A5FAA59081E1
S11319808AA98095892380838E8D893058F061E0FF
S11319908AAD0E941612EBA5FCA590818BA98095B7
S11319A0892380838CEF8AB91BB882E080938000FE
S11319B089E18093810084E690E09093870080938E
S11319C0860080916F00816080936F007894DF912E
S11319D0CF910895822F867090E095958795277012
S11319E054E0259F90011124282B392B862F90E059
S11319F0982F88279295990F907E822B932B242FD2
S1131A002770922B20E2429FA00111245527842B9A
S1131A10952B667070E0762F6627770F770F862BED
S1131A20972B0895CF92DF92FF920F931F93CF933A
S1131A30DF93DC019396ED91FC91949790819F96AE
S1131A408C919F97892B80839196ED91FC9192972D
S1131A5090819E968C919E97892B80835E963C9173
S1131A605E97393018F480E991E002C088EC90E088
S1131A70DC962C91DC9788589F4F02C0880F991FE1
S1131A802A95E2F7CC97DC962C91DC972F5FDC96B5
S1131A902C93DC97243098F1DC961C92DC97DB962F
S1131AA02C91DB972F5FDB962C93DB97231708F49D
S1131AB07DC0DB961C92DB9790962C919097222305
S1131AC059F05F963C915F9721E0231B5F962C931E
S1131AD05F9790961C9290975F962C915F97E1E0A8
S1131AE0F0E0E21BF1093D96EE0FFF1FEA0FFB1F2A
S1131AF020813181DE963C932E93DD9757C0DC968E
S1131B002C91DC97213009F051C0DB963C91DB9796
S1131B109596ED91FC919697D0962C91D09730FFA5
S1131B2003C03081232B03C03081209523232083DD
S1131B30DB963C91DB979796ED91FC919897D19623
S1131B402C91D19731FF03C03081232B03C0308106
S1131B50209523232083DB963C91DB979996ED9186
S1131B60FC919A97D2962C91D29732FF03C0308180
S1131B70232B03C030812095232320835E962C9150
S1131B805E97293098F0DB963C91DB979B96ED911C
S1131B90FC919C97D3962C91D39733FF03C030814B
S1131BA0232B03C03081209523232083DD96ED91E0
S1131BB0FC91DE97909387008093860010928500B5
S1131BC0109284009396CD91DC91949798819F967E
S1131BD08C919F978095892388839196CD91DC91F0
S1131BE0929798819E968C919E978095892388835D
S1131BF025B19D969C919D97922BDC968C91DC97B8
S1131C00882309F40DC101900BB895B925B9019049
S1131C100BB895B925B901900BB895B925B90190C0
S1131C200BB895B925B901900BB895B925B90190B0
S1131C300BB895B925B901900BB895B925B90190A0
S1131C400BB895B925B901900BB895B925B9019090
S1131C500BB895B925B901900BB895B925B9019080
S1131C600BB895B925B901900BB895B925B9019070
S1131C700BB895B925B901900BB895B925B9019060
S1131C800BB895B925B901900BB895B925B9019050
S1131C900BB895B925B901900BB895B925B9019040
S1131CA00BB895B925B901900BB895B925B9019030
S1131CB00BB895B925B901900BB895B925B9019020
S1131CC00BB895B925B901900BB895B925B9019010
S1131CD00BB895B925B901900BB895B925B9019000
S1131CE00BB895B925B901900BB895B925B90190F0
S1131CF00BB895B925B901900BB895B925B90190E0
S1131D000BB895B925B914964D915C91159740344B
S1131D10510509F080C001900BB895B925B901901F
S1131D200BB895B925B901900BB895B925B90190AF
S1131D300BB895B925B901900BB895B925B901909F
S1131D400BB895B925B901900BB895B925B901908F
S1131D500BB895B925B901900BB895B925B901907F
S1131D600BB895B925B901900BB895B925B901906F
S1131D700BB895B925B901900BB895B925B901905F
S1131D800BB895B925B901900BB895B925B901904F
S1131D900BB895B925B901900BB895B925B901903F
S1131DA00BB895B925B901900BB895B925B901902F
S1131DB00BB895B925B901900BB895B925B901901F
S1131DC00BB895B925B901900BB895B925B901900F
S1131DD00BB895B925B901900BB895B925B90190FF
S1131DE00BB895B925B901900BB895B925B90190EF
S1131DF00BB895B925B901900BB895B925B90190DF
S1131E000BB895B925B901900BB895B925B90190CE
S1131E100BB895B925B9DE96FC93EE93DD9732C0E5
S1131E20F12CCF2CD12C14966D917C911597C6165C
S1131E30D70644F58601060F171FAF01400F511F47
S1131E40EA014881D0E14D9FA0011124342F307361
S1131E506E0F7F1F600F711FEB018881D4E08D9F8F
S1131E60A00111244C70432BE601CE0FDF1F6881C3
S1131E7080E4689FB0011124462B4BB995B925B96C
S1131E80F394CFCFDF91CF911F910F91FF90DF900B
S1131E90CF9008951F920F920FB60F9211242F9393
S1131EA03F934F935F936F937F938F939F93AF93DE
S1131EB0BF93EF93FF938091A3019091A4010E949B
S1131EC0120D86B386BBFF91EF91BF91AF919F91A5
S1131ED08F917F916F915F914F913F912F910F90CF
S1131EE00FBE0F901F9018959B01215031092E3F72
S1131EF03F4FF0F0DC015F962C915F975E963C912A
S1131F005E971496ED91FC9115973E9FA0013F9F1B
S1131F10500D1124FA01EE0FFF1F4E0F5F1FFC013D
S1131F20E20FF11DE20FF11D828D938D0C94AC1321
S1131F300C944A050E94A713FC01918D228D892FD0
S1131F4090E0805C9F4F821B91098F7399270895BD
S1131F50FC01918D828D981731F0828DE80FF11D6F
S1131F60858D90E008958FEF9FEF0895FC01918D8A
S1131F70828D981761F0828DDF01A80FB11D5D96E7
S1131F808C91928D9F5F9F73928F90E008958FEF55
S1131F909FEF08958FE191E1892B49F082EE93E060
S1131FA0892B29F00E941F1181110C94E2030895DA
S1131FB0FC01848DDF01A80FB11DA35ABF4F2C91E2
S1131FC0848D90E001968F739927848FA689B789B1
S1131FD02C93A089B1898C9180648C93938D848D8A
S1131FE0981306C00288F389E02D80818F7D808359
S1131FF00895CF93DF93EC01888D8823C9F0EA8993
S1132000FB89808185FD05C0A889B9898C9186FDED
S11320100FC00FB607FCF5CF808185FFF2CFA889EA
S1132020B9898C9185FFEDCFCE010E94D80FE7CFFF
S1132030DF91CF910895EF92FF920F931F93CF9367
S1132040DF93EC0181E0888F9B8D8C8D981305C004
S1132050E889F989808185FD24C0F62E0B8D10E076
S11320600F5F1F4F0F731127E02E8C8DE8120CC0E9
S11320700FB607FCFACFE889F989808185FFF5CF8F
S1132080CE010E94D80FF1CF8B8DFE01E80FF11D18
S1132090E35AFF4FF0820B8FEA89FB8980818062CB
S11320A007C0EE89FF896083E889F98980818064AB
S11320B0808381E090E0DF91CF911F910F91FF9099
S11320C0EF900895CF92DF92EF92FF921F93CF93F8
S11320D0DF93EC016A017B01122FE889F98982E020
S11320E080834115514E61057105B1F060E079E0DE
S11320F08DE390E0A70196010E945212DA01C90112
S11321000197A109B109B695A79597958795AC0153
S1132110411580E15807A8F0E889F989108260E840
S113212074E88EE190E0A70196010E945212BA0170
S1132130A90141505109610971097695679557952F
S11321404795EC85FD855083EE85FF854083188E89
S1132150EC89FD891083EA89FB8980818061808311
S1132160EA89FB89808188608083EA89FB89808190
S113217080688083EA89FB8980818F7D8083DF91F9
S1132180CF911F91FF90EF90DF90CF9008951F9211
S11321900F920FB60F9211242F938F939F93EF9367
S11321A0FF93E091B501F091B6018081E091BB010C
S11321B0F091BC0182FD12C090818091BE018F5FBD
S11321C08F732091BF01821751F0E091BE01F0E0BE
S11321D0EB55FE4F958F8093BE0101C08081FF9126
S11321E0EF919F918F912F910F900FBE0F901F90A1
S11321F018951F920F920FB60F9211242F933F93AD
S11322004F935F936F937F938F939F93AF93BF93FA
S1132210EF93FF9385EA91E00E94D80FFF91EF912D
S1132220BF91AF919F918F917F916F915F914F91EA
S11322303F912F910F900FBE0F901F90189585EA34
S113224091E00E949C0F21E0892B09F420E0822F69
S11322500895E5EAF1E01382128288EE93E0A0E0AB
S1132260B0E084839583A683B78388E491E0918367
S1132270808385EC90E09587848784EC90E0978751
S1132280868780EC90E0918B808B81EC90E0938B3F
S1132290828B82EC90E0958B848B86EC90E0978B1C
S11322A0868B118E128E138E148E089508950E94BB
S11322B0DB110E9456110E940203CAECDFE00E9467
S11322C019032097E1F30E94CA0FF9CFCF92DF924E
S11322D0EF92FF920F931F93CF93DF936C017A01D8
S11322E08B01C0E0D0E0CE15DF0589F0D8016D91F7
S11322F08D01D601ED91FC910190F081E02DC60194
S11323000995892B11F47E0102C02196ECCFC701F7
S1132310DF91CF911F910F91FF90EF90DF90CF90BD
S113232008951F920F920FB60F9211242F933F938B
S11323308F939F93AF93BF938091430290914402F4
S1132340A0914502B09146023091420223E0230F4E
S11323502D3720F40196A11DB11D05C026E8230FD9
S11323600296A11DB11D20934202809343029093D3
S11323704402A0934502B093460280914702909193
S11323804802A0914902B0914A020196A11DB11DD3
S11323908093470290934802A0934902B0934A0263
S11323A0BF91AF919F918F913F912F910F900FBE4D
S11323B00F901F901895789484B5826084BD84B57D
S11323C0816084BD85B5826085BD85B5816085BD2C
S11323D0EEE6F0E0808181608083E1E8F0E0108245
S11323E0808182608083808181608083E0E8F0E086
S11323F0808181608083E1EBF0E080818460808370
S1132400E0EBF0E0808181608083EAE7F0E08081A6
S11324108460808380818260808380818160808306
S11324208081806880831092C1000895CF93DF93E8
S113243090E0FC01E059FA4F2491FC01EC57FA4F6B
S11324408491882361F190E0880F991FFC01EE5577
S1132450FA4FC591D491FC01E856FA4FA591B49175
S1132460611109C09FB7F8948881209582238883DD
S1132470EC912E230BC0623061F49FB7F89438813D
S1132480822F809583238883EC912E2B2C939FBFDE
S113249006C08FB7F894E8812E2B28838FBFDF9175
S11324A0CF910895A1E21A2EAA1BBB1BFD010DC0FA
S11324B0AA1FBB1FEE1FFF1FA217B307E407F507F0
S11324C020F0A21BB30BE40BF50B661F771F881FCC
S11324D0991F1A9469F760957095809590959B0162
S11324E0AC01BD01CF010895EE0FFF1F0590F491DB
S11324F0E02D0994CF93DF938230910510F482E0AC
S113250090E0E0914D02F0914E0220E030E0C0E016
S1132510D0E0309711F14081518148175907C0F03C
S11325204817590761F482819381209719F09B839E
S11325308A832BC090934E0280934D0226C02115AE
S1132540310519F04217530718F49A01BE01DF014F
S1132550EF010280F381E02DDCCF2115310509F173
S1132560281B390B2430310590F412968D919C91DF
S113257013976115710521F0FB019383828304C0D5
S113258090934E0280934D02FD01329644C0FD01AA
S1132590E20FF31F81939193225031092D933C93C1
S11325A03AC020914B0230914C02232B41F42091EC
S11325B002013091030130934C0220934B0220918D
S11325C00001309101012115310541F42DB73EB7C9
S11325D04091040150910501241B350BE0914B02FD
S11325E0F0914C02E217F307A0F42E1B3F0B2817BF
S11325F0390778F0AC014E5F5F4F2417350748F078
S11326004E0F5F1F50934C0240934B028193919362
S113261002C0E0E0F0E0CF01DF91CF9108950F9385
S11326201F93CF93DF93009709F48CC0FC0132977A
S11326301382128200914D0210914E020115110570
S113264081F420813181820F931F20914B023091BC
S11326504C022817390779F5F0934C02E0934B02AA
S113266071C0D80140E050E0AE17BF0750F4129695
S11326702D913C911397AD012115310509F1D90133
S1132680F3CF9D01DA013383228360817181860F48
S1132690971F8217930769F4EC0128813981260F6B
S11326A0371F2E5F3F4F318320838A819B81938321
S11326B08283452B29F4F0934E02E0934D0242C0ED
S11326C01396FC93EE931297ED01499159919E0153
S11326D0240F351FE217F30771F480819181840F71
S11326E0951F029611969C938E93828193811396E3
S11326F09C938E931297E0E0F0E0D80112968D91AE
S11327009C911397009719F0F8018C01F6CF8D91E5
S11327109C9198012E5F3F4F820F931F20914B0293
S113272030914C022817390769F4309729F4109234
S11327304E0210924D0202C01382128210934C0278
S113274000934B02DF91CF911F910F91089581E087
S113275090E0F8940C94B313DC0101C06D934150E4
S10D27605040E0F70895F894FFCF0D
S113276A00004F02200003000101110F01FF1B04A6
S113277AFF010F0F00000000410866119A0FEF03D2
S113278AE804FF04990415054A05680500000000D9
S113279A41086611F309EF03E804FF0499041505D7
S11327AA740F6805000000001B1066119C0FB60F19
S10727BAA80FF90F58
S9030000FC
