S0120000555341525420546573742E73726563C3
S113000045C0000060C000005EC000005CC000008D
S11300105AC0000058C0000056C0000054C0000080
S113002052C0000050C000004EC000004CC0000090
S11300304AC000006DC0000046C0000044C000007B
S113004042C0000040C000003EC000003CC00000B0
S11300503AC0000038C0000036C0000034C00000C0
S113006032C0000030C000002EC000002CC00000D0
S11300702AC0000028C0000026C0000024C00000E0
S113008022C0000020C000001EC0000011241FBEBA
S1130090CFEFD0E4DEBFCDBF11E0A0E0B1E0E2EBF2
S11300A0F2E000E00BBF02C007900D92A630B1074A
S11300B0D9F721E0A6E0B1E001C01D92AC30B2074F
S11300C0E1F7BED0F4C09CCF8BE0809381008DE734
S11300D090E0909389008093880082E080936F0081
S11300E01092850010928400809101019091020188
S11300F0A0910301B091040180930601909307013C
S1130100A0930801B09309018FB780688FBF089549
S11301101F920F920FB60F9211248F939F93AF9358
S1130120BF938091060190910701A0910801B091BD
S113013009010197A109B109809306019093070170
S1130140A0930801B0930901892B8A2B8B2B99F476
S113015081E080930A018091010190910201A091B4
S11301600301B09104018093060190930701A093C9
S11301700801B0930901BF91AF919F918F910F90A6
S11301800FBE0F901F90189527E030E058E0E82F3D
S1130190F0E052B942B1BF01022E02C075956795D5
S11301A00A94E2F7962F9170942B92B9129A2150E7
S11301B0310978F7119A12B80895813081F0E1EC91
S11301C0F0E0808188618083E2ECF0E080818660E9
S11301D0808383E38093C4001092C5000895E9EC02
S11301E0F0E0808188618083EAECF0E080818660C1
S11301F0808383E38093CC001092CD0008958130F6
S113020041F0E0ECF0E080818823ECF78091C600B7
S11302100895E8ECF0E080818823ECF78091CE002B
S1130220089580910B01882319F0813029F00895F5
S113023081E080930B01089580910001A5CF08957A
S11302408FEF81B912B880E0B8DF82E390E0A0E0DC
S1130250B0E08093010190930201A0930301B09355
S113026004018093060190930701A0930801B093C1
S113027009012ADFC8EED3E000EC10E0E12CF12CF8
S1130280F8018081882324F480E0B9DF80930001A1
S1130290C83EF3E0DF0718F0C4DFCE2DDF2D8091D8
S11302A00A018823E1F310920A01E296E9CFF89457
S10502B0FFCF7A
S10902B2AA010000000097
S9030000FC
