:100000000C94D4020C94FC020C94FC020C94FC02A0
:100010000C94FC020C94FC020C94FC020C94FC0268
:100020000C94FC020C9415080C94FC020C94FC0239
:100030000C94FC020C94DA0D0C94FC020C94FC025F
:100040000C94BC0F0C94FC020C94F20E0C94240F34
:100050000C94FC020C94FC020C94FC020C94FC0228
:100060000C94FC020C94FC0200000000003E5B4F6C
:100070005B3E3E6B4F6B3E1C3E7C3E1C183C7E3C08
:10008000181C577D571C1C5E7F5E1C00183C180016
:10009000FFE7C3E7FF0018241800FFE7DBE7FF30A6
:1000A000483A060E2629792926407F050507407F14
:1000B00005253F5A3CE73C5A7F3E1C1C08081C1C87
:1000C0003E7F14227F22145F5F005F5F06097F017D
:1000D0007F006689956A606060606094A2FFA29468
:1000E00008047E040810207E201008082A1C080836
:1000F0001C2A08081E101010100C1E0C1E0C303884
:100100003E3830060E3E0E06000000000000005F84
:1001100000000007000700147F147F14242A7F2AA0
:100120001223130864623649562050000807030062
:10013000001C2241000041221C002A1C7F1C2A08AE
:10014000083E080800807030000808080808000011
:1001500060600020100804023E5149453E00427F85
:10016000400072494949462141494D331814127FD4
:100170001027454545393C4A494931412111090774
:100180003649494936464949291E000014000000F5
:1001900040340000000814224114141414140041C7
:1001A00022140802015909063E415D594E7C121184
:1001B000127C7F494949363E414141227F414141BC
:1001C0003E7F494949417F090909013E4141517337
:1001D0007F0808087F00417F41002040413F017FA8
:1001E000081422417F404040407F021C027F7F0470
:1001F00008107F3E4141413E7F090909063E4151B9
:10020000215E7F09192946264949493203017F01A8
:10021000033F4040403F1F2040201F3F4038403FA9
:10022000631408146303047804036159494D4300BF
:100230007F4141410204081020004141417F0402F6
:10024000010204404040404000030708002054548D
:1002500078407F284444383844444428384444286B
:100260007F385454541800087E090218A4A49C78BE
:100270007F0804047800447D40002040403D007F1A
:100280001028440000417F40007C047804787C08FA
:100290000404783844444438FC18242418182424CE
:1002A00018FC7C08040408485454542404043F44B3
:1002B000243C4040207C1C2040201C3C4030403CE2
:1002C00044281028444C9090907C4464544C440042
:1002D00008364100000077000000413608000201A6
:1002E0000204023C2623263C1EA1A161123A404092
:1002F000207A38545455592155557941225454780F
:1003000042215554784020545579400C1E527212A7
:100310003955555559395454545939555454580030
:1003200000457C410002457D420001457C407D1234
:1003300011127DF0282528F07C5455450020545496
:100340007C547C0A097F4932494949323A44444441
:100350003A324A4848303A4141217A3A424020787C
:10036000009DA0A07D3D4242423D3D4040403D3C7D
:1003700024FF2424487E4943662B2FFC2F2BFF09A2
:1003800029F620C0887E0903205454794100004496
:100390007D413048484A32384040227A007A0A0A81
:1003A000727D0D19317D2629292F282629292926F4
:1003B00030484D4020380808080808080808382F39
:1003C00010C8ACBA2F102834FA00007B00000814C3
:1003D0002A142222142A14085500550055AA55AA99
:1003E00055AAFF55FF55FF000000FF00101010FF39
:1003F00000141414FF001010FF00FF1010F010F094
:10040000141414FC001414F700FF0000FF00FF1484
:1004100014F404FC141417101F10101F101F1414D0
:10042000141F00101010F0000000001F101010101A
:100430001F10101010F010000000FF10101010100E
:1004400010101010FF10000000FF140000FF00FF4C
:1004500000001F10170000FC04F4141417101714E8
:1004600014F404F40000FF00F7141414141414140A
:10047000F700F7141414171410101F101F1414147D
:10048000F4141010F010F000001F101F0000001FE7
:1004900014000000FC140000F010F01010FF10FF1A
:1004A000141414FF141010101F00000000F010FFAF
:1004B000FFFFFFFFF0F0F0F0F0FFFFFF0000000093
:1004C00000FFFF0F0F0F0F0F3844443844FC4A4A17
:1004D0004A347E02020606027E027E0263554941CC
:1004E000633844443C04407E201E2006027E020203
:1004F00099A5E7A5991C2A492A1C4C7201724C3017
:100500004A4D4D303048784830BC625A463D3E49ED
:100510004949007E0101017E2A2A2A2A2A44445F91
:10052000444440514A444040444A51400000FF0185
:1005300003E080FF000008086B6B08361236243693
:10054000060F090F060000181800000010100030F8
:1005500040FF0101001F01011E00191D1712003C80
:100560003C3C3C00000000000102040810204080D8
:1005700001020408102001020408102004040404ED
:10058000040404040202020202020303030303033D
:1005900000000000250028002B00000000002400BF
:1005A00027002A001103540F11241FBECFEFD8E0FB
:1005B000DEBFCDBF11E0A0E0B1E0E2E5F4E202C0B1
:1005C00005900D92A634B107D9F722E0A6E4B1E078
:1005D00001C01D92AF33B207E1F712E0C4EDD2E0E3
:1005E00004C02197FE010E94DF10C23DD107C9F768
:1005F0000E94820F0C9427120C94000087E491E073
:100600000E94BB0A4EE253E062E370E080E090E0BB
:100610000E946C070C94B40760E087E491E00C94AE
:100620005E0B8F92AF92CF92EF920F9380E28F93F7
:10063000812C89E0A82E9AE0C92E28E0E22E01E163
:1006400020E14FE06EE087E491E00E94670A0F909E
:100650000F91EF90CF90AF908F90089560E070E091
:1006600087E491E00E94040E22E042E062E087E429
:1006700091E00E94360B6091460170E09C014FE0D2
:1006800050E087E491E00E943F088091460180326B
:1006900010F48F5F01C080E08093460108952F928F
:1006A0003F924F925F926F927F928F929F92AF9202
:1006B000BF92CF92DF92EF92FF920F931F93CF934F
:1006C000DF9300D01F92CDB7DEB74C017B836A83E6
:1006D0006A01590117019801241B350B37FF03C02C
:1006E000319521953109C5014A815B81841B950BA8
:1006F00097FF03C091958195910951E05983821725
:10070000930714F019820BC09A2D8B2D5801092FD5
:10071000182F9A818B81DB82CA82C92ED82E8A81BA
:100720009B81A816B9065CF49C2D8D2D6801092FBC
:10073000182F9A818B81BB82AA82A92EB82E2501FF
:10074000AA81BB814A1A5B0A38016C187D0877FEC2
:1007500003C0719461947108720157FE03C0BFEF2A
:10076000EB1AFB0AF594E794C016D1061CF00FEFC4
:100770001FEF1FC001E010E01CC0D401ED91FC91FF
:10078000B9810480F581E02D9101BB23C1F04A813C
:100790005B81B601C4010995E618F708F7FE04C0AD
:1007A000C00ED11EE40CF51CEA81FB813196FB835F
:1007B000EA834A815B81A416B506FCF604C0A60153
:1007C0006A817B81E7CF0F900F900F90DF91CF91DF
:1007D0001F910F91FF90EF90DF90CF90BF90AF905F
:1007E0009F908F907F906F905F904F903F902F9051
:1007F00008956F927F928F929F92AF92BF92CF9205
:10080000DF92EF92FF920F931F93CF93DF93EC0150
:100810004B015A0169013801E881F9810284F385AD
:10082000E02D87010995E881F981A501460D571D45
:10083000415051090284F385E02D9601B401CE01A7
:100840000995E881F9810084F185E02D9301A501E6
:10085000B401CE010995E881F981C80CD91CB60113
:10086000615071090084F185E02D9301A501CE014D
:100870000995DF91CF911F910F91FF90EF90DF903D
:10088000CF90BF90AF909F908F907F906F90089582
:10089000EF92FF920F931F937801DC01ED91FC9191
:1008A000240F351F8901015011090680F781E02DC1
:1008B0009B0109951F910F91FF90EF900895EF9282
:1008C000FF920F931F93DC01ED91FC91260F371FD0
:1008D000215031090680F781E02D78018A010995C0
:1008E0001F910F91FF90EF9008956F927F928F92DA
:1008F0009F92AF92BF92CF92DF92EF92FF920F93AF
:100900001F93CF93DF936C015A014801EB013B0128
:10091000620E731EC615D70574F4D601ED91FC91D5
:100920000084F185E02D87019401A501BE01C60177
:1009300009952196EFCFDF91CF911F910F91FF90F5
:10094000EF90DF90CF90BF90AF909F908F907F906F
:100950006F900895EF92FF920F931F93DC01ED913A
:10096000FC9111971A960D911C911B9718962D9139
:100970003C9119970684F785E02D7B0140E050E01B
:1009800060E070E009951F910F91FF90EF9008953E
:100990000895FC01138212828AE091E091838083A2
:1009A0007583648357834683718760875387428743
:1009B000158A158614861786168681E0848B2FEF9C
:1009C0003FEF338B228B318B208B868B178A118ED6
:1009D000108E08952F923F924F925F926F927F9266
:1009E0008F929F92AF92BF92CF92DF92EF92FF923F
:1009F0000F931F93CF93DF93CDB7DEB769970FB6F1
:100A0000F894DEBF0FBECDBF3C014A011F830E83A9
:100A1000FD82EC82CA82DC0158964D915C91599717
:100A20004115510509F0A8C018968D919C91199710
:100A3000681779070CF060C11A968D919C911B97ED
:100A4000881699060CF058C1D12CCB01EA81B6E08A
:100A5000EB9F800D911D1124181619060CF04CC146
:100A6000C60133E0880F991F3A95E1F7880D991D6B
:100A7000181619060CF040C1D30157968C918111BC
:100A800003C0203B08F02F5FB5E02B9F900111249D
:100A90007E876D872B011B82F901E61BF70BF98717
:100AA000E8879401285F3F4F3B872A873B81353099
:100AB00059F0E885F9854D855E85E40FF51FE85905
:100AC000FF4F5491598301C0198214015401898147
:100AD00080FF12C0D301ED91FC91BA81B13031F4A5
:100AE0000480F581E02D2E813F8118C00684F785B2
:100AF000E02DEE80FF801DC0EC81FD812E813F81C5
:100B0000E217F307E1F0D301ED91FC91BA81B13026
:100B100059F40480F581E02D2C813D81A5016D857E
:100B20007E85C30109950BC00684F785E02DEC8016
:100B3000FD8086019601A101B201C3010995E981F9
:100B4000E695E9832C0C3D1CFFEFAF1ABF0A2A85FE
:100B50003B85A216B30609F0BACF3B813F5F3B83CA
:100B60004C0C5D1C4D855E854F5F5F4F5E874D87EA
:100B7000363009F09BCFC0C0FA01349634913297D9
:100B800085919491231BA7E02A9F800D911D11242C
:100B9000FA0125913491388B2F87FC0125903490F0
:100BA000FC01329634913B83319644914C873196C7
:100BB000E491FC013596A491319684915A8152308A
:100BC00050F04A2E0A2E000C5508E82F082E000C73
:100BD000FF0BF987E887FA81CF2ED12C4C9C90012E
:100BE0004D9C300D5C9C300D1124A901460F571F00
:100BF0005B874A871982A12CEA2FAA0FFF0BDB0122
:100C0000AE0FBF1FBD83AC83BB816B0F711D9B01FA
:100C10002E0F3F1F3D8B2C8BA401480F511D87FDCC
:100C20005A955F8B4E8B9C85A91608F065C08A2D5E
:100C300090E048855985480F591F4C9D90014D9D66
:100C4000300D5C9D300D1124D901A80DB91DBE8752
:100C5000AD87EC81FD81F98FE88F4A845B84F9814F
:100C60002C81F21BF98B4E895F89480F591F5B8BD2
:100C70004A8B8989F88D8F0F288D398D4C895D8934
:100C80002417350799F1877041F4C1010196EF856A
:100C9000F889E20DF31DB4901C01B7FE1EC0D3010C
:100CA000ED91FC91BA81B13061F40480F581E02DC1
:100CB0002E813F814A895B89688D798DC3010995B1
:100CC0000CC00684F785E02DEE80FF80860196013A
:100CD0004D855E85B201C3010995BB0C4C0C5D1CB2
:100CE000E88DF98D3196F98FE88FC3CF59818B81CB
:100CF000580F5983A39497CF69960FB6F894DEBF27
:100D00000FBECDBFDF91CF911F910F91FF90EF905C
:100D1000DF90CF90BF90AF909F908F907F906F901B
:100D20005F904F903F902F900895AF92BF92CF92D7
:100D3000EF92FF920F931F93CF93DF93EC01262F37
:100D4000888D998D009709F042C06A3069F42C892A
:100D50008E859F8538E0239F800D911D11249F87EC
:100D60008E871D861C86ACC06D3009F4A9C08E89A3
:100D70008823C1F03C898C859D8546E0349F800D99
:100D8000911D112448855985841795075CF01D86AF
:100D90001C868E859F85E8E03E9F800D911D112465
:100DA0009F878E87EA88FB88088919894E855F8529
:100DB0006C857D85CC88CE010E94EA042C898C85C7
:100DC0009D85F6E02F9F800D911D112441C06A3052
:100DD00079F41D861C862C89FC013696E4918E855B
:100DE0009F852E9F800D911D11249F878E8768C03F
:100DF0006D3009F465C0AC014C5F5F4FFA0134916E
:100E0000631708F45DC03196E491E61708F458C002
:100E1000FA014491362F341BFC013296A590B49010
:100E2000F7E03F9FA00CB11C1124F50132963491DC
:100E30003196E491332311F0E1110DC0F5013496A0
:100E4000E4912C898C859D85E29F800D911D112454
:100E50009D878C8735C0F501359644915E89552371
:100E600011F16C89E32FF0E0E40FF11D47FDFA95D5
:100E70006E9FD0016F9FB00D11244C855D854A0F88
:100E80005B1FE885F9854E175F076CF01D861C8691
:100E9000FC013696E4918E859F856E9F800D911D95
:100EA00011249F878E87EA88FB88088919894E85D7
:100EB0005F856C857D85CC88CE010E94EA04BECF1B
:100EC00081E090E0DF91CF911F910F91FF90EF9023
:100ED000CF90BF90AF900895611571058105910580
:100EE00069F481E090E0A0E0B0E080938F019093FE
:100EF0009001A0939101B093920108C060938F017B
:100F000070939001809391019093920150938E0180
:100F100040938D01809170008E7F8093700080914E
:100F2000B0008C7F8093B0008091B100877F809368
:100F3000B1008091B6008F7D8093B60080917000E3
:100F40008D7F809370008091B10084608093B100A8
:100F50008091B1008C7F8093B10086E090E0909307
:100F600087018093860108951092890110928A0169
:100F700010928B0110928C01109288018091860151
:100F8000909187018093B200E0E7F0E0808181607A
:100F9000808308958091890190918A01A0918B01AD
:100FA000B0918C010196A11DB11D80938901909390
:100FB0008A01A0938B01B0938C018091890190915B
:100FC0008A01A0918B01B0918C0140918F015091C9
:100FD0009001609191017091920184179507A60785
:100FE000B70710F18091880181111EC081E08093C4
:100FF00088018091890190918A01A0918B01B09123
:101000008C01841B950BA60BB70B809389019093E1
:101010008A01A0938B01B0938C01E0918D01F09136
:101020008E0109951092880108951F920F920FB6B4
:101030000F9211242F933F934F935F936F937F935E
:101040008F939F93AF93BF93EF93FF93809186010C
:10105000909187018093B2000E94CA07FF91EF919F
:10106000BF91AF919F918F917F916F915F914F91C0
:101070003F912F910F900FBE0F901F901895CF9218
:10108000DF92EF92FF920F931F93CF93DF93DC01D8
:1010900077FD22C118968D919C9119976817790751
:1010A0000CF01AC157FD18C11A968D919C911B978F
:1010B000481759070CF010C15596EC9155971496A6
:1010C0008D919C911597E23059F0E330C9F0E130F1
:1010D00001F5FC013197E41BF50BAB01BF0119C011
:1010E000FC013197EF01C61BD70BBE011696ED919F
:1010F000FC9117973197EF01C41BD50BAE0109C0C6
:101100001696ED91FC9117973197E61BF70BBA01F4
:10111000AF018901012F112702950F70F02EE9010F
:10112000CC0FCD2FCC1FDD0BD195EC2FEF70EE2E19
:1011300036952795E22FEF70DE2E5E96EC915E9746
:10114000F0E0017011273C2F317021704E175F07BE
:101150000CF06CC05F96EC915F97ED01CE0FD11D46
:10116000CE0FD11D489FF001499FF00D589FF00D03
:101170001124AF01440F551FE40FF51F6E0F7F1FA1
:10118000EA8DFB8DE60FF71F880F991FEF01C80F3F
:10119000D91F88818C7F8883012B59F01496CD91BB
:1011A000DC911597CC0FDD1FCE0FDF1F888181608A
:1011B0008883332359F01496CD91DC911597CC0F89
:1011C000DD1FCE0FDF1F8881826088831496CD914A
:1011D000DC911597CE0FDF1F8881222331F08160CB
:1011E000888323E030E092E01AC08E7FF9CF8083BD
:1011F000892F8E2119F0808188608083892F8D212D
:1012000019F080818061808314964D915C911597CF
:10121000E40FF51F990F2150310909F45DC0808159
:10122000837E492F4F2119F38460E1CF5F96CC90E4
:101230005F97ED01CC0DD11DCC0DD11D4E1B5F0B69
:10124000489FF001499FF00D589FF00D1124CF01E8
:10125000880F991FE80FF91F6E0F7F1FEA8DFB8D16
:10126000E60FF71F80818C7F80831496CD91DC91EF
:101270001597CE0FDF1F8881012B11F0826001C00E
:101280008D7F8883332319F08081816080832223BE
:1012900019F080818260808323E030E092E08081D9
:1012A0008F71492F4F2109F080628083892F8E2111
:1012B00019F0808180648083892F8D2119F08081CD
:1012C0008068808314964D915C911597E40FF51F0B
:1012D000990F2150310919F7DF91CF911F910F918B
:1012E000FF90EF90DF90CF9008952F923F924F9212
:1012F0005F926F927F928F92AF92CF92DF92EF9236
:10130000FF920F931F93CF93DF9300D0CDB7DEB73B
:101310003C01162FD42EF22EDC015E966C934D8884
:10132000469EC00111242C01440C551C480E591E28
:10133000A201882011F0440F551FCA0149835A8326
:101340000E94E5101C01F301938F828F49815A811D
:10135000009709F4A9C060E070E00E942012882084
:1013600019F0420C531C01C02101D3015D965C921F
:101370004E925C97D796DC92D797D896FC92D897E6
:10138000D9960C93D997D496EC92D497D596CC92C3
:10139000D597D696AC92D697EE2DF0E0E859FA4F55
:1013A000E4919D96EC939D972C2D30E0F901E45843
:1013B000FA4FE491F0E0EE0FFF1FE057FA4F8591EE
:1013C0009491F30192A381A3F901E859FA4F249172
:1013D0009E962C939E978A2D90E0FC01E458FA4F3C
:1013E000E491F0E0EE0FFF1FE057FA4F25913491A2
:1013F000F30134A323A3FC01E859FA4F84919F968B
:101400008C939F974D2D50E0FA01E458FA4FE491E8
:10141000F0E0EE0FFF1FE057FA4F85919491F30132
:1014200096A385A3FA01E859FA4FE491D096EC937C
:10143000D0972F2D30E0F901E458FA4FE491F0E015
:10144000EE0FFF1FE057FA4F85919491F30190A79B
:1014500087A3F901E859FA4F2491D1962C93D1979B
:10146000802F90E0FC01E458FA4FE491F0E0EE0F99
:10147000FF1FE057FA4F25913491F30132A721A7BE
:10148000FC01E859FA4F8491D2968C93D29783E06D
:10149000DC968C93DC971150DB961C93DB9790962F
:1014A0001C9290975F961C920F900F90DF91CF91B6
:1014B0001F910F91FF90EF90DF90CF90AF908F90A2
:1014C0007F906F905F904F903F902F9008956F9214
:1014D0007F928F92AF92BF92CF92DF92EF92FF9264
:1014E0000F931F93CF93DF931F92CDB7DEB73C01CD
:1014F000D62EB42E102FF9886F2D70E040E250E008
:1015000029830E94C90482E291E0D3018D939C93C8
:10151000FF922981022F2B2D4D2D60E1C3010E94E6
:101520007509F30112AF012F10E0F801E458FA4FEA
:10153000E491F0E0EE0FFF1FE057FA4F8591949190
:10154000D3019C969C938E939B97F801E859FA4F90
:10155000E491D396EC930F900F90DF91CF911F9170
:101560000F91FF90EF90DF90CF90BF90AF908F9052
:101570007F906F900895CF93DF93EC011F8E8F8D36
:10158000E1E0F0E0E81BF1093D96EE0FFF1FEC0FE4
:10159000FD1F808191819EAF8DAFD0939401C09348
:1015A000930161E08CA90E94A21095B18DA5809550
:1015B000892385B961E08DA90E94A210E9A1FAA151
:1015C00090818EA580958923808361E08EA90E94F9
:1015D000A210EBA1FCA190818FA5892B808361E0F3
:1015E0008FA90E94A210EDA1FEA1908188A98095EB
:1015F0008923808361E088AD0E94A210EFA1F8A545
:10160000908189A980958923808361E089AD0E94BA
:10161000A210E9A5FAA590818AA9809589238083E3
:101620008E8D893058F061E08AAD0E94A210EBA542
:10163000FCA590818BA98095892380838CEF8AB942
:101640001BB882E08093800089E18093810084E66A
:1016500090E0909387008093860080916F00816076
:1016600080936F007894DF91CF910895822F8670D8
:1016700090E095958795277054E0259F900111245F
:10168000282B392B862F90E0982F88279295990F39
:10169000907E822B932B242F2770922B20E2429F47
:1016A000A00111245527842B952B667070E0762FAE
:1016B0006627770F770F862B972B08951F93CF936D
:1016C000DF93EC012A8D3B8D8C8D9D8D281739077A
:1016D000A9F1162F81E088A388A1882339F061E061
:1016E00070E080E090E00E942B10F6CF112331F1E2
:1016F0002F8D8F8DFE01E80FF11DE80FF11D3E8D3E
:101700008C819D81389FA001399F500D1124CA0101
:10171000880F991F480F591F81E090E0821B9109A3
:101720000D96880F991FC80FD91F68817981828D06
:10173000938DDF91CF911F910C941712DF91CF9170
:101740001F910895CF92DF92FF920F931F93CF9333
:10175000DF93DC019396ED91FC91949790819F9695
:101760008C919F97892B80839196ED91FC91929714
:1017700090819E968C919E97892B80835E963C915A
:101780005E97393018F480E991E002C088EC90E06F
:10179000DC962C91DC9788589F4F02C0880F991FC8
:1017A0002A95E2F7CC97DC962C91DC972F5FDC969C
:1017B0002C93DC97243098F1DC961C92DC97DB9616
:1017C0002C91DB972F5FDB962C93DB97231708F484
:1017D0007DC0DB961C92DB9790962C9190972223EC
:1017E00059F05F963C915F9721E0231B5F962C9305
:1017F0005F9790961C9290975F962C915F97E1E08F
:10180000F0E0E21BF1093D96EE0FFF1FEA0FFB1F10
:1018100020813181DE963C932E93DD9757C0DC9674
:101820002C91DC97213009F051C0DB963C91DB977D
:101830009596ED91FC919697D0962C91D09730FF8C
:1018400003C03081232B03C03081209523232083C4
:10185000DB963C91DB979796ED91FC919897D1960A
:101860002C91D19731FF03C03081232B03C03081ED
:10187000209523232083DB963C91DB979996ED916D
:10188000FC919A97D2962C91D29732FF03C0308167
:10189000232B03C030812095232320835E962C9137
:1018A0005E97293098F0DB963C91DB979B96ED9103
:1018B000FC919C97D3962C91D39733FF03C0308132
:1018C000232B03C03081209523232083DD96ED91C7
:1018D000FC91DE979093870080938600109285009C
:1018E000109284009396CD91DC91949798819F9665
:1018F0008C919F978095892388839196CD91DC91D7
:10190000929798819E968C919E9780958923888343
:1019100025B19D969C919D97922BDC968C91DC979E
:10192000882309F40DC101900BB895B925B9019030
:101930000BB895B925B901900BB895B925B90190A7
:101940000BB895B925B901900BB895B925B9019097
:101950000BB895B925B901900BB895B925B9019087
:101960000BB895B925B901900BB895B925B9019077
:101970000BB895B925B901900BB895B925B9019067
:101980000BB895B925B901900BB895B925B9019057
:101990000BB895B925B901900BB895B925B9019047
:1019A0000BB895B925B901900BB895B925B9019037
:1019B0000BB895B925B901900BB895B925B9019027
:1019C0000BB895B925B901900BB895B925B9019017
:1019D0000BB895B925B901900BB895B925B9019007
:1019E0000BB895B925B901900BB895B925B90190F7
:1019F0000BB895B925B901900BB895B925B90190E7
:101A00000BB895B925B901900BB895B925B90190D6
:101A10000BB895B925B901900BB895B925B90190C6
:101A20000BB895B925B914964D915C911597403432
:101A3000510509F080C001900BB895B925B9019006
:101A40000BB895B925B901900BB895B925B9019096
:101A50000BB895B925B901900BB895B925B9019086
:101A60000BB895B925B901900BB895B925B9019076
:101A70000BB895B925B901900BB895B925B9019066
:101A80000BB895B925B901900BB895B925B9019056
:101A90000BB895B925B901900BB895B925B9019046
:101AA0000BB895B925B901900BB895B925B9019036
:101AB0000BB895B925B901900BB895B925B9019026
:101AC0000BB895B925B901900BB895B925B9019016
:101AD0000BB895B925B901900BB895B925B9019006
:101AE0000BB895B925B901900BB895B925B90190F6
:101AF0000BB895B925B901900BB895B925B90190E6
:101B00000BB895B925B901900BB895B925B90190D5
:101B10000BB895B925B901900BB895B925B90190C5
:101B20000BB895B925B901900BB895B925B90190B5
:101B30000BB895B925B9DE96FC93EE93DD9732C0CC
:101B4000F12CCF2CD12C14966D917C911597C61643
:101B5000D70644F58601060F171FAF01400F511F2E
:101B6000EA014881D0E14D9FA0011124342F307348
:101B70006E0F7F1F600F711FEB018881D4E08D9F76
:101B8000A00111244C70432BE601CE0FDF1F6881AA
:101B900080E4689FB0011124462B4BB995B925B953
:101BA000F394CFCFDF91CF911F910F91FF90DF90F2
:101BB000CF9008951F920F920FB60F9211242F937A
:101BC0003F934F935F936F937F938F939F93AF93C5
:101BD000BF93EF93FF9380919301909194010E94A2
:101BE000A20B86B386BBFF91EF91BF91AF919F91FE
:101BF0008F917F916F915F914F913F912F910F90B6
:101C00000FBE0F901F9018959B01215031092E3F58
:101C10003F4FF0F0DC015F962C915F975E963C9110
:101C20005E971496ED91FC9115973E9FA0013F9F02
:101C3000500D1124FA01EE0FFF1F4E0F5F1FFC0124
:101C4000E20FF11DE20FF11D828D938D0C94201295
:101C50000C94AA040E941212FC01918D228D892FEE
:101C600090E0805C9F4F821B91098F7399270895A4
:101C7000FC01918D828D981731F0828DE80FF11D56
:101C8000858D90E008958FEF9FEF0895FC01918D71
:101C9000828D981761F0828DDF01A80FB11D5D96CE
:101CA0008C91928D9F5F9F73928F90E008958FEF3C
:101CB0009FEF08958AE49FE0892B49F080E090E04F
:101CC000892B29F00E944A0F81110C94000008957D
:101CD000FC01848DDF01A80FB11DA35ABF4F2C91C9
:101CE000848D90E001968F739927848FA689B78998
:101CF0002C93A089B1898C9180648C93938D848D71
:101D0000981306C00288F389E02D80818F7D80833F
:101D10000895CF93DF93EC01888D8823C9F0EA8979
:101D2000FB89808185FD05C0A889B9898C9186FDD4
:101D30000FC00FB607FCF5CF808185FFF2CFA889D1
:101D4000B9898C9185FFEDCFCE010E94680EE7CF57
:101D5000DF91CF910895EF92FF920F931F93CF934E
:101D6000DF93EC0181E0888F9B8D8C8D981305C0EB
:101D7000E889F989808185FD24C0F62E0B8D10E05D
:101D80000F5F1F4F0F731127E02E8C8DE8120CC0D0
:101D90000FB607FCFACFE889F989808185FFF5CF76
:101DA000CE010E94680EF1CF8B8DFE01E80FF11D70
:101DB000E35AFF4FF0820B8FEA89FB8980818062B2
:101DC00007C0EE89FF896083E889F9898081806492
:101DD000808381E090E0DF91CF911F910F91FF9080
:101DE000EF9008951F920F920FB60F9211242F9328
:101DF0008F939F93EF93FF93E091A501F091A6013C
:101E00008081E091AB01F091AC0182FD12C0908124
:101E10008091AE018F5F8F732091AF01821751F0D7
:101E2000E091AE01F0E0EB56FE4F958F8093AE014E
:101E300001C08081FF91EF919F918F912F910F9021
:101E40000FBE0F901F9018951F920F920FB60F9212
:101E500011242F933F934F935F936F937F938F93AF
:101E60009F93AF93BF93EF93FF9385E991E00E9417
:101E7000680EFF91EF91BF91AF919F918F917F91EC
:101E80006F915F914F913F912F910F900FBE0F90E7
:101E90001F90189585E991E00E942C0E21E0892B76
:101EA00009F420E0822F0895E5E9F1E0138212821F
:101EB00088EE93E0A0E0B0E084839583A683B783A7
:101EC0008AE391E09183808385EC90E09587848715
:101ED00084EC90E09787868780EC90E0918B808BF4
:101EE00081EC90E0938B828B82EC90E0958B848BDD
:101EF00086EC90E0978B868B118E128E138E148E4B
:101F0000089508950E9467100E94810F0E94FE02AA
:101F1000CAE5DEE00E940C032097E1F30E945A0E0E
:101F2000F9CFCF92DF92EF92FF920F931F93CF934F
:101F3000DF936C017A018B01C0E0D0E0CE15DF05A4
:101F400089F0D8016D918D01D601ED91FC91019040
:101F5000F081E02DC6010995892B11F47E0102C0A4
:101F60002196ECCFC701DF91CF911F910F91FF9088
:101F7000EF90DF90CF9008951F920F920FB60F92BF
:101F800011242F933F938F939F93AF93BF9380918F
:101F9000330290913402A0913502B0913602309113
:101FA000320223E0230F2D3720F40196A11DB11D2D
:101FB00005C026E8230F0296A11DB11D2093320211
:101FC0008093330290933402A0933502B09336028B
:101FD0008091370290913802A0913902B0913A0273
:101FE0000196A11DB11D8093370290933802A093F2
:101FF0003902B0933A02BF91AF919F918F913F9177
:102000002F910F900FBE0F901F9018953FB7F89427
:102010008091370290913802A0913902B0913A0232
:1020200026B5A89B05C02F3F19F00196A11DB11D33
:102030003FBFBA2FA92F982F8827820F911DA11D6E
:10204000B11DBC01CD0142E0660F771F881F991FAB
:102050004A95D1F708958F929F92AF92BF92CF92F7
:10206000DF92EF92FF926B017C010E9406104B0100
:102070005C01C114D104E104F10401F10E94DE10FD
:102080000E940610DC01CB0188199909AA09BB0935
:10209000883E9340A105B10560F321E0C21AD10842
:1020A000E108F10888EE880E83E0981EA11CB11C9F
:1020B000C114D104E104F10419F7DBCFFF90EF90D4
:1020C000DF90CF90BF90AF909F908F9008957894BD
:1020D00084B5826084BD84B5816084BD85B582602D
:1020E00085BD85B5816085BDEEE6F0E080818160CB
:1020F0008083E1E8F0E010828081826080838081CB
:1021000081608083E0E8F0E0808181608083E1EBA2
:10211000F0E0808184608083E0EBF0E0808181608A
:102120008083EAE7F0E08081846080838081826040
:102130008083808181608083808180688083109229
:10214000C1000895CF93DF9390E0FC01E859FA4F66
:102150002491FC01E458FA4F8491882361F190E0C6
:10216000880F991FFC01E656FA4FC591D491FC01E6
:10217000E057FA4FA591B491611109C09FB7F89447
:102180008881209582238883EC912E230BC06230B6
:1021900061F49FB7F8943881822F809583238883D8
:1021A000EC912E2B2C939FBF06C08FB7F894E8813B
:1021B0002E2B28838FBFDF91CF9108950895EE0FC6
:1021C000FF1F0590F491E02D0994CF93DF938230A7
:1021D000910510F482E090E0E0913D02F0913E0222
:1021E00020E030E0C0E0D0E0309711F14081518133
:1021F00048175907C0F04817590761F48281938145
:10220000209719F09B838A832BC090933E02809382
:102210003D0226C02115310519F04217530718F465
:102220009A01BE01DF01EF010280F381E02DDCCFD6
:102230002115310509F1281B390B2430310590F4A3
:1022400012968D919C9113976115710521F0FB01F8
:102250009383828304C090933E0280933D02FD01EC
:10226000329644C0FD01E20FF31F819391932250F7
:1022700031092D933C933AC020913B0230913C02AE
:10228000232B41F4209102013091030130933C0251
:1022900020933B022091000130910101211531056D
:1022A00041F42DB73EB74091040150910501241B24
:1022B000350BE0913B02F0913C02E217F307A0F4EA
:1022C0002E1B3F0B2817390778F0AC014E5F5F4F8C
:1022D0002417350748F04E0F5F1F50933C02409380
:1022E0003B028193919302C0E0E0F0E0CF01DF91E7
:1022F000CF9108950F931F93CF93DF93009709F425
:102300008CC0FC0132971382128200913D02109121
:102310003E020115110581F420813181820F931F46
:1023200020913B0230913C022817390779F5F09350
:102330003C02E0933B0271C0D80140E050E0AE1790
:10234000BF0750F412962D913C911397AD012115C2
:10235000310509F1D901F3CF9D01DA0133832283DD
:1023600060817181860F971F8217930769F4EC01D2
:1023700028813981260F371F2E5F3F4F31832083FD
:102380008A819B8193838283452B29F4F0933E02BB
:10239000E0933D0242C01396FC93EE931297ED0139
:1023A000499159919E01240F351FE217F30771F4EB
:1023B00080819181840F951F029611969C938E9334
:1023C0008281938113969C938E931297E0E0F0E0C4
:1023D000D80112968D919C911397009719F0F801EE
:1023E0008C01F6CF8D919C9198012E5F3F4F820F0B
:1023F000931F20913B0230913C022817390769F462
:10240000309729F410923E0210923D0202C01382CE
:10241000128210933C0200933B02DF91CF911F91F7
:102420000F91089581E090E0F8940C942712FB013D
:10243000DC0102C001900D9241505040D8F7089540
:10244000DC0101C06D9341505040E0F70895F894CD
:02245000FFCFBC
:1024520000003F022000000000009506910F2A0EA6
:102462004F0348045F04F9037504AA04C80400007A
:1024720000009506910F3F084F0348045F04F903DB
:102482007504040EC80400000000AB0E910F2C0E60
:06249200460E380E890E13
:00000001FF
