S00F0000446973706C61792E737265633F
S11300000C94E5020C940D030C940D030C940D0355
S11300100C940D030C940D030C940D030C940D031C
S11300200C940D030C94D4080C940D030C940D0340
S11300300C940D030C94550E0C940D030C940D03A9
S11300400C9491120C940D030C94C7110C94F91197
S11300500C940D030C940D030C940D030C940D03DC
S11300600C94CE0E0C940D0300010000010001005D
S11300700100010000000000003E5B4F5B3E3E6B50
S11300804F6B3E1C3E7C3E1C183C7E3C181C577D2E
S1130090571C1C5E7F5E1C00183C1800FFE7C3E77A
S11300A0FF0018241800FFE7DBE7FF30483A060E8C
S11300B02629792926407F050507407F05253F5AD3
S11300C03CE73C5A7F3E1C1C08081C1C3E7F142243
S11300D07F22145F5F005F5F06097F017F006689EE
S11300E0956A606060606094A2FFA29408047E0434
S11300F00810207E201008082A1C08081C2A08085A
S11301001E101010100C1E0C1E0C30383E38300619
S11301100E3E0E06000000000000005F0000000715
S1130120000700147F147F14242A7F2A1223130843
S1130130646236495620500008070300001C22411F
S1130140000041221C002A1C7F1C2A08083E0808C3
S11301500080703000080808080800006060002073
S1130160100804023E5149453E00427F4000724956
S11301704949462141494D331814127F10274545FA
S113018045393C4A49493141211109073649494910
S113019036464949291E000014000000403400007E
S11301A000081422411414141414004122140802E7
S11301B0015909063E415D594E7C1211127C7F495A
S11301C04949363E414141227F4141413E7F4949AF
S11301D049417F090909013E414151737F080808DB
S11301E07F00417F41002040413F017F08142241AC
S11301F07F404040407F021C027F7F0408107F3E06
S11302004141413E7F090909063E4151215E7F0972
S1130210192946264949493203017F01033F4040D9
S1130220403F1F2040201F3F4038403F63140814C4
S11302306303047804036159494D43007F414141FC
S11302400204081020004141417F040201020440DD
S113025040404040000307080020545478407F2861
S11302604444383844444428384444287F38545457
S1130270541800087E090218A4A49C787F0804047A
S11302807800447D40002040403D007F1028440019
S113029000417F40007C047804787C0804047838AA
S11302A044444438FC1824241818242418FC7C08DA
S11302B0040408485454542404043F44243C404057
S11302C0207C1C2040201C3C4030403C442810280A
S11302D0444C9090907C4464544C44000836410053
S11302E00000770000004136080002010204023CCD
S11302F02623263C1EA1A161123A4040207A38549C
S11303005455592155557941225454784221555414
S1130310784020545579400C1E5272123955555567
S113032059395454545939555454580000457C4152
S11303300002457D420001457C407D1211127DF092
S1130340282528F07C545545002054547C547C0ABC
S1130350097F4932494949323A4444443A324A4885
S113036048303A4141217A3A42402078009DA0A089
S11303707D3D4242423D3D4040403D3C24FF2424DB
S1130380487E4943662B2FFC2F2BFF0929F620C0FA
S1130390887E090320545479410000447D4130484B
S11303A0484A32384040227A007A0A0A727D0D198E
S11303B0317D2629292F28262929292630484D40F0
S11303C020380808080808080808382F10C8ACBAEC
S11303D02F102834FA00007B000008142A1422226B
S11303E0142A14085500550055AA55AA55AAFF55B4
S11303F0FF55FF000000FF00101010FF001414143C
S1130400FF001010FF00FF1010F010F0141414FC83
S1130410001414F700FF0000FF00FF1414F404FCA0
S1130420141417101F10101F101F1414141F001081
S11304301010F0000000001F101010101F101010FA
S113044010F010000000FF10101010101010101009
S1130450FF10000000FF140000FF00FF00001F1049
S1130460170000FC04F414141710171414F404F403
S11304700000FF00F714141414141414F700F714F4
S11304801414171410101F101F141414F414101043
S1130490F010F000001F101F0000001F14000000E7
S11304A0FC140000F010F01010FF10FF141414FFDF
S11304B0141010101F00000000F010FFFFFFFFFFDA
S11304C0F0F0F0F0F0FFFFFF0000000000FFFF0F6E
S11304D00F0F0F0F3844443844FC4A4A4A347E0212
S11304E0020606027E027E02635549416338444493
S11304F03C04407E201E2006027E020299A5E7A548
S1130500991C2A492A1C4C7201724C304A4D4D30B8
S11305103048784830BC625A463D3E494949007EDD
S11305200101017E2A2A2A2A2A44445F4444405174
S11305304A444040444A51400000FF0103E080FF28
S1130540000008086B6B083612362436060F090FB4
S113055006000018180000001010003040FF0101D0
S1130560001F01011E00191D1712003C3C3C3C00F9
S1130570000000000000000800020100000304075E
S11305800000000000000000010204081020408068
S113059001020408102001020408102004040404C9
S11305A00404040402020202020203030303030319
S11305B000000000250028002B000000000024009B
S11305C027002A0035039610291211241FBECFEFED
S11305D0D8E0DEBFCDBF11E0A0E0B1E0ECE1FAE28B
S11305E002C005900D92A835B107D9F723E0A8E51C
S11305F0B1E001C01D92A132B207E1F712E0C5EEED
S1130600D2E004C02197FE010E94CD13C23ED1075F
S1130610C9F70E9457120C940C150C94000081E049
S113062080936801809169018F5F809369010895C7
S1130630809168018823C1F080916901843168F058
S1130640609106018DE00E947B139091060181E088
S113065089278093060110926901109268018091A4
S113066069018F5F8093690108958F92AF92CF9251
S1130670EF920F9380E28F93812C89E0A82E9AE069
S1130680C92E28E0E22E01E120E14FE06EE08AE687
S113069091E00E94260B0F900F91EF90CF90AF90B6
S11306A08F900895EF92FF920F931F93CF93DF9350
S11306B026E040E855E260E070E087E792E00E94BF
S11306C0621161E08DE00E943F1360E08DE00E94C2
S11306D07B134FE053E062E370E080E090E00E941F
S11306E02B080E9473088AE691E00E947A0B20E0AE
S11306F040E063E08AE691E00E94F50B9093590193
S11307008093580120E041E062E08AE691E00E9493
S1130710F50B90935B0180935A0120E043E063E082
S11307208AE691E00E94F50B90935D0180935C0151
S113073020E043E060E08AE691E00E94F50B9093AC
S11307405F0180935E0123E043E060E08AE691E08C
S11307500E94F50B909361018093600123E040E0D7
S113076060E08AE691E00E94F50B90936301809328
S1130770620123E040E063E08AE691E00E94F50B29
S1130780909365018093640123E043E063E08AE68B
S113079091E00E94F50B909367018093660160E0FD
S11307A070E08AE691E00E947F0E8DE0E82EF12C45
S11307B000E010E0C0E0D0E0FE01E00FF11FE859D6
S11307C0FF4FE491EE2361F02091660130916701BF
S11307D0A701BE01625F7F4F8AE691E00E94FE0896
S11307E02196C330D10541F70D5F1F4F8FEFE81AF3
S11307F0F80A0C301105F1F6209162013091630181
S11308004FE050E06FE070E08AE691E0DF91CF9135
S11308101F910F91FF90EF900C94FE082F923F923E
S11308204F925F926F927F928F929F92AF92BF92FC
S1130830CF92DF92EF92FF920F931F93CF93DF93A8
S113084000D01F92CDB7DEB74C017B836A836A0167
S1130850590117019801241B350B37FF03C031954B
S113086021953109C5014A815B81841B950B97FF52
S113087003C091958195910951E05983821793079B
S113088014F019820BC09A2D8B2D5801092F182FA3
S11308909A818B81DB82CA82C92ED82E8A819B8160
S11308A0A816B9065CF49C2D8D2D6801092F182F0C
S11308B09A818B81BB82AA82A92EB82E2501AA8196
S11308C0BB814A1A5B0A38016C187D0877FE03C0A5
S11308D0719461947108720157FE03C0BFEFEB1A63
S11308E0FB0AF594E794C016D1061CF00FEF1FEF36
S11308F01FC001E010E01CC0D401ED91FC91B9814E
S11309000480F581E02D9101BB23C1F04A815B8114
S1130910B601C4010995E618F708F7FE04C0C00E35
S1130920D11EE40CF51CEA81FB813196FB83EA833A
S11309304A815B81A416B506FCF604C0A6016A814F
S11309407B81E7CF0F900F900F90DF91CF911F9194
S11309500F91FF90EF90DF90CF90BF90AF909F905A
S11309608F907F906F905F904F903F902F9008955D
S11309706F927F928F929F92AF92BF92CF92DF92AB
S1130980EF92FF920F931F93CF93DF93EC014B01F0
S11309905A0169013801E881F9810284F385E02D67
S11309A087010995E881F981A501460D571D41503C
S11309B051090284F385E02D9601B401CE01099515
S11309C0E881F9810084F185E02D9301A501B4014A
S11309D0CE010995E881F981C80CD91CB601615092
S11309E071090084F185E02D9301A501CE010995DB
S11309F0DF91CF911F910F91FF90EF90DF90CF90F7
S1130A00BF90AF909F908F907F906F900895EF92DA
S1130A10FF920F931F937801DC01ED91FC91240F59
S1130A20351F8901015011090680F781E02D9B01D2
S1130A3009951F910F91FF90EF900895EF92FF9207
S1130A400F931F93DC01ED91FC91260F371F21506A
S1130A5031090680F781E02D78018A0109951F91FB
S1130A600F91FF90EF9008956F927F928F929F92D3
S1130A70AF92BF92CF92DF92EF92FF920F931F93A8
S1130A80CF93DF936C015A014801EB013B01620EE5
S1130A90731EC615D70574F4D601ED91FC9100843C
S1130AA0F185E02D87019401A501BE01C6010995D8
S1130AB02196EFCFDF91CF911F910F91FF90EF908F
S1130AC0DF90CF90BF90AF909F908F907F906F906A
S1130AD00895EF92FF920F931F93DC01ED91FC9127
S1130AE011971A960D911C911B9718962D913C9174
S1130AF019970684F785E02D7B0140E050E060E023
S1130B0070E009951F910F91FF90EF90089508955B
S1130B10FC01138212828BE091E0918380837583C0
S1130B206483578346837187608753874287158A16
S1130B30158614861786168681E0848B2FEF3FEF87
S1130B40338B228B318B208B868B178A118E108EE0
S1130B5008952F923F924F925F926F927F928F925D
S1130B609F92AF92BF92CF92DF92EF92FF920F9338
S1130B701F93CF93DF93CDB7DEB769970FB6F89481
S1130B80DEBF0FBECDBF3C014A011F830E83FD8231
S1130B90EC82CA82DC0158964D915C9159974115BB
S1130BA0510509F0A8C018968D919C911997681762
S1130BB079070CF060C11A968D919C911B97881649
S1130BC099060CF058C1D12CCB01EA81B6E0EB9F19
S1130BD0800D911D1124181619060CF04CC1C60184
S1130BE033E0880F991F3A95E1F7880D991D18167F
S1130BF019060CF040C1D30157968C91811103C0A2
S1130C00203B08F02F5FB5E02B9F900111247E87D5
S1130C106D872B011B82F901E61BF70BF987E88727
S1130C209401285F3F4F3B872A873B81353059F039
S1130C30E885F9854D855E85E40FF51FEC58FF4F77
S1130C405491598301C0198214015401898180FF90
S1130C5012C0D301ED91FC91BA81B13031F404801A
S1130C60F581E02D2E813F8118C00684F785E02DA3
S1130C70EE80FF801DC0EC81FD812E813F81E21753
S1130C80F307E1F0D301ED91FC91BA81B13059F44D
S1130C900480F581E02D2C813D81A5016D857E8543
S1130CA0C30109950BC00684F785E02DEC80FD8017
S1130CB086019601A101B201C3010995E981E69576
S1130CC0E9832C0C3D1CFFEFAF1ABF0A2A853B8534
S1130CD0A216B30609F0BACF3B813F5F3B834C0CAD
S1130CE05D1C4D855E854F5F5F4F5E874D87363057
S1130CF009F09BCFC0C0FA013496349132978591A4
S1130D009491231BA7E02A9F800D911D1124FA01C1
S1130D1025913491388B2F87FC0125903490FC0168
S1130D20329634913B83319644914C873196E491C9
S1130D30FC013596A491319684915A81523050F039
S1130D404A2E0A2E000C5508E82F082E000CFF0B23
S1130D50F987E887FA81CF2ED12C4C9C90014D9CC9
S1130D60300D5C9C300D1124A901460F571F5B8781
S1130D704A871982A12CEA2FAA0FFF0BDB01AE0FC1
S1130D80BF1FBD83AC83BB816B0F711D9B012E0FF5
S1130D903F1F3D8B2C8BA401480F511D87FD5A9595
S1130DA05F8B4E8B9C85A91608F065C08A2D90E058
S1130DB048855985480F591F4C9D90014D9D300D14
S1130DC05C9D300D1124D901A80DB91DBE87AD87D6
S1130DD0EC81FD81F98FE88F4A845B84F9812C8151
S1130DE0F21BF98B4E895F89480F591F5B8B4A8B25
S1130DF08989F88D8F0F288D398D4C895D89241749
S1130E00350799F1877041F4C1010196EF85F8899E
S1130E10E20DF31DB4901C01B7FE1EC0D301ED9189
S1130E20FC91BA81B13061F40480F581E02D2E810A
S1130E303F814A895B89688D798DC30109950CC00E
S1130E400684F785E02DEE80FF80860196014D85AE
S1130E505E85B201C3010995BB0C4C0C5D1CE88D89
S1130E60F98D3196F98FE88FC3CF59818B81580F53
S1130E705983A39497CF69960FB6F894DEBF0FBE3B
S1130E80CDBFDF91CF911F910F91FF90EF90DF9035
S1130E90CF90BF90AF909F908F907F906F905F9016
S1130EA04F903F902F900895AF92BF92CF92EF92C0
S1130EB0FF920F931F93CF93DF93EC01262F888D1E
S1130EC0998D009709F042C06A3069F42C898E85A7
S1130ED09F8538E0239F800D911D11249F878E8765
S1130EE01D861C86ACC06D3009F4A9C08E89882388
S1130EF0C1F03C898C859D8546E0349F800D911D11
S1130F00112448855985841795075CF01D861C8635
S1130F108E859F85E8E03E9F800D911D11249F875B
S1130F208E87EA88FB88088919894E855F856C85D8
S1130F307D85CC88CE010E94A9052C898C859D8550
S1130F40F6E02F9F800D911D112441C06A3079F481
S1130F501D861C862C89FC013696E4918E859F851E
S1130F602E9F800D911D11249F878E8768C06D3040
S1130F7009F465C0AC014C5F5F4FFA01349163170B
S1130F8008F45DC03196E491E61708F458C0FA01FC
S1130F904491362F341BFC013296A590B490F7E0AF
S1130FA03F9FA00CB11C1124F50132963491319667
S1130FB0E491332311F0E1110DC0F5013496E4916D
S1130FC02C898C859D85E29F800D911D11249D8720
S1130FD08C8735C0F501359644915E89552311F10E
S1130FE06C89E32FF0E0E40FF11D47FDFA956E9F45
S1130FF0D0016F9FB00D11244C855D854A0F5B1F96
S1131000E885F9854E175F076CF01D861C86FC0188
S11310103696E4918E859F856E9F800D911D1124D7
S11310209F878E87EA88FB88088919894E855F85A2
S11310306C857D85CC88CE010E94A905BECF81E058
S113104090E0DF91CF911F910F91FF90EF90CF909F
S1131050BF90AF900895611571058105910569F4FC
S113106081E090E0A0E0B0E08093B2019093B301FE
S1131070A093B401B093B50108C06093B20170931A
S1131080B3018093B4019093B5015093B10140939F
S1131090B001809170008E7F809370008091B000C9
S11310A08C7F8093B0008091B100877F8093B100E2
S11310B08091B6008F7D8093B600809170008D7F03
S11310C0809370008091B10084608093B10080911E
S11310D0B1008C7F8093B10086E090E09093AA01E8
S11310E08093A90108951092AC011092AD01109261
S11310F0AE011092AF011092AB018091A9019091C1
S1131100AA018093B200E0E7F0E0808181608083EF
S113111008958091AC019091AD01A091AE01B09180
S1131120AF010196A11DB11D8093AC019093AD0157
S1131130A093AE01B093AF018091AC019091AD0149
S1131140A091AE01B091AF014091B2015091B301B1
S11311506091B4017091B50184179507A607B7078C
S113116010F18091AB0181111EC081E08093AB012D
S11311708091AC019091AD01A091AE01B091AF010D
S1131180841B950BA60BB70B8093AC019093AD0118
S1131190A093AE01B093AF01E091B001F091B10121
S11311A009951092AB0108951F920F920FB60F92FA
S11311B011242F933F934F935F936F937F938F9358
S11311C09F93AF93BF93EF93FF938091A901909165
S11311D0AA018093B2000E948908FF91EF91BF9108
S11311E0AF919F918F917F916F915F914F913F91BB
S11311F02F910F900FBE0F901F901895CF92DF92F2
S1131200EF92FF920F931F93CF93DF93DC0177FD4F
S113121022C118968D919C911997681779070CF043
S11312201AC157FD18C11A968D919C911B974817A6
S113123059070CF010C15596EC91559714968D9161
S11312409C911597E23059F0E330C9F0E13001F593
S1131250FC013197E41BF50BAB01BF0119C0FC0184
S11312603197EF01C61BD70BBE011696ED91FC9189
S113127017973197EF01C41BD50BAE0109C0169621
S1131280ED91FC9117973197E61BF70BBA01AF016B
S11312908901012F112702950F70F02EE901CC0F5F
S11312A0CD2FCC1FDD0BD195EC2FEF70EE2E3695A4
S11312B02795E22FEF70DE2E5E96EC915E97F0E0BC
S11312C0017011273C2F317021704E175F070CF00D
S11312D06CC05F96EC915F97ED01CE0FD11DCE0FE0
S11312E0D11D489FF001499FF00D589FF00D112426
S11312F0AF01440F551FE40FF51F6E0F7F1FEA8DDA
S1131300FB8DE60FF71F880F991FEF01C80FD91F38
S113131088818C7F8883012B59F01496CD91DC91C0
S11313201597CC0FDD1FCE0FDF1F88818160888366
S1131330332359F01496CD91DC911597CC0FDD1F12
S1131340CE0FDF1F8881826088831496CD91DC9153
S11313501597CE0FDF1F8881222331F081608883A7
S113136023E030E092E01AC08E7FF9CF8083892F8A
S11313708E2119F0808188608083892F8D2119F056
S113138080818061808314964D915C911597E40F60
S1131390F51F990F2150310909F45DC08081837EC6
S11313A0492F4F2119F38460E1CF5F96CC905F976A
S11313B0ED01CC0DD11DCC0DD11D4E1B5F0B489FF3
S11313C0F001499FF00D589FF00D1124CF01880FB3
S11313D0991FE80FF91F6E0F7F1FEA8DFB8DE60F33
S11313E0F71F80818C7F80831496CD91DC911597B3
S11313F0CE0FDF1F8881012B11F0826001C08D7F29
S11314008883332319F0808181608083222319F03B
S113141080818260808323E030E092E080818F715C
S1131420492F4F2109F080628083892F8E2119F082
S1131430808180648083892F8D2119F08081806868
S1131440808314964D915C911597E40FF51F990FC5
S11314502150310919F7DF91CF911F910F91FF901E
S1131460EF90DF90CF9008952F923F924F925F922A
S11314706F927F928F92AF92CF92DF92EF92FF9210
S11314800F931F93CF93DF9300D0CDB7DEB73C010A
S1131490162FD42EF22EDC015E966C934D88469E58
S11314A0C00111242C01440C551C480E591EA201E4
S11314B0882011F0440F551FCA0149835A830E94A2
S11314C0D3131C01F301938F828F49815A810097B2
S11314D009F4A9C060E070E00E940515882019F0A5
S11314E0420C531C01C02101D3015D965C924E92C3
S11314F05C97D796DC92D797D896FC92D897D996D2
S11315000C93D997D496EC92D497D596CC92D59740
S1131510D696AC92D697EE2DF0E0E857FA4FE491C8
S11315209D96EC939D972C2D30E0F901E456FA4FEB
S1131530E491F0E0EE0FFF1FE055FA4F859194918E
S1131540F30192A381A3F901E857FA4F24919E96DF
S11315502C939E978A2D90E0FC01E456FA4FE49177
S1131560F0E0EE0FFF1FE055FA4F25913491F3019F
S113157034A323A3FC01E857FA4F84919F968C93DC
S11315809F974D2D50E0FA01E456FA4FE491F0E0B4
S1131590EE0FFF1FE055FA4F85919491F30196A346
S11315A085A3FA01E857FA4FE491D096EC93D097CB
S11315B02F2D30E0F901E456FA4FE491F0E0EE0FFC
S11315C0FF1FE055FA4F85919491F30190A787A3EB
S11315D0F901E857FA4F2491D1962C93D197802F93
S11315E090E0FC01E456FA4FE491F0E0EE0FFF1FA7
S11315F0E055FA4F25913491F30132A721A7FC015C
S1131600E857FA4F8491D2968C93D29783E0DC9674
S11316108C93DC971150DB961C93DB9790961C926D
S113162090975F961C920F900F90DF91CF911F912E
S11316300F91FF90EF90DF90CF90AF908F907F90BD
S11316406F905F904F903F902F9008956F927F928C
S11316508F92AF92BF92CF92DF92EF92FF920F934D
S11316601F93CF93DF931F92CDB7DEB73C01D62EE5
S1131670B42E102FF9886F2D70E040E250E02983DA
S11316800E94880583E291E0D3018D939C93FF929D
S11316902981022F2B2D4D2D60E1C3010E94340AB4
S11316A0F30112AF012F10E0F801E456FA4FE49170
S11316B0F0E0EE0FFF1FE055FA4F85919491D301AE
S11316C09C969C938E939B97F801E857FA4FE4916C
S11316D0D396EC930F900F90DF91CF911F910F91C0
S11316E0FF90EF90DF90CF90BF90AF908F907F905E
S11316F06F900895CF93DF93EC011F8E8F8DE1E0FF
S1131700F0E0E81BF1093D96EE0FFF1FEC0FFD1F03
S1131710808191819EAF8DAFD093B701C093B60104
S113172061E08CA90E943F1395B18DA58095892312
S113173085B961E08DA90E943F13E9A1FAA19081C6
S11317408EA580958923808361E08EA90E943F1332
S1131750EBA1FCA190818FA5892B808361E08FA9E7
S11317600E943F13EDA1FEA1908188A98095892351
S1131770808361E088AD0E943F13EFA1F8A59081BA
S113178089A980958923808361E089AD0E943F13F4
S1131790E9A5FAA590818AA98095892380838E8DF5
S11317A0893058F061E08AAD0E943F13EBA5FCA597
S11317B090818BA98095892380838CEF8AB91BB88B
S11317C082E08093800089E18093810084E690E048
S11317D0909387008093860080916F00816080934E
S11317E06F007894DF91CF910895822F867090E0F6
S11317F095958795277054E0259F90011124282BF7
S1131800392B862F90E0982F88279295990F907EF8
S1131810822B932B242F2770922B20E2429FA0012E
S113182011245527842B952B667070E0762F66273C
S1131830770F770F862B972B0895CF92DF92FF9225
S11318400F931F93CF93DF93DC019396ED91FC915B
S1131850949790819F968C919F97892B80839196E2
S1131860ED91FC91929790819E968C919E97892BF5
S113187080835E963C915E97393018F480E991E05C
S113188002C088EC90E0DC962C91DC9788589F4F3E
S113189002C0880F991F2A95E2F7CC97DC962C9109
S11318A0DC972F5FDC962C93DC97243098F1DC9640
S11318B01C92DC97DB962C91DB972F5FDB962C93A5
S11318C0DB97231708F47DC0DB961C92DB97909678
S11318D02C919097222359F05F963C915F9721E0D9
S11318E0231B5F962C935F9790961C9290975F961C
S11318F02C915F97E1E0F0E0E21BF1093D96EE0FD9
S1131900FF1FEA0FFB1F20813181DE963C932E934B
S1131910DD9757C0DC962C91DC97213009F051C03B
S1131920DB963C91DB979596ED91FC919697D0963A
S11319302C91D09730FF03C03081232B03C030811A
S1131940209523232083DB963C91DB979796ED919A
S1131950FC919897D1962C91D19731FF03C0308197
S1131960232B03C03081209523232083DB963C91D5
S1131970DB979996ED91FC919A97D2962C91D297F8
S113198032FF03C03081232B03C0308120952323F1
S113199020835E962C915E97293098F0DB963C91DB
S11319A0DB979B96ED91FC919C97D3962C91D397C2
S11319B033FF03C03081232B03C0308120952323C0
S11319C02083DD96ED91FC91DE97909387008093C0
S11319D0860010928500109284009396CD91DC913C
S11319E0949798819F968C919F978095892388835B
S11319F09196CD91DC91929798819E968C919E9729
S1131A0080958923888325B19D969C919D97922BDF
S1131A10DC968C91DC97882309F40DC101900BB8F6
S1131A2095B925B901900BB895B925B901900BB8B2
S1131A3095B925B901900BB895B925B901900BB8A2
S1131A4095B925B901900BB895B925B901900BB892
S1131A5095B925B901900BB895B925B901900BB882
S1131A6095B925B901900BB895B925B901900BB872
S1131A7095B925B901900BB895B925B901900BB862
S1131A8095B925B901900BB895B925B901900BB852
S1131A9095B925B901900BB895B925B901900BB842
S1131AA095B925B901900BB895B925B901900BB832
S1131AB095B925B901900BB895B925B901900BB822
S1131AC095B925B901900BB895B925B901900BB812
S1131AD095B925B901900BB895B925B901900BB802
S1131AE095B925B901900BB895B925B901900BB8F2
S1131AF095B925B901900BB895B925B901900BB8E2
S1131B0095B925B901900BB895B925B901900BB8D1
S1131B1095B925B901900BB895B925B914964D918D
S1131B205C9115974034510509F080C001900BB8C1
S1131B3095B925B901900BB895B925B901900BB8A1
S1131B4095B925B901900BB895B925B901900BB891
S1131B5095B925B901900BB895B925B901900BB881
S1131B6095B925B901900BB895B925B901900BB871
S1131B7095B925B901900BB895B925B901900BB861
S1131B8095B925B901900BB895B925B901900BB851
S1131B9095B925B901900BB895B925B901900BB841
S1131BA095B925B901900BB895B925B901900BB831
S1131BB095B925B901900BB895B925B901900BB821
S1131BC095B925B901900BB895B925B901900BB811
S1131BD095B925B901900BB895B925B901900BB801
S1131BE095B925B901900BB895B925B901900BB8F1
S1131BF095B925B901900BB895B925B901900BB8E1
S1131C0095B925B901900BB895B925B901900BB8D0
S1131C1095B925B901900BB895B925B901900BB8C0
S1131C2095B925B901900BB895B925B9DE96FC9301
S1131C30EE93DD9732C0F12CCF2CD12C14966D91FC
S1131C407C911597C616D70644F58601060F171F13
S1131C50AF01400F511FEA014881D0E14D9FA0011F
S1131C601124342F30736E0F7F1F600F711FEB012F
S1131C708881D4E08D9FA00111244C70432BE60190
S1131C80CE0FDF1F688180E4689FB0011124462BCA
S1131C904BB995B925B9F394CFCFDF91CF911F916B
S1131CA00F91FF90DF90CF9008951F920F920FB67F
S1131CB00F9211242F933F934F935F936F937F93CE
S1131CC08F939F93AF93BF93EF93FF938091B6014C
S1131CD09091B7010E941D0C86B386BBFF91EF91D2
S1131CE0BF91AF919F918F917F916F915F914F9130
S1131CF03F912F910F900FBE0F901F9018959B014D
S1131D00215031092E3F3F4FF0F0DC015F962C91BA
S1131D105F975E963C915E971496ED91FC911597B2
S1131D203E9FA0013F9F500D1124FA01EE0FFF1FAB
S1131D304E0F5F1FFC01E20FF11DE20FF11D828DBA
S1131D40938D0C9405150C946905613298F42091D7
S1131D502502243089F46093DA01FC012CED31E092
S1131D60D9018A2F821B861718F481918D93F9CF9C
S1131D7080E0089581E0089582E0089585ED8093E0
S1131D80BC008091BC0084FDFCCF10922502089514
S1131D9085EC8093BC001092250208951F920F9247
S1131DA00FB60F9211242F933F934F935F936F932A
S1131DB07F938F939F93AF93BF93EF93FF93809100
S1131DC0B900887F803609F49EC078F5883209F41A
S1131DD05DC090F4803109F456C038F4882309F4C6
S1131DE0F5C0883009F44FC0F5C0883109F44EC0FD
S1131DF0803209F45FC0EEC0803409F46AC058F43C
S1131E00803309F457C0883309F0E4C08093B801E3
S1131E100E94C80EDFC0803509F44FC0883509F42C
S1131E205DC0883409F0D6C0D3C0883909F4C4C071
S1131E30A8F4883709F467C038F4883609F463C015
S1131E40803709F460C0C6C0883809F4B5C0803949
S1131E5009F45FC0803809F0BDC05BC0803B09F461
S1131E6083C038F4803A09F466C0883A09F47CC027
S1131E70B1C0803C09F4A4C0883C09F4A1C0883BEB
S1131E8009F487C0A7C08091240210C09091FD017D
S1131E908091FC01981770F5E091FD0181E08E0FAF
S1131EA08093FD01F0E0E250FE4F80818093BB00FF
S1131EB085EC83C08093B8018BC0E091FD0181E083
S1131EC08E0F8093FD018091BB00F0E0E250FE4F45
S1131ED080839091FD018091FC016BC0E091FD0134
S1131EE081E08E0F8093FD018091BB00F0E0E25011
S1131EF0FE4F80838091230281116AC081E0809328
S1131F00220284EA5EC083E0809325021092B90124
S1131F10CFCF8091B901803208F04EC0E091B90171
S1131F2081E08E0F8093B9018091BB00F0E0E6540C
S1131F30FE4F8083BDCF0E94C80E8091B9018032CC
S1131F4030F4E091B901F0E0E654FE4F1082609164
S1131F50B90170E0E0911E02F0911F028AEB91E05A
S1131F6009951092B90136C084E08093250210923D
S1131F70DB011092DA01E0912002F091210209952F
S1131F808091DA01811105C081E08093DA01109219
S1131F90DC01E091DB0181E08E0F8093DB01F0E056
S1131FA0E452FE4F80818093BB009091DB018091CD
S1131FB0DA01981708F47CCF85E88093BC000AC046
S1131FC085EC8093BC001092250204C01092B801E5
S1131FD00E94BE0EFF91EF91BF91AF919F918F919F
S1131FE07F916F915F914F913F912F910F900FBE11
S1131FF00F901F9018958091550290E02091560201
S1132000821B910908959091560280915502981768
S113201050F4E92FF0E0E95AFD4F208130E09F5F52
S11320209093560202C02FEF3FEFC9010895E0914B
S1132030560280915502E81730F4F0E0E95AFD4F5A
S1132040808190E008958FEF9FEF08950895CF92D7
S1132050DF92EF92FF920F931F93CF93DF937C0154
S1132060262F972F8A0180913202882391F0C62F60
S1132070D72F6E01C40ED51ECC15DD0571F0699104
S1132080D701ED91FC910190F081E02DC7010995F4
S1132090F3CF642F822F0E94A50EC801DF91CF9148
S11320A01F910F91FF90EF90DF90CF900895CF9301
S11320B0DF931F92CDB7DEB76983209132022223CA
S11320C0D1F020913302203240F021E030E0FC01D5
S11320D03383228380E090E015C080913402E82F9E
S11320E0F0E0EB5CFD4F998190838F5F8093340225
S11320F08093330205C061E0CE0101960E94A50ED3
S113210081E090E00F90DF91CF910895FC0113825C
S1132110128288EE93E0A0E0B0E084839583A683E6
S1132120B7838BE391E091838083089586E292E004
S11321300C9486100E940015FC01918D228D892F2C
S113214090E0805C9F4F821B91098F7399270895BB
S1132150FC01918D828D981731F0828DE80FF11D6D
S1132160858D90E008958FEF9FEF0895FC01918D88
S1132170828D981761F0828DDF01A80FB11D5D96E5
S11321808C91928D9F5F9F73928F90E008958FEF53
S11321909FEF08958FE192E1892B49F080E090E070
S11321A0892B29F00E941F1281110C9400000895BC
S11321B0FC01848DDF01A80FB11DA35ABF4F2C91E0
S11321C0848D90E001968F739927848FA689B789AF
S11321D02C93A089B1898C9180648C93938D848D88
S11321E0981306C00288F389E02D80818F7D808357
S11321F00895CF93DF93EC01888D8823C9F0EA8991
S1132200FB89808185FD05C0A889B9898C9186FDEB
S11322100FC00FB607FCF5CF808185FFF2CFA889E8
S1132220B9898C9185FFEDCFCE010E94D810E7CFFC
S1132230DF91CF910895EF92FF920F931F93CF9365
S1132240DF93EC0181E0888F9B8D8C8D981305C002
S1132250E889F989808185FD24C0F62E0B8D10E074
S11322600F5F1F4F0F731127E02E8C8DE8120CC0E7
S11322700FB607FCFACFE889F989808185FFF5CF8D
S1132280CE010E94D810F1CF8B8DFE01E80FF11D15
S1132290E35AFF4FF0820B8FEA89FB8980818062C9
S11322A007C0EE89FF896083E889F98980818064A9
S11322B0808381E090E0DF91CF911F910F91FF9097
S11322C0EF900895CF92DF92EF92FF921F93CF93F6
S11322D0DF93EC016A017B01122FE889F98982E01E
S11322E080834115514E61057105B1F060E079E0DC
S11322F08DE390E0A70196010E94AB13DA01C901B6
S11323000197A109B109B695A79597958795AC0151
S1132310411580E15807A8F0E889F989108260E83E
S113232074E88EE190E0A70196010E94AB13BA0114
S1132330A90141505109610971097695679557952D
S11323404795EC85FD855083EE85FF854083188E87
S1132350EC89FD891083EA89FB898081806180830F
S1132360EA89FB89808188608083EA89FB8980818E
S113237080688083EA89FB8980818F7D8083DF91F7
S1132380CF911F91FF90EF90DF90CF9008951F920F
S11323900F920FB60F9211242F938F939F93EF9365
S11323A0FF93E0918702F09188028081E0918D0291
S11323B0F0918E0282FD12C09081809190028F5F15
S11323C08F7320919102821751F0E0919002F0E016
S11323D0E958FD4F958F8093900201C08081FF9151
S11323E0EF919F918F912F910F900FBE0F901F909F
S11323F018951F920F920FB60F9211242F933F93AB
S11324004F935F936F937F938F939F93AF93BF93F8
S1132410EF93FF9387E792E00E94D810FF91EF912A
S1132420BF91AF919F918F917F916F915F914F91E8
S11324303F912F910F900FBE0F901F90189587E733
S113244092E00E949C1021E0892B09F420E0822F65
S11324500895E7E7F2E01382128288EE93E0A0E0A9
S1132460B0E084839583A683B7838BE491E0918362
S1132470808385EC90E09587848784EC90E097874F
S1132480868780EC90E0918B808B81EC90E0938B3D
S1132490828B82EC90E0958B848B86EC90E0978B1A
S11324A0868B118E128E138E148E089508950E94B9
S11324B0DB120E9456120E945203CAECD0E10E9421
S11324C018032097E1F30E94CA10F9CFCF92DF924C
S11324D0EF92FF920F931F93CF93DF936C017A01D6
S11324E08B01C0E0D0E0CE15DF0589F0D8016D91F5
S11324F08D01D601ED91FC910190F081E02DC60192
S11325000995892B11F47E0102C02196ECCFC701F5
S1132510DF91CF911F910F91FF90EF90DF90CF90BB
S113252008951F920F920FB60F9211242F933F9389
S11325308F939F93AF93BF9380911503909116034C
S1132540A0911703B09118033091140323E0230FD3
S11325502D3720F40196A11DB11D05C026E8230FD7
S11325600296A11DB11D209314038093150390932B
S11325701603A0931703B093180380911903909145
S11325801A03A0911B03B0911C030196A11DB11D58
S11325908093190390931A03A0931B03B0931C0315
S11325A0BF91AF919F918F913F912F910F900FBE4B
S11325B00F901F901895789484B5826084BD84B57B
S11325C0816084BD85B5826085BD85B5816085BD2A
S11325D0EEE6F0E0808181608083E1E8F0E0108243
S11325E0808182608083808181608083E0E8F0E084
S11325F0808181608083E1EBF0E08081846080836E
S1132600E0EBF0E0808181608083EAE7F0E08081A4
S11326108460808380818260808380818160808304
S11326208081806880831092C1000895833081F096
S113263028F4813099F08230A1F008958730A9F010
S11326408830B9F08430D1F4809180008F7D03C04C
S1132650809180008F7780938000089584B58F7770
S113266002C084B58F7D84BD08958091B0008F77BA
S113267003C08091B0008F7D8093B0000895CF9304
S1132680DF9390E0FC01E857FA4F2491FC01E456F3
S1132690FA4F8491882361F190E0880F991FFC011F
S11326A0E654FA4FC591D491FC01E055FA4FA59137
S11326B0B491611109C09FB7F89488812095822351
S11326C08883EC912E230BC0623061F49FB7F89499
S11326D03881822F809583238883EC912E2B2C9331
S11326E09FBF06C08FB7F894E8812E2B28838FBF35
S11326F0DF91CF9108951F93CF93DF93282F30E07C
S1132700F901EC58FA4F8491F901E857FA4FD49142
S1132710F901E456FA4FC491CC23C9F0162F811164
S11327200E941613EC2FF0E0EE0FFF1FE055FA4F56
S1132730A591B4918FB7F894111105C09C91ED2F18
S1132740E095E92302C0EC91ED2BEC938FBFDF9170
S1132750CF911F910895A1E21A2EAA1BBB1BFD0164
S11327600DC0AA1FBB1FEE1FFF1FA217B307E4076C
S1132770F50720F0A21BB30BE40BF50B661F771FC4
S1132780881F991F1A9469F76095709580959095A4
S11327909B01AC01BD01CF010895EE0FFF1F059011
S11327A0F491E02D0994CF93DF938230910510F4D6
S11327B082E090E0E0911F03F091200320E030E0FC
S11327C0C0E0D0E0309711F140815181481759079A
S11327D0C0F04817590761F482819381209719F05A
S11327E09B838A832BC09093200380931F0326C06E
S11327F02115310519F04217530718F49A01BE0147
S1132800DF01EF010280F381E02DDCCF21153105DA
S113281009F1281B390B2430310590F412968D915F
S11328209C9113976115710521F0FB0193838283B9
S113283004C09093200380931F03FD01329644C08B
S1132840FD01E20FF31F81939193225031092D93DF
S11328503C933AC020911D0330911E03232B41F475
S1132860209102013091030130931E0320931D0334
S113287020910001309101012115310541F42DB75A
S11328803EB74091040150910501241B350BE091A2
S11328901D03F0911E03E217F307A0F42E1B3F0B58
S11328A02817390778F0AC014E5F5F4F24173507BE
S11328B048F04E0F5F1F50931E0340931D038193F6
S11328C0919302C0E0E0F0E0CF01DF91CF91089551
S11328D00F931F93CF93DF93009709F48CC0FC01EF
S11328E032971382128200911F0310912003011565
S11328F0110581F420813181820F931F20911D03E2
S113290030911E032817390779F5F0931E03E093DD
S11329101D0371C0D80140E050E0AE17BF0750F46A
S113292012962D913C911397AD012115310509F1B2
S1132930D901F3CF9D01DA01338322836081718150
S1132940860F971F8217930769F4EC012881398158
S1132950260F371F2E5F3F4F318320838A819B814F
S113296093838283452B29F4F0932003E0931F0380
S113297042C01396FC93EE931297ED01499159913D
S11329809E01240F351FE217F30771F480819181B2
S1132990840F951F029611969C938E938281938146
S11329A013969C938E931297E0E0F0E0D801129670
S11329B08D919C911397009719F0F8018C01F6CF33
S11329C08D919C9198012E5F3F4F820F931F209110
S11329D01D0330911E032817390769F4309729F431
S11329E01092200310921F0302C0138212821093CC
S11329F01E0300931D03DF91CF911F910F91089542
S1132A0081E090E0F8940C940C15DC0101C06D9306
S10F2A1041505040E0F70895F894FFCFC7
S1132A1C0000210320000100000000540766129AF4
S1132A2C100E0407051E05B8043405690587050056
S1132A3C00000054076612FE080E0407051E05B8B4
S1132A4C0434057F0E87050000000057102710FB87
S1132A5C0F031017102610000000001B1166129CA7
S10B2A6C10B610A810F91000C7
S9030000FC
