S01400004D61747269785F4C6F6769632E737265634E
S11300000C9473000C949B000C949B000C94F904C6
S11300100C94F9040C94F9040C949B000C949B002C
S11300200C949B000C947F020C949B000C949B00FA
S11300300C949B000C949B000C949B000C949B00D0
S11300400C94600B0C949B000C94450A0C94770A56
S11300500C949B000C949B000C949B000C949B00B0
S11300600C9422070C949B004A7573742073656E7C
S1130070742073746172742063686172616374655F
S1130080722E0000000008000201000003040700B3
S1130090000000000000000102040810204080015C
S11300A002040810200102040810200404040404BB
S11300B00404040202020202020303030303030012
S11300C0000000230026002900000000002500286D
S11300D0002B0000000000240027002A00001C015F
S11300E01609A70A2F0111241FBECFEFD8E0DEBFE7
S11300F0CDBF11E0A0E0B1E0EEE5FCE102C0059067
S11301000D92A834B107D9F724E0A8E4B1E001C006
S11301101D92A531B207E1F710E0C2E7D0E004C0B8
S11301202197FE010E94EF0CCF36D107C9F70E9438
S1130130D50A0C94220E0C94000081E080934801AF
S11301400895DC01ED91FC910190F081E02D09947A
S113015010926B0110926A01109269010895CF9276
S1130160DF92EF92FF920F931F93CF9326E040E824
S113017055E260E070E08BE693E00E94E00940E81D
S113018055E260E070E089E491E00E94F7054DE9F2
S113019050E062E370E080E090E00E94D6010E94AB
S11301A01E028AE9E82E81E0F82E00E010E0C0E0AB
S11301B0C032D0F488E090E00E94E40A6C010E940E
S11301C00404F801E65EFD4FD182C082C83060F4B9
S11301D080E190E00E94E40A6C010E94FF02F801B1
S11301E0E657FE4FD182C08288E090E00E94E40A84
S11301F06C010E940303F701C192D1927F01CF5F8A
S11302000E5F1F4FC034A1F683E090E00E94E40A21
S11302108C010E94A90210936D0100936C0189E185
S113022093E00E94EA08CF911F910F91FF90EF9005
S1130230DF90CF900C94A8004AE061E08CE791E055
S11302400E9408034AE062E08EE691E00E940803FF
S113025020E043E062E089E491E00C94CC0589E479
S113026091E00C94730580914801882359F18091A1
S113027068018A3070F0609106018DE00E944A0C9A
S11302809091060181E0892780930601109268010C
S113029003C08F5F8093680180916C0190916D0120
S11302A00E94AE0260916B01662351F08BE693E0ED
S11302B00E94990960916B0189E491E00E943504E0
S11302C01092480108951F93CF93DF9300D0CDB7C8
S11302D0DEB7162F682F89E491E02A8349830E94B0
S11302E03504612F89E491E00E9435044981642F2B
S11302F089E491E00E9435042A81622F89E491E027
S11303000F900F90DF91CF911F910C9435041F93A0
S1130310CF93DF93EC01162F809168018F5F809358
S1130320680168E070E089E193E00E94FE086CE3F4
S113033070E089E193E00E94A10068E670E08BE63A
S113034093E00E944E0B113019F460E070E002C09B
S113035061E070E089E193E00E94A1006C8589E18D
S113036093E00E94AB086A8589E193E00E94AB08A0
S11303706B8589E193E00E94AB0860E070E089E15D
S113038093E00E94A10060E070E089E193E00E94A4
S1130390A1006EE370E089E193E00E94A10089E18D
S11303A093E0DF91CF911F910C94130961157105AE
S11303B08105910569F481E090E0A0E0B0E08093CC
S11303C0630290936402A0936502B093660208C02E
S11303D06093630270936402809365029093660253
S11303E05093620240936102809170008E7F8093EB
S11303F070008091B0008C7F8093B0008091B10038
S1130400877F8093B1008091B6008F7D8093B60082
S1130410809170008D7F809370008091B100846022
S11304208093B1008091B1008C7F8093B10086E00D
S113043090E090935B0280935A02089510925D02BB
S113044010925E0210925F021092600210925C029F
S113045080915A0290915B028093B200E0E7F0E051
S1130460808181608083089580915D0290915E0215
S1130470A0915F02B09160020196A11DB11D80930D
S11304805D0290935E02A0935F02B093600280913C
S11304905D0290915E02A0915F02B0916002409172
S11304A06302509164026091650270916602841740
S11304B09507A607B70710F180915C0281111EC051
S11304C081E080935C0280915D0290915E02A09134
S11304D05F02B0916002841B950BA60BB70B80934F
S11304E05D0290935E02A0935F02B0936002E0917C
S11304F06102F0916202099510925C0208951F92C4
S11305000F920FB60F9211242F933F934F935F9343
S11305106F937F938F939F93AF93BF93EF93FF93C7
S113052080915A0290915B028093B2000E9434023F
S1130530FF91EF91BF91AF919F918F917F916F91B7
S11305405F914F913F912F910F900FBE0F901F908D
S11305501895FC011282118210820895CF93DF93C3
S1130560EC018881813041F028F0823079F08330C9
S1130570B9F026C081E023C080916A0186FF20C0C3
S113058080916B01816080936B0118C080916B0135
S113059086FF02C094E0988385FF12C083E00FC0F9
S11305A080916A0185FF02C082E0888380917B018B
S11305B0882331F08091690185FF02C082E088833D
S11305C08881823061F08430B9F48CE791E00E9434
S11305D073038EE691E0DF91CF910C9473038CE763
S11305E091E00E9473038EE691E00E947303898177
S11305F09A8101969A838983DF91CF910895FC01B2
S1130600148217860895FC01178222E0208308953E
S1130610FC016083418381E082838383613011F034
S113062082E101C08EE082878DE18387148281E0BC
S1130630613009F080E08587811103C089E691E08B
S113064002C08AE691E0968385830895EF92FF9233
S11306500F93CF93DF937C01CAE1D2E08991999102
S1130660FC012781211106C00DEFF7014385628546
S11306700E940904F2E0CA35DF0781F7DF91CF91C8
S11306800F91FF90EF900895FC01A581B6818C91A4
S113069084FF05C08385882311F0815083878C9162
S11306A082FF05C08385803210F48F5F83878C912D
S11306B081FF05C08285882311F0815082878C9147
S11306C080FF05C08285803210F48F5F8287089591
S11306D0FC0160810C948701262FFC01438562850F
S11306E08CE00C9463011F93CF93DF93FC0184810E
S11306F08230E1F028F4882341F0813079F02CC075
S11307008330F9F0843031F027C084E0848311868B
S1130710108622C09585992369F01AC0A581B681F7
S11307209C9197FF19C0808782E004C08181811168
S113073003C085E0848310C081E08783148683E04E
S1130740F9CF87818F3130F080E182878EE1838712
S113075081E0F0CF8F5F87831481123099F118F410
S1130760113071F04DC01330D9F1143009F048C084
S1130770A581B6818C9185FF43C081E0858740C007
S1130780EF01CF010E944403ED81FE81808186FF49
S113079008C08985811105C0CE010E9426031987EE
S11307A001C01986ED81FE81808185FF05C080919D
S11307B06B01806280936B01CE01DF91CF911F9119
S11307C00C946803818181508183908180916B01B5
S11307D0913011F4826001C0886080936B0110C075
S11307E0878167E00E947A0C911103C084858F5F32
S11307F084876485CF01DF91CF911F910C946C03A2
S1130800DF91CF911F910895FC01178222E020838C
S113081008950F93FC01618342832383048381E061
S1130820878310820F9108952091A9023091AA0222
S113083028173907B9F490916702809168029817D4
S113084089F0E0916702F0E0E759FD4F8081209143
S1130850670230E02F5F3F4F2F73332720936702E7
S113086090E008958FEF9FEF08951F93CF93DF9348
S1130870DC015C962D913C915D972115310539F48D
S113088081E090E013969C938E9312973DC051960D
S1130890ED91FC91529750969C915097892F809599
S11308A01FB75E964C915E9741FB772770F941FD27
S11308B06095F8944081772311F0492B01C04823B7
S11308C04083E9012197F1F748E0508160FF02C0BD
S11308D0592B01C058235083E9012197F1F76695FC
S11308E0415099F7772321F090818923808303C0B5
S11308F08081982B90831FBF5C968D919C915D970E
S11309000197F1F721E030E0C901DF91CF911F9108
S1130910089508952091A9023091AA022817390751
S113092071F49091670280916802981741F0E09108
S11309306702F0E0E759FD4F808190E008958FEF62
S11309409FEF08952091A9023091AA022817390730
S113095071F4809168022091670290E0805C9F4F5F
S1130960821B910960E470E00E949A0C089580E073
S113097090E00895E091A902F091AA02E817F9071E
S113098069F4A389B4899C918589809589238C9382
S11309901092AA021092A90281E0089580E00895BD
S11309A0CF93DF93EC018A8D9B8D892BF1F080919D
S11309B0A9029091AA028C179D07B9F0009711F033
S11309C00E94BA048E8D8E7F8E8F109268021092D0
S11309D06702D093AA02C093A902EB89FC89908193
S11309E08D89892B808381E001C080E0DF91CF91E4
S11309F008951F920F920FB60F9211242F933F93D5
S1130A004F935F936F937F938F939F93AF93BF9312
S1130A10EF93FF93E091A902F091AA02309709F4B1
S1130A2051C0968DA685B785858591FF04C09C919C
S1130A30892329F447C09C91892309F043C0A389E1
S1130A40B4899C918589809589238C93868997891B
S1130A500197F1F7608D718DA685B785558538E0CE
S1130A6020E0CB010197F1F7822F90E095958795CF
S1130A70282F4C91452309F02068315091F7868D39
S1130A8081FD20958091680290E001968F739927EB
S1130A9030916702381749F0A0916802B0E0A75975
S1130AA0BD4F2C938093680203C0868D8160868F2E
S1130AB0828D938D0197F1F7A389B4899C918589DF
S1130AC0892B8C93FF91EF91BF91AF919F918F915F
S1130AD07F916F915F914F913F912F910F900FBE36
S1130AE00F901F9018952BE031E0FC013183208397
S1130AF00C94BA041F93CF93DF93EC01162F6E8DE1
S1130B006695617081E06827812F0E944A0C61E03C
S1130B10812F0E940E0C612F70E0FB01E956FF4FFC
S1130B20E491E88BFB01E555FF4FE491F0E0EE0F13
S1130B30FF1FE753FF4F859194919A8B898BDF9127
S1130B40CF911F9108951F93CF93DF93EC01162F3C
S1130B5060E0812F0E940E0C8E8D81FD04C061E047
S1130B60812F0E944A0C1C87612F70E0FB01E9561B
S1130B70FF4FE491ED87FB01E555FF4FE491F0E071
S1130B80EE0FFF1FE154FF4F859194919F878E874D
S1130B90DF91CF911F9108951F93CF93DF93EC01C1
S1130BA0162F1B821A8288EE93E0A0E0B0E08C83BB
S1130BB09D83AE83BF838BE091E0998388831F8AF2
S1130BC01E8A198E188E1B8E1A8E1D8E1C8E8E8D6B
S1130BD08E7F20FB81F98E8F642FCE010E947A05CF
S1130BE0612FCE01DF91CF911F910C94A305CF9378
S1130BF0DF93EC019A01AB011B8E1A8E198E188EAD
S1130C001F8A1E8A60E079E08DE390E00E94D00C98
S1130C10F9012430310518F0C901039702C081E0BD
S1130C2090E09D8F8C8F6C85663108F069C0C90196
S1130C30969587958431910510F0439702C081E021
S1130C4090E09F8B8E8B369718F0C901059702C0F0
S1130C5081E090E0998F888FC901880F991F280F30
S1130C60391F36952795369527952D30310518F07F
S1130C702C50310902C021E030E03B8F2A8F909143
S1130C806800683050F021E06E3008F420E081E024
S1130C9001C0880F2A95EAF701C084E0892B80936C
S1130CA068008C85883038F08E3040F0863148F00A
S1130CB020E030E008C02DE630E005C02BE630E04F
S1130CC002C02CE630E03C8B2B8B883030F491E072
S1130CD001C0990F8A95EAF70EC0282F30E08E30B4
S1130CE018F42850310902C02E50310991E001C096
S1130CF0990F2A95EAF79D8B8C8D9D8D0197F1F7BD
S1130D00CE01DF91CF910C94D0041092180381E0AE
S1130D10809316031092150361E082E10E944A0C4D
S1130D2061E083E10E944A0CE9EBF0E080818E7F70
S1130D30808380818D7F808388E48093B80085E4FC
S1130D408093BC0008950F93413208F04AC09091FB
S1130D5018039111FCCF32E030931803009316036B
S1130D603FEF3093AB021092F0024093EF02FB018D
S1130D7061EF72E0DB013A2F361B341718F431911E
S1130D803D93F9CF1092170330911703880F832BEB
S1130D908093170380911503813061F41092150339
S1130DA0809117038093BB008091BC0083FDF8CF32
S1130DB085EC01C085EE8093BC00222321F0809154
S1130DC018038230D1F38091AB028F3F79F0809188
S1130DD0AB02803241F08091AB02803331F094E079
S1130DE005C091E003C092E001C093E0892F0F9108
S1130DF00895613298F420911803243089F46093A3
S1130E00CD02FC012FEC32E0D9018A2F821B861718
S1130E1018F481918D93F9CF80E0089581E00895CD
S1130E2082E0089585ED8093BC008091BC0084FD30
S1130E30FCCF10921803089585EC8093BC001092A7
S1130E40180308951F920F920FB60F9211242F9337
S1130E503F934F935F936F937F938F939F93AF933E
S1130E60BF93EF93FF938091B900887F803609F494
S1130E709EC078F5883209F45DC090F4803109F49D
S1130E8056C038F4882309F4F5C0883009F44FC0FB
S1130E90F5C0883109F44EC0803209F45FC0EEC059
S1130EA0803409F46AC058F4803309F457C0883395
S1130EB009F0E4C08093AB020E941C07DFC08035B8
S1130EC009F44FC0883509F45DC0883409F0D6C0F0
S1130ED0D3C0883909F4C4C0A8F4883709F467C0BA
S1130EE038F4883609F463C0803709F460C0C6C09A
S1130EF0883809F4B5C0803909F45FC0803809F036
S1130F00BDC05BC0803B09F483C038F4803A09F467
S1130F1066C0883A09F47CC0B1C0803C09F4A4C01E
S1130F20883C09F4A1C0883B09F487C0A7C080911C
S1130F30170310C09091F0028091EF02981770F59A
S1130F40E091F00281E08E0F8093F002F0E0EF5028
S1130F50FD4F80818093BB0085EC83C08093AB02FE
S1130F608BC0E091F00281E08E0F8093F0028091BB
S1130F70BB00F0E0EF50FD4F80839091F002809130
S1130F80EF026BC0E091F00281E08E0F8093F002DB
S1130F908091BB00F0E0EF50FD4F808380911603F9
S1130FA081116AC081E08093150384EA5EC083E006
S1130FB0809318031092AC02CFCF8091AC028032A0
S1130FC008F04EC0E091AC0281E08E0F8093AC0239
S1130FD08091BB00F0E0E355FD4F8083BDCF0E94BC
S1130FE01C078091AC02803230F4E091AC02F0E056
S1130FF0E355FD4F10826091AC0270E0E091110363
S1131000F09112038DEA92E009951092AC0236C079
S113101084E0809318031092CE021092CD02E091E6
S11310201303F091140309958091CD02811105C039
S113103081E08093CD021092CF02E091CE0281E054
S11310408E0F8093CE02F0E0E153FD4F80818093B8
S1131050BB009091CE028091CD02981708F47CCF0A
S113106085E88093BC000AC085EC8093BC00109294
S1131070180304C01092AB020E941207FF91EF9173
S1131080BF91AF919F918F917F916F915F914F919C
S11310903F912F910F900FBE0F901F901895809144
S11310A0490390E020914A03821B9109089590918D
S11310B04A0380914903981750F4E92FF0E0E55B67
S11310C0FC4F208130E09F5F90934A0302C02FEFD2
S11310D03FEFC9010895E0914A0380914903E8175D
S11310E030F4F0E0E55BFC4F808190E008958FEFF1
S11310F09FEF08950895CF92DF92EF92FF920F939E
S11311001F93CF93DF937C01262F972F8A01809121
S11311102503882391F0C62FD72F6E01C40ED51E48
S1131120CC15DD0571F06991D701ED91FC91019029
S1131130F081E02DC7010995F3CF642F822F0E941F
S1131140F906C801DF91CF911F910F91FF90EF90A5
S1131150DF90CF900895CF93DF931F92CDB7DEB782
S11311606983209125032223D1F020912603203284
S113117040F021E030E0FC013383228380E090E002
S113118015C080912703E82FF0E0E85DFC4F9981BA
S113119090838F5F809327038093260305C061E0CB
S11311A0CE0101960E94F90681E090E00F90DF9154
S11311B0CF910895FC011382128288EE93E0A0E09F
S11311C0B0E084839583A683B7838BE191E0918318
S11311D08083089510924A031092490310922703C2
S11311E0109226030C94850681E080932503609376
S11311F04803109227031092260308950C94F408D0
S11312000F93062F21E04091260368E273E080915A
S113121048030E94A30610922703109226031092FB
S113122025030F91089561E00C94000989E193E08E
S11312300C94DA08FC01918D228D892F90E0805C5A
S11312409F4F821B91098F7399270895FC01918DFB
S1131250828D981731F0828DE80FF11D858D90E015
S113126008958FEF9FEF0895FC01918D828D98175B
S113127061F0828DDF01A80FB11D5D968C91928D76
S11312809F5F9F73928F90E008958FEF9FEF089573
S11312908DE99AE0892B49F080E090E0892B29F0D0
S11312A00E949D0A81110C9400000895FC01848D14
S11312B0DF01A80FB11DA35ABF4F2C91848D90E07C
S11312C001968F739927848FA689B7892C93A08957
S11312D0B1898C9180648C93938D848D981306C00E
S11312E00288F389E02D80818F7D80830895CF93D8
S11312F0DF93EC01888D8823C9F0EA89FB8980811A
S113130085FD05C0A889B9898C9186FD0FC00FB6EB
S113131007FCF5CF808185FFF2CFA889B9898C912C
S113132085FFEDCFCE010E945609E7CFDF91CF9123
S11313300895EF92FF920F931F93CF93DF93EC01E5
S113134081E0888F9B8D8C8D981305C0E889F9897D
S1131350808185FD24C0F62E0B8D10E00F5F1F4F9A
S11313600F731127E02E8C8DE8120CC00FB607FC0A
S1131370FACFE889F989808185FFF5CFCE010E94F3
S11313805609F1CF8B8DFE01E80FF11DE35AFF4F93
S1131390F0820B8FEA89FB898081806207C0EE8925
S11313A0FF896083E889F98980818064808381E092
S11313B090E0DF91CF911F910F91FF90EF900895EE
S11313C0CF92DF92EF92FF921F93CF93DF93EC01C2
S11313D06A017B01122FE889F98982E08083411533
S11313E0514E61057105B1F060E079E08DE390E064
S11313F0A70196010E94AE0CDA01C9010197A10967
S1131400B109B695A79597958795AC01411580E1EB
S11314105807A8F0E889F989108260E874E88EE139
S113142090E0A70196010E94AE0CBA01A9014150B7
S11314305109610971097695679557954795EC852A
S1131440FD855083EE85FF854083188EEC89FD89E8
S11314501083EA89FB89808180618083EA89FB8922
S1131460808188608083EA89FB89808180688083A9
S1131470EA89FB8980818F7D8083DF91CF911F91E1
S1131480FF90EF90DF90CF9008951F920F920FB6C8
S11314900F9211242F938F939F93EF93FF93E091D7
S11314A07B03F0917C038081E0918103F0918203BE
S11314B082FD12C09081809184038F5F8F7320918D
S11314C08503821751F0E0918403F0E0E559FC4F65
S11314D0958F8093840301C08081FF91EF919F9148
S11314E08F912F910F900FBE0F901F9018951F9200
S11314F00F920FB60F9211242F933F934F935F9344
S11315006F937F938F939F93AF93BF93EF93FF93C7
S11315108BE693E00E945609FF91EF91BF91AF9142
S11315209F918F917F916F915F914F913F912F91F7
S11315300F900FBE0F901F9018958BE693E00E94BA
S11315401A0921E0892B09F420E0822F0895EBE6A3
S1131550F3E01382128288EE93E0A0E0B0E084838B
S11315609583A683B7838BE291E09183808385EC96
S113157090E09587848784EC90E09787868780EC59
S113158090E0918B808B81EC90E0938B828B82EC4A
S113159090E0958B848B86EC90E0978B868B118EF4
S11315A0128E138E148E089508950E94AA0B0E9421
S11315B0D40A0E94AF00C8E4D9E00E943301209706
S11315C0E1F30E944809F9CF0C94F50CCF92DF9215
S11315D0EF92FF920F931F93CF93DF936C017A01E5
S11315E08B01C0E0D0E0CE15DF0589F0D8016D9104
S11315F08D01D601ED91FC910190F081E02DC601A1
S11316000995892B11F47E0102C02196ECCFC70104
S1131610DF91CF911F910F91FF90EF90DF90CF90CA
S113162008956115710579F0FB0101900020E9F737
S11316303197AF01461B570BDC01ED91FC91028001
S1131640F381E02D099480E090E00895EF92FF92F9
S11316500F931F93CF93DF938C017B01C0E0D0E005
S1131660F701EC0FFD1F6491662361F0D801ED9141
S1131670FC910190F081E02DC8010995892B11F0AE
S11316802196EECFCE01DF91CF911F910F91FF9064
S1131690EF90089567E371E00C94110B0F931F937F
S11316A0CF93DF93EC010E94260B8C01CE010E94A4
S11316B04A0B800F911FDF91CF911F910F910895D5
S11316C01F920F920FB60F9211242F933F938F9373
S11316D09F93AF93BF938091090490910A04A091C2
S11316E00B04B0910C043091080423E0230F2D3730
S11316F020F40196A11DB11D05C026E8230F029612
S1131700A11DB11D209308048093090490930A0439
S1131710A0930B04B0930C0480910D0490910E04DB
S1131720A0910F04B09110040196A11DB11D8093E6
S11317300D0490930E04A0930F04B0931004BF9172
S1131740AF919F918F913F912F910F900FBE0F906A
S11317501F901895789484B5826084BD84B58160A7
S113176084BD85B5826085BD85B5816085BDEEE6A5
S1131770F0E0808181608083E1E8F0E01082808184
S113178082608083808181608083E0E8F0E08081F2
S113179081608083E1EBF0E0808184608083E0EB12
S11317A0F0E0808181608083EAE7F0E080818460FA
S11317B08083808182608083808181608083808156
S11317C0806880831092C1000895833081F028F4EA
S11317D0813099F08230A1F008958730A9F08830E3
S11317E0B9F08430D1F4809180008F7D03C0809162
S11317F080008F7780938000089584B58F7702C02E
S113180084B58F7D84BD08958091B0008F7703C027
S11318108091B0008F7D8093B0000895CF93DF93C3
S113182090E0FC01E956FF4F2491FC01E555FF4F80
S11318308491882361F190E0880F991FFC01ED5297
S1131840FF4FC591D491FC01E753FF4FA591B4918B
S1131850611109C09FB7F8948881209582238883F9
S1131860EC912E230BC0623061F49FB7F894388159
S1131870822F809583238883EC912E2B2C939FBFFA
S113188006C08FB7F894E8812E2B28838FBFDF9191
S1131890CF9108951F93CF93DF93282F30E0F90160
S11318A0ED57FF4F8491F901E956FF4FD491F901A7
S11318B0E555FF4FC491CC23C9F0162F81110E9426
S11318C0E50BEC2FF0E0EE0FFF1FE753FF4FA59160
S11318D0B4918FB7F894111105C09C91ED2FE09548
S11318E0E92302C0EC91ED2BEC938FBFDF91CF91F4
S11318F01F910895991B79E004C0991F961708F069
S1131900961B881F7A95C9F780950895AA1BBB1B5F
S113191051E107C0AA1FBB1FA617B70710F0A61BEB
S1131920B70B881F991F5A95A9F780959095BC010C
S1131930CD01089597FB072E16F4009407D077FD88
S113194009D00E94860C07FC05D03EF49095819541
S11319509F4F0895709561957F4F0895A1E21A2EC7
S1131960AA1BBB1BFD010DC0AA1FBB1FEE1FFF1F3F
S1131970A217B307E407F50720F0A21BB30BE40B8F
S1131980F50B661F771F881F991F1A9469F76095D6
S11319907095809590959B01AC01BD01CF01089590
S11319A0052E97FB1EF400940E94E70C57FD07D008
S11319B00E94AE0C07FC03D04EF40C94E70C509537
S11319C04095309521953F4F4F4F5F4F0895909527
S11319D08095709561957F4F8F4F9F4F0895EE0FBF
S11319E0FF1F0590F491E02D0994CF93DF9382308B
S11319F0910510F482E090E0E0911304F091140456
S1131A0020E030E0C0E0D0E0309711F14081518116
S1131A1048175907C0F04817590761F48281938128
S1131A20209719F09B838A832BC09093140480938E
S1131A30130426C02115310519F04217530718F471
S1131A409A01BE01DF01EF010280F381E02DDCCFBA
S1131A502115310509F1281B390B2430310590F487
S1131A6012968D919C9113976115710521F0FB01DC
S1131A709383828304C09093140480931304FD0120
S1131A80329644C0FD01E20FF31F819391932250DB
S1131A9031092D933C933AC02091110430911204E2
S1131AA0232B41F42091020130910301309312045D
S1131AB02093110420910001309101012115310579
S1131AC041F42DB73EB74091040150910501241B08
S1131AD0350BE0911104F0911204E217F307A0F41E
S1131AE02E1B3F0B2817390778F0AC014E5F5F4F70
S1131AF02417350748F04E0F5F1F5093120440938C
S1131B0011048193919302C0E0E0F0E0CF01DF91F2
S1131B10CF9108950F931F93CF93DF93009709F408
S1131B208CC0FC013297138212820091130410912D
S1131B3014040115110581F420813181820F931F52
S1131B4020911104309112042817390779F5F09384
S1131B501204E093110471C0D80140E050E0AE17C4
S1131B60BF0750F412962D913C911397AD012115A6
S1131B70310509F1D901F3CF9D01DA0133832283C1
S1131B8060817181860F971F8217930769F4EC01B6
S1131B9028813981260F371F2E5F3F4F31832083E1
S1131BA08A819B8193838283452B29F4F0931404C7
S1131BB0E093130442C01396FC93EE931297ED0145
S1131BC0499159919E01240F351FE217F30771F4CF
S1131BD080819181840F951F029611969C938E9318
S1131BE08281938113969C938E931297E0E0F0E0A8
S1131BF0D80112968D919C911397009719F0F801D2
S1131C008C01F6CF8D919C9198012E5F3F4F820FEE
S1131C10931F20911104309112042817390769F495
S1131C20309729F4109214041092130402C0138202
S1131C3012821093120400931104DF91CF911F912B
S1131C400F91089510E0C2E7D0E004C0FE010E94A5
S1111C50EF0C2196C337D107C9F7F894FFCFE4
S1131C5E00001504200001000000003504E60AA26D
S1131C6E0414048A04890400000000AB087B084FA6
S1131C7E0857086B087A08000000009909E60A1A4A
S1131C8E093409260977090D0A006E616E00696E22
S10B1C9E66006F7666002E005B
S9030000FC
