S01C0000415652204475646520432046496C6520546573742E73726563DA
S11300000C9434000C943E000C943E000C943E007E
S11300100C943E000C943E000C943E000C943E0064
S11300200C943E000C943E000C943E000C943E0054
S11300300C943E000C943E000C943E000C943E0044
S11300400C943E000C943E000C943E000C943E0034
S11300500C943E000C943E000C943E000C943E0024
S11300600C943E000C943E0011241FBECFEFD8E048
S1130070DEBFCDBF0E9440000C9453000C940000DE
S11300808FEF84B987B985B1809585B988B180959A
S113009088B92FEF83ED90E3215080409040E1F741
S10D00A000C00000F0CFF894FFCF79
S9030000FC
