:1000000045C0000060C000005EC000005CC0000091
:100010005AC0000058C0000056C0000054C0000084
:1000200052C0000050C000004EC000004CC0000094
:100030004AC000009CC0000046C0000044C0000050
:1000400042C0000040C000003EC000003CC00000B4
:100050003AC0000038C0000036C0000034C00000C4
:1000600032C0000030C000002EC000002CC00000D4
:100070002AC0000028C0000026C0000024C00000E4
:1000800022C0000020C000001EC0000011241FBEBE
:10009000CFEFD0E4DEBFCDBF11E0A0E0B1E0E2E7FA
:1000A000F4E000E00BBF02C007900D92A430B1074E
:1000B000D9F721E0A4E0B1E001C01D92A132B2075E
:1000C000E1F7E9D0D4C19CCF009719F081309105B8
:1000D00049F510921B0110921A0120E030E061E016
:1000E00070E080B190E0022E02C0959587950A9449
:1000F000E2F780FD0CC040911B01CB01022E02C033
:10010000880F991F0A94E2F7842B80931B0181E0EA
:10011000820F80931A012F5F3F4F2830310509F776
:1001200081E090E008958BE0809381008DE790E07E
:10013000909389008093880082E080936F001092F2
:100140008500109284008091000190910101A0919E
:100150000201B091030180931C0190931D01A093B3
:100160001E01B0931F018FB780688FBF08951F9243
:100170000F920FB60F9211248F939F93AF93BF935B
:1001800080911C0190911D01A0911E01B0911F0151
:100190000197A109B10980931C0190931D01A093BF
:1001A0001E01B0931F01892B8A2B8B2B99F481E0C0
:1001B000809320018091000190910101A0910201A2
:1001C000B091030180931C0190931D01A0931E0127
:1001D000B0931F01BF91AF919F918F910F900FBE70
:1001E0000F901F901895813081F0E1ECF0E0808154
:1001F00088618083E2ECF0E080818660808383E325
:100200008093C4001092C5000895E9ECF0E080816D
:1002100088618083EAECF0E080818660808383E3FC
:100220008093CC001092CD000895613041F0E0EC55
:10023000F0E0908195FFFDCF8093C6000895E8EC33
:10024000F0E0908195FFFDCF8093CE00089581303E
:10025000910531F082309105C1F0009731F415C05D
:1002600020911B01211104C008958230910591F461
:100270008FEF85B98091C00085FF0AC060E0809152
:100280001B01D3DF82E090E0089581E090E00895C3
:1002900082E090E00895CF93DF9300D000D0CDB7F7
:1002A000DEB78FEF84B915B811B882B917B888B91D
:1002B0008AEF8AB985E08BB90F2EFFE0EF2EF02D83
:1002C000F12C00E010E052E340E030E020E004C018
:1002D000E62EF72E082F192F652F742F832F922FBC
:1002E0002E2D3F2D402F512FA0D05E2D4F2D302F82
:1002F000212F611571058105910551F762E370E0C9
:1003000080E090E02E2D3F2D402F512F8ED04901BF
:100310005A016FE070E080E090E02E2D3F2D402FDD
:10032000512F83D0AFE0B1E0BA83A983E4E0F1E0DC
:10033000FC83EB831C9211968D929D92AD92BC92A0
:10034000149715968D929D92AD92BC92189784E663
:1003500090E01A969C938E93199710822183328392
:1003600043835483258336834783508787E291E014
:1003700092878187E0920001F092010100930201CF
:1003800010930301E0921C01F0921D0100931E01E5
:1003900010931F01C8DE80E026DF6E0185E0C80EE5
:1003A000D11CDE0111967D01F70100811181D80178
:1003B00015964D915D916D917C91189711968D9147
:1003C0009D910D90BC91A02D481759076A077B0796
:1003D00091F4F80180810184F285E02D082E000C53
:1003E000990B0995D8018C93D701ED91FC91158259
:1003F000168217821086F80185819681A781B085C3
:100400000196A11DB11D85839683A783B087F2E075
:10041000EF0EF11CEC14FD0439F6809120018823C5
:10042000E1F31092200115B8BCCFA1E21A2EAA1B4D
:10043000BB1BFD010DC0AA1FBB1FEE1FFF1FA21794
:10044000B307E407F50720F0A21BB30BE40BF50B91
:10045000661F771F881F991F1A9469F7609570951A
:10046000809590959B01AC01BD01CF010895F89452
:02047000FFCFBC
:040472000100000085
:00000001FF
