S00A000055492E737265637C
S11300004CC0000067C0000065C0000063C0000071
S113001061C000005FC000005DC000005BC0000064
S113002059C0000057C0000055C0000053C0000074
S113003051C000008CC100004DC000004BC0000046
S113004049C0000047C0000045C0000043C0000094
S113005041C000003FC000003DC000003BC00000A4
S113006039C0000037C0000035C0000033C00000B4
S113007031C000002FC000002DC000002BC00000C4
S113008029C0000027C0000025C0000066027302DA
S113009090029E02BC02DF02C20211241FBECFEFF7
S11300A0D0E4DEBFCDBF11E0A0E0B1E0E2E4FAE0CD
S11300B000E00BBF02C007900D92A235B107D9F73B
S11300C021E0A2E5B1E001C01D92A638B207E1F734
S11300D098D3B5C495CF181619065CF0089500009E
S11300E021503109E1F74F5F5F4F4817590729F451
S11300F0089540E050E077E063E0272F362FEFCFFC
S11301005E9888B95F9A00005F9882E090E0E3CF40
S1130110089581E0F5CF0895813118F48158F0CF26
S113012008958155EDCF089584E690E0D4DF88E307
S1130130E7DF86E0E5DF8FE0E3DF81E0E1DF8AE00F
S113014090E0C9CF08955E9A88B95F9A00005F98DD
S113015081E090E0C0CF08951F93CF93DF93FB011C
S11301609081992351F0EB0111E0180FD5DF8991AB
S1130170EADF812F98819111F7CFDF91CF911F9101
S113018008950F931F93CF93DF93182FEB01C1DFD3
S11301908881882351F001E0010F812FBDDF89910F
S11301A0D2DF102F88818111F6CFDF91CF911F917B
S11301B00F9108958130910509F456C0823091055C
S11301C051F0009709F066C010927F0110927E01F1
S11301D082E090E0089510927A01109279013091B2
S11301E07F01332381F080E090E020E0880F991FA5
S11301F0AC014F5F5F4F2F5FCA012317B8F35093D1
S11302007A0140937901109278011092770130912C
S11302107E01332381F080E090E020E0880F991F75
S1130220AC014F5F5F4F2F5FCA012317B8F35093A0
S11302307801409377018091780140917901909100
S11302407A0120E030E030917701242B30937D0156
S113025020937C01880F880F892B8295807F80935F
S11302607B0181E090E008952091800120FF07C088
S11302708AE080937F0110927E0182E090E021FF6A
S113028009C020917F01222329F0215020937F016E
S113029082E090E00895FC01DB018FE090E078E0DB
S11302A070833081AD01082E02C0569547950A949B
S11302B0E2F7242F2170232B2083208124602083C4
S11302C0019770F780818260808310820895CF93B4
S11302D0DF93EC01009719F0019721F010C0C1E001
S11302E0D0E00DC060917C0170917D0182E290E0CC
S11302F0D2DF82B18F7090917B01892B82B9CE01BC
S1130300DF91CF9108958BE0809381008DE790E099
S1130310909389008093880082E080936F0010920C
S11303208500109284008091480190914901A09128
S11303304A01B0914B018093810190938201A09373
S11303408301B09384018FB780688FBF08951F9293
S11303500F920FB60F9211248F939F93AF93BF9375
S11303608091810190918201A0918301B0918401D7
S11303700197A109B1098093810190938201A0930F
S11303808301B0938401892B8A2B8B2B99F481E010
S1130390809385018091480190914901A0914A017F
S11303A0B0914B018093810190938201A0938301CA
S11303B0B0938401BF91AF919F918F910F900FBE25
S11303C00F901F901895813081F0E1ECF0E080816E
S11303D088618083E2ECF0E080818660808383E33F
S11303E08093C4001092C5000895E9ECF0E0808188
S11303F088618083EAECF0E080818660808383E317
S11304008093CC001092CD000895813029F480911E
S1130410C800882384F008958091C0008823ACF438
S1130420A6ECB0E0E0ECF0E08C9180937601808162
S11304308823D4F30895AEECB0E0E8ECF0E08C91BE
S11304408093760180818823D4F30895813041F02C
S1130450E0ECF0E080818823ECF78091C6000895F9
S1130460E8ECF0E080818823ECF78091CE000895D9
S1130470CF93C82F8DEF8C0F4FDE87EE8C0F8B3010
S113048010F48FEF60DE8EEF8C0F46DE88EE8C0F5B
S11304908B3010F48CE757DE8FEF8C0F3DDE89EE46
S11304A08C0F8B3010F48FE24EDE8C2F35DEC6516C
S11304B0CB3010F480EB47DECF910895873091055F
S11304C008F066C0FC01EA5BFF4FB0C22DDE21DEFE
S11304D068E271E081E055DE81E18093750181E09D
S11304E0809374016CC08091800180FF08C06FE12B
S11304F071E081E046DE81E08093730165C084FF92
S11305000AC01092730110927501809174018F5F7B
S113051080937401C1C083FF52C01092750134C12D
S113052080917501843220F080E280937501A1C02E
S1130530809173018F5F8093730146C02091750190
S1130540263128F42F5F2093750181E090E02091FB
S1130550800124FF0CC010927301109275018091E8
S113056074018F5F8093740123FD03C095C023FF42
S11305700FC01092750108C1809173018F5F809341
S113058073018AC0809173018F5F80937301FCC0F3
S11305908330910509F46DC03CF48130910579F004
S11305A08230910589F008958530910509F4C4C01D
S11305B00CF472C08630910509F022C1E5C080E0D8
S11305C0ABDD81E090E0089580917501A5DD809117
S11305D07501873168F09091730190FD09C048DF7F
S11305E0809175018F5F8093750182E090E008959A
S11305F08631D1F4209173018DEC289F812D112433
S113060082958F70880F880F982F990F990F890FF3
S11306102813E8C080EB97DD809175018F5F80938C
S1130620750182E090E00895863108F0DEC02091E3
S113063073019DEC299F912D112496959695392F40
S1130640330F330F930F2913D3C0E82FF0E0E85F83
S1130650FE4F808178DD809175018F5F80937501F5
S1130660863109F0C8C081E08093730182E090E094
S113067008958091800185FFC1C0809175014CDD92
S11306808EEF61DD8091750181508093750180E06A
S113069043DD83E090E0089580917501811126C0C7
S11306A0209173018DEC289F812D112486958695C8
S11306B08695880F982F990F990F890F281337C0A3
S11306C081E08093750128DDE0917501F0E0E45F3D
S11306D0FE4F808138DD809175018F5F80937501B5
S11306E08C3088F381E28093750121C08132F9F462
S11306F0209173018DEC289F812D11248695869578
S11307008695880F982F990F990F890F28130FC07A
S113071081E08093750100DD8EEF15DD8091750118
S11307208F5F809375018031B0F31092750180E082
S1130730F3DC84E090E00895809174018230D8F075
S113074081E080937501E8DC8EEFFDDC809175011A
S11307508F5F809375018131B0F36FE171E081E0C7
S1130760FBDC87E0D9DC80917401805DECDC86E100
S11307708093750104C06FE171E081E002DD80E0E7
S1130780CBDC81E090E0089580917501811125C052
S1130790209173018DEC289F812D112486958695D7
S11307A08695880F982F990F990F890F281315C0D4
S11307B081E080937501B0DCE0917501F0E0E150D7
S11307C0FF4F8081C0DC809175018F5F809375013C
S11307D08D3088F381E28093750180E09DDC86E0B2
S11307E090E0089582E090E0089582E090E008951A
S11307F082E090E0089582E090E0089583E090E044
S11308000895CF93DF9300D000D000D0CDB7DEB7EA
S11308108FEF81B912B884B915B887B918B88EEFBB
S11308208AB981E08BB90F2EF2E3EF2EF02DF12C73
S113083000E010E059E140E030E020E004C0E62EA2
S1130840F72E082F192F652F742F832F922F2E2DFB
S11308503F2D402F512FC8D05E2D4F2D302F212FEB
S1130860611571058105910551F769E170E080E03A
S113087090E02E2D3F2D402F512FB6D049015A0123
S113088062E370E080E090E02E2D3F2D402F512F49
S1130890ABD086E0ECE4F1E0DE01119601900D921C
S11308A08A95E1F7E8E6F1E0108281829282A382E0
S11308B0B48285829682A782B0868EE592E0928782
S11308C08187EDE5F1E0108281829282A382B48275
S11308D085829682A782B0868AED90E0928781878E
S11308E0E2E5F1E01082218332834383548325833C
S11308F036834783508787E691E092878187E09229
S11309004801F092490100934A0110934B01E0928F
S11309108101F09282010093830110938401F3DC3E
S113092080E051DD81E04FDD80E06FDD8091C0002B
S1130930882324F480E08ADD809380016E0187E0BF
S1130940C80ED11C0F2EF0ECAF2EB12CF02D8091DF
S1130950800185B9DE0111967D01F70101911191A4
S11309607F01D80115964D915D916D917C911897F9
S113097011968D919D910D90BC91A02D481759070A
S11309806A077B0781F4F80180810184F285E02DF8
S1130990082E000C990B0995D8018C93F801158247
S11309A0168217821086F80185819681A781B08509
S11309B00196A11DB11D85839683A783B087EC148E
S11309C0FD0459F610928001809185018823E1F39A
S11309D0D5018C91882324F480E038DD8093800154
S11309E01092850115B8B3CFA1E21A2EAA1BBB1B26
S11309F0FD010DC0AA1FBB1FEE1FFF1FA217B307E7
S1130A00E407F50720F0A21BB30BE40BF50B661FFC
S1130A10771F881F991F1A9469F7609570958095C0
S1130A2090959B01AC01BD01CF010895EE0FFF1F0E
S1130A300024001C0BBE0790F691E02D0994F89455
S1050A40FFCFE2
S1130A4247616D65204F7665722E2E2E00596F75A3
S1130A5220646964206974210054696D653A005305
S1130A6275727669766521003E5031205072657345
S1130A72732043656E7465723E5032204A6F696E0C
S1130A822043656E746572000100000068015D0117
S1050A9252010B
S9030000FC
