:100000000C945C000C9479000C9479000C947900A9
:100010000C9479000C9479000C9479000C9479007C
:100020000C9479000C943F010C9479000C947900A5
:100030000C9479000C9479000C9479000C9479005C
:100040000C9479010C9479000C9479000C9479004B
:100050000C9479000C9479000C9479000C9479003C
:100060000C9479000C947900000000080002010053
:100070000003040700000000000000000102040863
:100080001020408001020408102001020408102002
:10009000040404040404040402020202020203032E
:1000A0000303030300000000250028002B000000CC
:1000B0000000240027002A0011241FBECFEFD8E043
:1000C000DEBFCDBF11E0A0E0B1E0EAE2F5E002C0A2
:1000D00005900D92A230B107D9F721E0A2E0B1E07E
:1000E00001C01D92A831B207E1F70E946A010C9489
:1000F00093020C940000609100018DE00E94630265
:100100009091000181E0892780930001089561E0CA
:100110008DE00E9427024BE750E064EF71E080E041
:1001200090E00E9496000C94DE0008956115710520
:100130008105910569F481E090E0A0E0B0E0809352
:100140000B0190930C01A0930D01B0930E0108C018
:1001500060930B0170930C0180930D0190930E013D
:1001600050930A0140930901809170008E7F809323
:1001700070008091B0008C7F8093B0008091B100BE
:10018000877F8093B1008091B6008F7D8093B60009
:10019000809170008D7F809370008091B1008460A9
:1001A0008093B1008091B1008C7F8093B10086E094
:1001B00090E090930301809302010895109205014D
:1001C000109206011092070110920801109204018A
:1001D00080910201909103018093B200E0E7F0E08A
:1001E000808181608083089580910501909106014E
:1001F000A0910701B09108010196A11DB11D809346
:10020000050190930601A0930701B0930801809126
:10021000050190910601A0910701B091080140915C
:100220000B0150910C0160910D0170910E0184172A
:100230009507A607B70710F18091040181111EC030
:1002400081E0809304018091050190910601A091C5
:100250000701B0910801841B950BA60BB70B809387
:10026000050190930601A0930701B0930801E09166
:100270000901F0910A0109951092040108951F9255
:100280000F920FB60F9211242F933F934F935F93CA
:100290006F937F938F939F93AF93BF93EF93FF934E
:1002A00080910201909103018093B2000E94F400BA
:1002B000FF91EF91BF91AF919F918F917F916F913E
:1002C0005F914F913F912F910F900FBE0F901F9014
:1002D000189508950E94C3010E9469010E94870039
:1002E000C0E0D0E00E9495002097E1F30E9400005A
:1002F000F9CF1F920F920FB60F9211242F933F93B5
:100300008F939F93AF93BF938091100190911101B0
:10031000A0911201B091130130910F0123E0230F3E
:100320002D3720F40196A11DB11D05C026E8230F2D
:100330000296A11DB11D20930F018093100190938F
:100340001101A0931201B0931301809114019091B7
:100350001501A0911601B09117010196A11DB11DC3
:100360008093140190931501A0931601B093170187
:10037000BF91AF919F918F913F912F910F900FBEA1
:100380000F901F901895789484B5826084BD84B5D1
:10039000816084BD85B5826085BD85B5816085BD80
:1003A000EEE6F0E0808181608083E1E8F0E0108299
:1003B000808182608083808181608083E0E8F0E0DA
:1003C000808181608083E1EBF0E0808184608083C4
:1003D000E0EBF0E0808181608083EAE7F0E08081FB
:1003E000846080838081826080838081816080835B
:1003F0008081806880831092C1000895833081F0ED
:1004000028F4813099F08230A1F008958730A9F066
:100410008830B9F08430D1F4809180008F7D03C0A2
:10042000809180008F7780938000089584B58F77C6
:1004300002C084B58F7D84BD08958091B0008F7710
:1004400003C08091B0008F7D8093B0000895CF935A
:10045000DF9390E0FC01E458FF4F2491FC01E0574A
:10046000FF4F8491882361F190E0880F991FFC0170
:10047000E255FF4FC591D491FC01EC55FF4FA5917A
:10048000B491611109C09FB7F894888120958223A7
:100490008883EC912E230BC0623061F49FB7F894EF
:1004A0003881822F809583238883EC912E2B2C9387
:1004B0009FBF06C08FB7F894E8812E2B28838FBF8B
:1004C000DF91CF9108951F93CF93DF93282F30E0D2
:1004D000F901E859FF4F8491F901E458FF4FD49195
:1004E000F901E057FF4FC491CC23C9F0162F8111B9
:1004F0000E94FE01EC2FF0E0EE0FFF1FEC55FF4FC6
:10050000A591B4918FB7F894111105C09C91ED2F6E
:10051000E095E92302C0EC91ED2BEC938FBFDF91C6
:0A052000CF911F910895F894FFCFCA
:02052A000100CE
:00000001FF
